{
  "_format": "hh-sol-artifact-1",
  "contractName": "CuredCats",
  "sourceName": "contracts/CuredCats.sol",
  "abi": [
    {
      "inputs": [
        {
          "internalType": "string",
          "name": "name_",
          "type": "string"
        },
        {
          "internalType": "string",
          "name": "symbol_",
          "type": "string"
        },
        {
          "internalType": "string",
          "name": "baseURI_",
          "type": "string"
        },
        {
          "internalType": "address",
          "name": "_mutantCatsAddress",
          "type": "address"
        },
        {
          "internalType": "address",
          "name": "_serumAddress",
          "type": "address"
        }
      ],
      "stateMutability": "nonpayable",
      "type": "constructor"
    },
    {
      "anonymous": false,
      "inputs": [
        {
          "indexed": true,
          "internalType": "address",
          "name": "owner",
          "type": "address"
        },
        {
          "indexed": true,
          "internalType": "address",
          "name": "approved",
          "type": "address"
        },
        {
          "indexed": true,
          "internalType": "uint256",
          "name": "tokenId",
          "type": "uint256"
        }
      ],
      "name": "Approval",
      "type": "event"
    },
    {
      "anonymous": false,
      "inputs": [
        {
          "indexed": true,
          "internalType": "address",
          "name": "owner",
          "type": "address"
        },
        {
          "indexed": true,
          "internalType": "address",
          "name": "operator",
          "type": "address"
        },
        {
          "indexed": false,
          "internalType": "bool",
          "name": "approved",
          "type": "bool"
        }
      ],
      "name": "ApprovalForAll",
      "type": "event"
    },
    {
      "anonymous": false,
      "inputs": [
        {
          "indexed": true,
          "internalType": "address",
          "name": "previousOwner",
          "type": "address"
        },
        {
          "indexed": true,
          "internalType": "address",
          "name": "newOwner",
          "type": "address"
        }
      ],
      "name": "OwnershipTransferred",
      "type": "event"
    },
    {
      "anonymous": false,
      "inputs": [
        {
          "indexed": true,
          "internalType": "address",
          "name": "from",
          "type": "address"
        },
        {
          "indexed": true,
          "internalType": "address",
          "name": "to",
          "type": "address"
        },
        {
          "indexed": true,
          "internalType": "uint256",
          "name": "tokenId",
          "type": "uint256"
        }
      ],
      "name": "Transfer",
      "type": "event"
    },
    {
      "inputs": [],
      "name": "CURED_CATS_TOKEN_ID",
      "outputs": [
        {
          "internalType": "uint256",
          "name": "",
          "type": "uint256"
        }
      ],
      "stateMutability": "view",
      "type": "function"
    },
    {
      "inputs": [],
      "name": "MUTANT_CATS_TOKEN_ID",
      "outputs": [
        {
          "internalType": "uint256",
          "name": "",
          "type": "uint256"
        }
      ],
      "stateMutability": "view",
      "type": "function"
    },
    {
      "inputs": [],
      "name": "SERUM_COST",
      "outputs": [
        {
          "internalType": "uint256",
          "name": "",
          "type": "uint256"
        }
      ],
      "stateMutability": "view",
      "type": "function"
    },
    {
      "inputs": [],
      "name": "SERUM_TOKEN_ID",
      "outputs": [
        {
          "internalType": "uint256",
          "name": "",
          "type": "uint256"
        }
      ],
      "stateMutability": "view",
      "type": "function"
    },
    {
      "inputs": [
        {
          "internalType": "address",
          "name": "",
          "type": "address"
        }
      ],
      "name": "addressMintedBalance",
      "outputs": [
        {
          "internalType": "uint256",
          "name": "",
          "type": "uint256"
        }
      ],
      "stateMutability": "view",
      "type": "function"
    },
    {
      "inputs": [
        {
          "internalType": "address",
          "name": "to",
          "type": "address"
        },
        {
          "internalType": "uint256",
          "name": "tokenId",
          "type": "uint256"
        }
      ],
      "name": "approve",
      "outputs": [],
      "stateMutability": "nonpayable",
      "type": "function"
    },
    {
      "inputs": [
        {
          "internalType": "address",
          "name": "owner",
          "type": "address"
        }
      ],
      "name": "balanceOf",
      "outputs": [
        {
          "internalType": "uint256",
          "name": "",
          "type": "uint256"
        }
      ],
      "stateMutability": "view",
      "type": "function"
    },
    {
      "inputs": [],
      "name": "baseURI",
      "outputs": [
        {
          "internalType": "string",
          "name": "",
          "type": "string"
        }
      ],
      "stateMutability": "view",
      "type": "function"
    },
    {
      "inputs": [],
      "name": "contractAddress",
      "outputs": [
        {
          "internalType": "address",
          "name": "",
          "type": "address"
        }
      ],
      "stateMutability": "view",
      "type": "function"
    },
    {
      "inputs": [],
      "name": "curedCatSupply",
      "outputs": [
        {
          "internalType": "uint256",
          "name": "",
          "type": "uint256"
        }
      ],
      "stateMutability": "view",
      "type": "function"
    },
    {
      "inputs": [],
      "name": "curedCatTotal",
      "outputs": [
        {
          "internalType": "uint256",
          "name": "",
          "type": "uint256"
        }
      ],
      "stateMutability": "view",
      "type": "function"
    },
    {
      "inputs": [],
      "name": "curedCatsAddress",
      "outputs": [
        {
          "internalType": "contract IERC721",
          "name": "",
          "type": "address"
        }
      ],
      "stateMutability": "view",
      "type": "function"
    },
    {
      "inputs": [
        {
          "internalType": "uint256",
          "name": "tokenId",
          "type": "uint256"
        }
      ],
      "name": "getApproved",
      "outputs": [
        {
          "internalType": "address",
          "name": "",
          "type": "address"
        }
      ],
      "stateMutability": "view",
      "type": "function"
    },
    {
      "inputs": [
        {
          "internalType": "address",
          "name": "owner",
          "type": "address"
        },
        {
          "internalType": "address",
          "name": "operator",
          "type": "address"
        }
      ],
      "name": "isApprovedForAll",
      "outputs": [
        {
          "internalType": "bool",
          "name": "",
          "type": "bool"
        }
      ],
      "stateMutability": "view",
      "type": "function"
    },
    {
      "inputs": [],
      "name": "mutantCatsAddress",
      "outputs": [
        {
          "internalType": "contract IMutantCats",
          "name": "",
          "type": "address"
        }
      ],
      "stateMutability": "view",
      "type": "function"
    },
    {
      "inputs": [],
      "name": "name",
      "outputs": [
        {
          "internalType": "string",
          "name": "",
          "type": "string"
        }
      ],
      "stateMutability": "view",
      "type": "function"
    },
    {
      "inputs": [
        {
          "internalType": "address",
          "name": "",
          "type": "address"
        },
        {
          "internalType": "address",
          "name": "",
          "type": "address"
        },
        {
          "internalType": "uint256",
          "name": "",
          "type": "uint256"
        },
        {
          "internalType": "bytes",
          "name": "",
          "type": "bytes"
        }
      ],
      "name": "onERC721Received",
      "outputs": [
        {
          "internalType": "bytes4",
          "name": "",
          "type": "bytes4"
        }
      ],
      "stateMutability": "pure",
      "type": "function"
    },
    {
      "inputs": [],
      "name": "owner",
      "outputs": [
        {
          "internalType": "address",
          "name": "",
          "type": "address"
        }
      ],
      "stateMutability": "view",
      "type": "function"
    },
    {
      "inputs": [
        {
          "internalType": "uint256",
          "name": "tokenId",
          "type": "uint256"
        }
      ],
      "name": "ownerOf",
      "outputs": [
        {
          "internalType": "address",
          "name": "",
          "type": "address"
        }
      ],
      "stateMutability": "view",
      "type": "function"
    },
    {
      "inputs": [],
      "name": "renounceOwnership",
      "outputs": [],
      "stateMutability": "nonpayable",
      "type": "function"
    },
    {
      "inputs": [
        {
          "internalType": "address",
          "name": "from",
          "type": "address"
        },
        {
          "internalType": "address",
          "name": "to",
          "type": "address"
        },
        {
          "internalType": "uint256",
          "name": "tokenId",
          "type": "uint256"
        }
      ],
      "name": "safeTransferFrom",
      "outputs": [],
      "stateMutability": "nonpayable",
      "type": "function"
    },
    {
      "inputs": [
        {
          "internalType": "address",
          "name": "from",
          "type": "address"
        },
        {
          "internalType": "address",
          "name": "to",
          "type": "address"
        },
        {
          "internalType": "uint256",
          "name": "tokenId",
          "type": "uint256"
        },
        {
          "internalType": "bytes",
          "name": "_data",
          "type": "bytes"
        }
      ],
      "name": "safeTransferFrom",
      "outputs": [],
      "stateMutability": "nonpayable",
      "type": "function"
    },
    {
      "inputs": [],
      "name": "serumAddress",
      "outputs": [
        {
          "internalType": "contract ISerumStaking",
          "name": "",
          "type": "address"
        }
      ],
      "stateMutability": "view",
      "type": "function"
    },
    {
      "inputs": [
        {
          "internalType": "address",
          "name": "operator",
          "type": "address"
        },
        {
          "internalType": "bool",
          "name": "approved",
          "type": "bool"
        }
      ],
      "name": "setApprovalForAll",
      "outputs": [],
      "stateMutability": "nonpayable",
      "type": "function"
    },
    {
      "inputs": [
        {
          "internalType": "string",
          "name": "_newURI",
          "type": "string"
        }
      ],
      "name": "setBaseURI",
      "outputs": [],
      "stateMutability": "nonpayable",
      "type": "function"
    },
    {
      "inputs": [],
      "name": "setStart",
      "outputs": [],
      "stateMutability": "nonpayable",
      "type": "function"
    },
    {
      "inputs": [
        {
          "internalType": "bytes4",
          "name": "interfaceId",
          "type": "bytes4"
        }
      ],
      "name": "supportsInterface",
      "outputs": [
        {
          "internalType": "bool",
          "name": "",
          "type": "bool"
        }
      ],
      "stateMutability": "view",
      "type": "function"
    },
    {
      "inputs": [],
      "name": "symbol",
      "outputs": [
        {
          "internalType": "string",
          "name": "",
          "type": "string"
        }
      ],
      "stateMutability": "view",
      "type": "function"
    },
    {
      "inputs": [
        {
          "internalType": "uint256",
          "name": "index",
          "type": "uint256"
        }
      ],
      "name": "tokenByIndex",
      "outputs": [
        {
          "internalType": "uint256",
          "name": "",
          "type": "uint256"
        }
      ],
      "stateMutability": "view",
      "type": "function"
    },
    {
      "inputs": [
        {
          "internalType": "address",
          "name": "owner",
          "type": "address"
        },
        {
          "internalType": "uint256",
          "name": "index",
          "type": "uint256"
        }
      ],
      "name": "tokenOfOwnerByIndex",
      "outputs": [
        {
          "internalType": "uint256",
          "name": "",
          "type": "uint256"
        }
      ],
      "stateMutability": "view",
      "type": "function"
    },
    {
      "inputs": [
        {
          "internalType": "uint256",
          "name": "tokenId",
          "type": "uint256"
        }
      ],
      "name": "tokenURI",
      "outputs": [
        {
          "internalType": "string",
          "name": "",
          "type": "string"
        }
      ],
      "stateMutability": "view",
      "type": "function"
    },
    {
      "inputs": [],
      "name": "totalSupply",
      "outputs": [
        {
          "internalType": "uint256",
          "name": "",
          "type": "uint256"
        }
      ],
      "stateMutability": "view",
      "type": "function"
    },
    {
      "inputs": [
        {
          "internalType": "address",
          "name": "from",
          "type": "address"
        },
        {
          "internalType": "address",
          "name": "to",
          "type": "address"
        },
        {
          "internalType": "uint256",
          "name": "tokenId",
          "type": "uint256"
        }
      ],
      "name": "transferFrom",
      "outputs": [],
      "stateMutability": "nonpayable",
      "type": "function"
    },
    {
      "inputs": [
        {
          "internalType": "address",
          "name": "newOwner",
          "type": "address"
        }
      ],
      "name": "transferOwnership",
      "outputs": [],
      "stateMutability": "nonpayable",
      "type": "function"
    },
    {
      "inputs": [
        {
          "internalType": "uint256[]",
          "name": "_tokenIds",
          "type": "uint256[]"
        }
      ],
      "name": "transformCuredCat",
      "outputs": [],
      "stateMutability": "nonpayable",
      "type": "function"
    },
    {
      "inputs": [],
      "name": "zeroAddress",
      "outputs": [
        {
          "internalType": "address",
          "name": "",
          "type": "address"
        }
      ],
      "stateMutability": "view",
      "type": "function"
    }
  ],
  "bytecode": "0x60806040526103e7600c556001600f5560016010553480156200002157600080fd5b50604051620026e9380380620026e98339810160408190526200004491620002c3565b8451859085906200005d9060009060208501906200014d565b508051620000739060019060208401906200014d565b505050620000906200008a620000f760201b60201c565b620000fb565b8251620000a59060179060208601906200014d565b50601280546001600160a01b03199081166001600160a01b03948516179091556013805482169290931691909117909155601580543090831681179091556011805490921617905550620003c9915050565b3390565b600a80546001600160a01b038381166001600160a01b0319831681179093556040519116919082907f8be0079c531659141344cd1fd0a4f28419497f9722a3daafe3b4186f6b6457e090600090a35050565b8280546200015b9062000376565b90600052602060002090601f0160209004810192826200017f5760008555620001ca565b82601f106200019a57805160ff1916838001178555620001ca565b82800160010185558215620001ca579182015b82811115620001ca578251825591602001919060010190620001ad565b50620001d8929150620001dc565b5090565b5b80821115620001d85760008155600101620001dd565b80516001600160a01b03811681146200020b57600080fd5b919050565b600082601f83011262000221578081fd5b81516001600160401b03808211156200023e576200023e620003b3565b604051601f8301601f19908116603f01168101908282118183101715620002695762000269620003b3565b8160405283815260209250868385880101111562000285578485fd5b8491505b83821015620002a8578582018301518183018401529082019062000289565b83821115620002b957848385830101525b9695505050505050565b600080600080600060a08688031215620002db578081fd5b85516001600160401b0380821115620002f2578283fd5b6200030089838a0162000210565b9650602088015191508082111562000316578283fd5b6200032489838a0162000210565b955060408801519150808211156200033a578283fd5b50620003498882890162000210565b9350506200035a60608701620001f3565b91506200036a60808701620001f3565b90509295509295909350565b600181811c908216806200038b57607f821691505b60208210811415620003ad57634e487b7160e01b600052602260045260246000fd5b50919050565b634e487b7160e01b600052604160045260246000fd5b61231080620003d96000396000f3fe608060405234801561001057600080fd5b506004361061021c5760003560e01c80636352211e11610125578063c36f9207116100ad578063f1e18a1b1161007c578063f1e18a1b14610499578063f2fde38b146104a2578063f6b4dfb4146104b5578063f79a0afe146104c8578063f80a4a5b146104db57600080fd5b8063c36f92071461042e578063c87b56dd14610441578063dc42fe1814610454578063e985e9c51461045d57600080fd5b80638da5cb5b116100f45780638da5cb5b146103e6578063918f5e26146103f757806395d89b4114610400578063a22cb46514610408578063b88d4fde1461041b57600080fd5b80636352211e146103b05780636c0360eb146103c357806370a08231146103cb578063715018a6146103de57600080fd5b806323b872dd116101a857806342842e0e1161017757806342842e0e146103655780634f6ccce71461037857806355f804b31461038b5780635f4091be1461039e578063602ff81f146103a757600080fd5b806323b872dd14610324578063276feed8146103375780632f745c591461034a57806335975a371461035d57600080fd5b8063095ea7b3116101ef578063095ea7b31461029c578063150b7a02146102b157806318160ddd146102e957806318cae269146102fb578063203bae721461031b57600080fd5b806301ffc9a71461022157806306fdde0314610249578063081812fc1461025e5780630930907b14610289575b600080fd5b61023461022f366004611f3a565b6104ee565b60405190151581526020015b60405180910390f35b610251610519565b604051610240919061209f565b61027161026c366004611fb8565b6105ab565b6040516001600160a01b039091168152602001610240565b601454610271906001600160a01b031681565b6102af6102aa366004611ea1565b610645565b005b6102d06102bf366004611d58565b630a85bd0160e11b95945050505050565b6040516001600160e01b03199091168152602001610240565b600b545b604051908152602001610240565b6102ed610309366004611cd1565b60166020526000908152604090205481565b6102ed600c5481565b6102af610332366004611d1d565b61075b565b601254610271906001600160a01b031681565b6102ed610358366004611ea1565b61078c565b6102af610822565b6102af610373366004611d1d565b61085b565b6102ed610386366004611fb8565b610876565b6102af610399366004611f72565b610917565b6102ed600d5481565b6102ed600f5481565b6102716103be366004611fb8565b610958565b6102516109cf565b6102ed6103d9366004611cd1565b610a5d565b6102af610ae4565b600a546001600160a01b0316610271565b6102ed60105481565b610251610b1a565b6102af610416366004611e67565b610b29565b6102af610429366004611dee565b610bee565b601354610271906001600160a01b031681565b61025161044f366004611fb8565b610c26565b6102ed600b5481565b61023461046b366004611ceb565b6001600160a01b03918216600090815260056020908152604080832093909416825291909152205460ff1690565b6102ed600e5481565b6102af6104b0366004611cd1565b610d10565b601554610271906001600160a01b031681565b601154610271906001600160a01b031681565b6102af6104e9366004611eca565b610dab565b60006001600160e01b0319821663780e9d6360e01b14806105135750610513826111cb565b92915050565b60606000805461052890612218565b80601f016020809104026020016040519081016040528092919081815260200182805461055490612218565b80156105a15780601f10610576576101008083540402835291602001916105a1565b820191906000526020600020905b81548152906001019060200180831161058457829003601f168201915b5050505050905090565b6000818152600260205260408120546001600160a01b03166106295760405162461bcd60e51b815260206004820152602c60248201527f4552433732313a20617070726f76656420717565727920666f72206e6f6e657860448201526b34b9ba32b73a103a37b5b2b760a11b60648201526084015b60405180910390fd5b506000908152600460205260409020546001600160a01b031690565b600061065082610958565b9050806001600160a01b0316836001600160a01b031614156106be5760405162461bcd60e51b815260206004820152602160248201527f4552433732313a20617070726f76616c20746f2063757272656e74206f776e656044820152603960f91b6064820152608401610620565b336001600160a01b03821614806106da57506106da813361046b565b61074c5760405162461bcd60e51b815260206004820152603860248201527f4552433732313a20617070726f76652063616c6c6572206973206e6f74206f7760448201527f6e6572206e6f7220617070726f76656420666f7220616c6c00000000000000006064820152608401610620565b610756838361121b565b505050565b6107653382611289565b6107815760405162461bcd60e51b815260040161062090612139565b610756838383611380565b600061079783610a5d565b82106107f95760405162461bcd60e51b815260206004820152602b60248201527f455243373231456e756d657261626c653a206f776e657220696e646578206f7560448201526a74206f6620626f756e647360a81b6064820152608401610620565b506001600160a01b03919091166000908152600660209081526040808320938352929052205490565b600a546001600160a01b0316331461084c5760405162461bcd60e51b815260040161062090612104565b6018805460ff19166001179055565b61075683838360405180602001604052806000815250610bee565b600061088160085490565b82106108e45760405162461bcd60e51b815260206004820152602c60248201527f455243373231456e756d657261626c653a20676c6f62616c20696e646578206f60448201526b7574206f6620626f756e647360a01b6064820152608401610620565b6008828154811061090557634e487b7160e01b600052603260045260246000fd5b90600052602060002001549050919050565b600a546001600160a01b031633146109415760405162461bcd60e51b815260040161062090612104565b8051610954906017906020840190611ba6565b5050565b6000818152600260205260408120546001600160a01b0316806105135760405162461bcd60e51b815260206004820152602960248201527f4552433732313a206f776e657220717565727920666f72206e6f6e657869737460448201526832b73a103a37b5b2b760b91b6064820152608401610620565b601780546109dc90612218565b80601f0160208091040260200160405190810160405280929190818152602001828054610a0890612218565b8015610a555780601f10610a2a57610100808354040283529160200191610a55565b820191906000526020600020905b815481529060010190602001808311610a3857829003601f168201915b505050505081565b60006001600160a01b038216610ac85760405162461bcd60e51b815260206004820152602a60248201527f4552433732313a2062616c616e636520717565727920666f7220746865207a65604482015269726f206164647265737360b01b6064820152608401610620565b506001600160a01b031660009081526003602052604090205490565b600a546001600160a01b03163314610b0e5760405162461bcd60e51b815260040161062090612104565b610b18600061152b565b565b60606001805461052890612218565b6001600160a01b038216331415610b825760405162461bcd60e51b815260206004820152601960248201527f4552433732313a20617070726f766520746f2063616c6c6572000000000000006044820152606401610620565b3360008181526005602090815260408083206001600160a01b03871680855290835292819020805460ff191686151590811790915590519081529192917f17307eab39ab6107e8899845ad3d59bd9653f200f220920489ca2b5937696c31910160405180910390a35050565b610bf83383611289565b610c145760405162461bcd60e51b815260040161062090612139565b610c208484848461157d565b50505050565b6000818152600260205260409020546060906001600160a01b0316610ca65760405162461bcd60e51b815260206004820152603060248201527f4552433732314d657461646174613a2055524920717565727920666f72206e6f60448201526f3732bc34b9ba32b73a103a37b5b2b71760811b6064820152608401610620565b6000610cb06115b0565b90506000815111610cde5760405180604001604052806005815260200164173539b7b760d91b815250610d09565b80610ce8846115bf565b604051602001610cf9929190612014565b6040516020818303038152906040525b9392505050565b600a546001600160a01b03163314610d3a5760405162461bcd60e51b815260040161062090612104565b6001600160a01b038116610d9f5760405162461bcd60e51b815260206004820152602660248201527f4f776e61626c653a206e6577206f776e657220697320746865207a65726f206160448201526564647265737360d01b6064820152608401610620565b610da88161152b565b50565b601854819060ff16610ded5760405162461bcd60e51b815260206004820152600b60248201526a1b9bdd081cdd185c9d195960aa1b6044820152606401610620565b600c5481600b54610dfe919061218a565b1115610e5e5760405162461bcd60e51b815260206004820152602960248201527f54686973206d696e7420776f756c642070617373206d61782043757265644361604482015268747320737570706c7960b81b6064820152608401610620565b80601054610e6c91906121b6565b601354600f54604051627eeac760e11b815233600482015260248101919091526001600160a01b039091169062fdd58e9060440160206040518083038186803b158015610eb857600080fd5b505afa158015610ecc573d6000803e3d6000fd5b505050506040513d601f19601f82011682018060405250810190610ef09190611fd0565b1015610f5a5760405162461bcd60e51b815260206004820152603360248201527f496e73756666696369656e742076616c7565206f6620736572756d20746f20746044820152721c985b9cd99bdc9b48184818dd5c995910d85d606a1b6064820152608401610620565b6012546040516370a0823160e01b815233600482015282916001600160a01b0316906370a082319060240160206040518083038186803b158015610f9d57600080fd5b505afa158015610fb1573d6000803e3d6000fd5b505050506040513d601f19601f82011682018060405250810190610fd59190611fd0565b10156110545760405162461bcd60e51b815260206004820152604260248201527f4d757374206265206120686f6c646572206d7574616e744361747320546f6b6560448201527f6e20746f207472616e73666f726d20696e746f20656163682043757265646361606482015261747360f01b608482015260a401610620565b60005b81811015610c2057601354600f54604051637a94c56560e11b81523360048201526024810191909152600160448201526001600160a01b039091169063f5298aca90606401600060405180830381600087803b1580156110b657600080fd5b505af11580156110ca573d6000803e3d6000fd5b505050508383828181106110ee57634e487b7160e01b600052603260045260246000fd5b6020029190910135600d819055601254604051630852cd8d60e31b815260048101929092526001600160a01b031691506342966c6890602401600060405180830381600087803b15801561114157600080fd5b505af1158015611155573d6000803e3d6000fd5b50505050600b546001611168919061218a565b600e5561119333600b805490600061117f83612253565b9091555061118e90600161218a565b6116d9565b3360009081526016602052604081208054600192906111b390849061218a565b909155508190506111c381612253565b915050611057565b60006001600160e01b031982166380ac58cd60e01b14806111fc57506001600160e01b03198216635b5e139f60e01b145b8061051357506301ffc9a760e01b6001600160e01b0319831614610513565b600081815260046020526040902080546001600160a01b0319166001600160a01b038416908117909155819061125082610958565b6001600160a01b03167f8c5be1e5ebec7d5bd14f71427d1e84f3dd0314c0f7b2291e5b200ac8c7c3b92560405160405180910390a45050565b6000818152600260205260408120546001600160a01b03166113025760405162461bcd60e51b815260206004820152602c60248201527f4552433732313a206f70657261746f7220717565727920666f72206e6f6e657860448201526b34b9ba32b73a103a37b5b2b760a11b6064820152608401610620565b600061130d83610958565b9050806001600160a01b0316846001600160a01b031614806113485750836001600160a01b031661133d846105ab565b6001600160a01b0316145b8061137857506001600160a01b0380821660009081526005602090815260408083209388168352929052205460ff165b949350505050565b826001600160a01b031661139382610958565b6001600160a01b0316146113fb5760405162461bcd60e51b815260206004820152602960248201527f4552433732313a207472616e73666572206f6620746f6b656e2074686174206960448201526839903737ba1037bbb760b91b6064820152608401610620565b6001600160a01b03821661145d5760405162461bcd60e51b8152602060048201526024808201527f4552433732313a207472616e7366657220746f20746865207a65726f206164646044820152637265737360e01b6064820152608401610620565b611468838383611827565b61147360008261121b565b6001600160a01b038316600090815260036020526040812080546001929061149c9084906121d5565b90915550506001600160a01b03821660009081526003602052604081208054600192906114ca90849061218a565b909155505060008181526002602052604080822080546001600160a01b0319166001600160a01b0386811691821790925591518493918716917fddf252ad1be2c89b69c2b068fc378daa952ba7f163c4a11628f55a4df523b3ef91a4505050565b600a80546001600160a01b038381166001600160a01b0319831681179093556040519116919082907f8be0079c531659141344cd1fd0a4f28419497f9722a3daafe3b4186f6b6457e090600090a35050565b611588848484611380565b611594848484846118df565b610c205760405162461bcd60e51b8152600401610620906120b2565b60606017805461052890612218565b6060816115e35750506040805180820190915260018152600360fc1b602082015290565b8160005b811561160d57806115f781612253565b91506116069050600a836121a2565b91506115e7565b60008167ffffffffffffffff81111561163657634e487b7160e01b600052604160045260246000fd5b6040519080825280601f01601f191660200182016040528015611660576020820181803683370190505b5090505b8415611378576116756001836121d5565b9150611682600a8661226e565b61168d90603061218a565b60f81b8183815181106116b057634e487b7160e01b600052603260045260246000fd5b60200101906001600160f81b031916908160001a9053506116d2600a866121a2565b9450611664565b6001600160a01b03821661172f5760405162461bcd60e51b815260206004820181905260248201527f4552433732313a206d696e7420746f20746865207a65726f20616464726573736044820152606401610620565b6000818152600260205260409020546001600160a01b0316156117945760405162461bcd60e51b815260206004820152601c60248201527f4552433732313a20746f6b656e20616c7265616479206d696e746564000000006044820152606401610620565b6117a060008383611827565b6001600160a01b03821660009081526003602052604081208054600192906117c990849061218a565b909155505060008181526002602052604080822080546001600160a01b0319166001600160a01b03861690811790915590518392907fddf252ad1be2c89b69c2b068fc378daa952ba7f163c4a11628f55a4df523b3ef908290a45050565b6001600160a01b0383166118825761187d81600880546000838152600960205260408120829055600182018355919091527ff3f7a9fe364faab93b216da50a3214154f22a0a2b415b23a84c8169e8b636ee30155565b6118a5565b816001600160a01b0316836001600160a01b0316146118a5576118a583826119ec565b6001600160a01b0382166118bc5761075681611a89565b826001600160a01b0316826001600160a01b031614610756576107568282611b62565b60006001600160a01b0384163b156119e157604051630a85bd0160e11b81526001600160a01b0385169063150b7a0290611923903390899088908890600401612062565b602060405180830381600087803b15801561193d57600080fd5b505af192505050801561196d575060408051601f3d908101601f1916820190925261196a91810190611f56565b60015b6119c7573d80801561199b576040519150601f19603f3d011682016040523d82523d6000602084013e6119a0565b606091505b5080516119bf5760405162461bcd60e51b8152600401610620906120b2565b805181602001fd5b6001600160e01b031916630a85bd0160e11b149050611378565b506001949350505050565b600060016119f984610a5d565b611a0391906121d5565b600083815260076020526040902054909150808214611a56576001600160a01b03841660009081526006602090815260408083208584528252808320548484528184208190558352600790915290208190555b5060009182526007602090815260408084208490556001600160a01b039094168352600681528383209183525290812055565b600854600090611a9b906001906121d5565b60008381526009602052604081205460088054939450909284908110611ad157634e487b7160e01b600052603260045260246000fd5b906000526020600020015490508060088381548110611b0057634e487b7160e01b600052603260045260246000fd5b6000918252602080832090910192909255828152600990915260408082208490558582528120556008805480611b4657634e487b7160e01b600052603160045260246000fd5b6001900381819060005260206000200160009055905550505050565b6000611b6d83610a5d565b6001600160a01b039093166000908152600660209081526040808320868452825280832085905593825260079052919091209190915550565b828054611bb290612218565b90600052602060002090601f016020900481019282611bd45760008555611c1a565b82601f10611bed57805160ff1916838001178555611c1a565b82800160010185558215611c1a579182015b82811115611c1a578251825591602001919060010190611bff565b50611c26929150611c2a565b5090565b5b80821115611c265760008155600101611c2b565b600067ffffffffffffffff80841115611c5a57611c5a6122ae565b604051601f8501601f19908116603f01168101908282118183101715611c8257611c826122ae565b81604052809350858152868686011115611c9b57600080fd5b858560208301376000602087830101525050509392505050565b80356001600160a01b0381168114611ccc57600080fd5b919050565b600060208284031215611ce2578081fd5b610d0982611cb5565b60008060408385031215611cfd578081fd5b611d0683611cb5565b9150611d1460208401611cb5565b90509250929050565b600080600060608486031215611d31578081fd5b611d3a84611cb5565b9250611d4860208501611cb5565b9150604084013590509250925092565b600080600080600060808688031215611d6f578081fd5b611d7886611cb5565b9450611d8660208701611cb5565b935060408601359250606086013567ffffffffffffffff80821115611da9578283fd5b818801915088601f830112611dbc578283fd5b813581811115611dca578384fd5b896020828501011115611ddb578384fd5b9699959850939650602001949392505050565b60008060008060808587031215611e03578384fd5b611e0c85611cb5565b9350611e1a60208601611cb5565b925060408501359150606085013567ffffffffffffffff811115611e3c578182fd5b8501601f81018713611e4c578182fd5b611e5b87823560208401611c3f565b91505092959194509250565b60008060408385031215611e79578182fd5b611e8283611cb5565b915060208301358015158114611e96578182fd5b809150509250929050565b60008060408385031215611eb3578182fd5b611ebc83611cb5565b946020939093013593505050565b60008060208385031215611edc578182fd5b823567ffffffffffffffff80821115611ef3578384fd5b818501915085601f830112611f06578384fd5b813581811115611f14578485fd5b8660208260051b8501011115611f28578485fd5b60209290920196919550909350505050565b600060208284031215611f4b578081fd5b8135610d09816122c4565b600060208284031215611f67578081fd5b8151610d09816122c4565b600060208284031215611f83578081fd5b813567ffffffffffffffff811115611f99578182fd5b8201601f81018413611fa9578182fd5b61137884823560208401611c3f565b600060208284031215611fc9578081fd5b5035919050565b600060208284031215611fe1578081fd5b5051919050565b600081518084526120008160208601602086016121ec565b601f01601f19169290920160200192915050565b600083516120268184602088016121ec565b602f60f81b90830190815283516120448160018401602088016121ec565b64173539b7b760d91b60019290910191820152600601949350505050565b6001600160a01b038581168252841660208201526040810183905260806060820181905260009061209590830184611fe8565b9695505050505050565b602081526000610d096020830184611fe8565b60208082526032908201527f4552433732313a207472616e7366657220746f206e6f6e20455243373231526560408201527131b2b4bb32b91034b6b83632b6b2b73a32b960711b606082015260800190565b6020808252818101527f4f776e61626c653a2063616c6c6572206973206e6f7420746865206f776e6572604082015260600190565b60208082526031908201527f4552433732313a207472616e736665722063616c6c6572206973206e6f74206f6040820152701ddb995c881b9bdc88185c1c1c9bdd9959607a1b606082015260800190565b6000821982111561219d5761219d612282565b500190565b6000826121b1576121b1612298565b500490565b60008160001904831182151516156121d0576121d0612282565b500290565b6000828210156121e7576121e7612282565b500390565b60005b838110156122075781810151838201526020016121ef565b83811115610c205750506000910152565b600181811c9082168061222c57607f821691505b6020821081141561224d57634e487b7160e01b600052602260045260246000fd5b50919050565b600060001982141561226757612267612282565b5060010190565b60008261227d5761227d612298565b500690565b634e487b7160e01b600052601160045260246000fd5b634e487b7160e01b600052601260045260246000fd5b634e487b7160e01b600052604160045260246000fd5b6001600160e01b031981168114610da857600080fdfea2646970667358221220b29d2ba994c55709fde104693a63c6518716ade54de0b862a8e90c9c829a441364736f6c63430008040033",
  "linkReferences": {},
  "deployedLinkReferences": {}
}