{
  "_format": "hh-sol-artifact-1",
  "contractName": "TokenVault",
  "sourceName": "contracts/TokenVault.sol",
  "abi": [
    {
      "anonymous": false,
      "inputs": [
        {
          "indexed": true,
          "internalType": "address",
          "name": "owner",
          "type": "address"
        },
        {
          "indexed": true,
          "internalType": "address",
          "name": "spender",
          "type": "address"
        },
        {
          "indexed": false,
          "internalType": "uint256",
          "name": "value",
          "type": "uint256"
        }
      ],
      "name": "Approval",
      "type": "event"
    },
    {
      "anonymous": false,
      "inputs": [
        {
          "indexed": true,
          "internalType": "address",
          "name": "buyer",
          "type": "address"
        },
        {
          "indexed": false,
          "internalType": "uint256",
          "name": "price",
          "type": "uint256"
        }
      ],
      "name": "Bid",
      "type": "event"
    },
    {
      "anonymous": false,
      "inputs": [
        {
          "indexed": true,
          "internalType": "address",
          "name": "owner",
          "type": "address"
        },
        {
          "indexed": false,
          "internalType": "uint256",
          "name": "shares",
          "type": "uint256"
        }
      ],
      "name": "Cash",
      "type": "event"
    },
    {
      "anonymous": false,
      "inputs": [
        {
          "indexed": true,
          "internalType": "address",
          "name": "user",
          "type": "address"
        },
        {
          "indexed": false,
          "internalType": "uint256",
          "name": "price",
          "type": "uint256"
        }
      ],
      "name": "PriceUpdate",
      "type": "event"
    },
    {
      "anonymous": false,
      "inputs": [
        {
          "indexed": true,
          "internalType": "address",
          "name": "redeemer",
          "type": "address"
        }
      ],
      "name": "Redeem",
      "type": "event"
    },
    {
      "anonymous": false,
      "inputs": [
        {
          "indexed": true,
          "internalType": "address",
          "name": "buyer",
          "type": "address"
        },
        {
          "indexed": false,
          "internalType": "uint256",
          "name": "price",
          "type": "uint256"
        }
      ],
      "name": "Start",
      "type": "event"
    },
    {
      "anonymous": false,
      "inputs": [
        {
          "indexed": true,
          "internalType": "address",
          "name": "from",
          "type": "address"
        },
        {
          "indexed": true,
          "internalType": "address",
          "name": "to",
          "type": "address"
        },
        {
          "indexed": false,
          "internalType": "uint256",
          "name": "value",
          "type": "uint256"
        }
      ],
      "name": "Transfer",
      "type": "event"
    },
    {
      "anonymous": false,
      "inputs": [
        {
          "indexed": true,
          "internalType": "address",
          "name": "buyer",
          "type": "address"
        },
        {
          "indexed": false,
          "internalType": "uint256",
          "name": "price",
          "type": "uint256"
        }
      ],
      "name": "Won",
      "type": "event"
    },
    {
      "inputs": [
        {
          "internalType": "address",
          "name": "owner",
          "type": "address"
        },
        {
          "internalType": "address",
          "name": "spender",
          "type": "address"
        }
      ],
      "name": "allowance",
      "outputs": [
        {
          "internalType": "uint256",
          "name": "",
          "type": "uint256"
        }
      ],
      "stateMutability": "view",
      "type": "function"
    },
    {
      "inputs": [
        {
          "internalType": "address",
          "name": "spender",
          "type": "address"
        },
        {
          "internalType": "uint256",
          "name": "amount",
          "type": "uint256"
        }
      ],
      "name": "approve",
      "outputs": [
        {
          "internalType": "bool",
          "name": "",
          "type": "bool"
        }
      ],
      "stateMutability": "nonpayable",
      "type": "function"
    },
    {
      "inputs": [],
      "name": "auctionEnd",
      "outputs": [
        {
          "internalType": "uint256",
          "name": "",
          "type": "uint256"
        }
      ],
      "stateMutability": "view",
      "type": "function"
    },
    {
      "inputs": [],
      "name": "auctionLength",
      "outputs": [
        {
          "internalType": "uint256",
          "name": "",
          "type": "uint256"
        }
      ],
      "stateMutability": "view",
      "type": "function"
    },
    {
      "inputs": [],
      "name": "auctionState",
      "outputs": [
        {
          "internalType": "enum TokenVault.State",
          "name": "",
          "type": "uint8"
        }
      ],
      "stateMutability": "view",
      "type": "function"
    },
    {
      "inputs": [
        {
          "internalType": "address",
          "name": "account",
          "type": "address"
        }
      ],
      "name": "balanceOf",
      "outputs": [
        {
          "internalType": "uint256",
          "name": "",
          "type": "uint256"
        }
      ],
      "stateMutability": "view",
      "type": "function"
    },
    {
      "inputs": [],
      "name": "bid",
      "outputs": [],
      "stateMutability": "payable",
      "type": "function"
    },
    {
      "inputs": [],
      "name": "cash",
      "outputs": [],
      "stateMutability": "nonpayable",
      "type": "function"
    },
    {
      "inputs": [],
      "name": "claimFees",
      "outputs": [],
      "stateMutability": "nonpayable",
      "type": "function"
    },
    {
      "inputs": [],
      "name": "curator",
      "outputs": [
        {
          "internalType": "address",
          "name": "",
          "type": "address"
        }
      ],
      "stateMutability": "view",
      "type": "function"
    },
    {
      "inputs": [],
      "name": "decimals",
      "outputs": [
        {
          "internalType": "uint8",
          "name": "",
          "type": "uint8"
        }
      ],
      "stateMutability": "view",
      "type": "function"
    },
    {
      "inputs": [
        {
          "internalType": "address",
          "name": "spender",
          "type": "address"
        },
        {
          "internalType": "uint256",
          "name": "subtractedValue",
          "type": "uint256"
        }
      ],
      "name": "decreaseAllowance",
      "outputs": [
        {
          "internalType": "bool",
          "name": "",
          "type": "bool"
        }
      ],
      "stateMutability": "nonpayable",
      "type": "function"
    },
    {
      "inputs": [],
      "name": "end",
      "outputs": [],
      "stateMutability": "nonpayable",
      "type": "function"
    },
    {
      "inputs": [],
      "name": "fee",
      "outputs": [
        {
          "internalType": "uint256",
          "name": "",
          "type": "uint256"
        }
      ],
      "stateMutability": "view",
      "type": "function"
    },
    {
      "inputs": [],
      "name": "id",
      "outputs": [
        {
          "internalType": "uint256",
          "name": "",
          "type": "uint256"
        }
      ],
      "stateMutability": "view",
      "type": "function"
    },
    {
      "inputs": [
        {
          "internalType": "address",
          "name": "spender",
          "type": "address"
        },
        {
          "internalType": "uint256",
          "name": "addedValue",
          "type": "uint256"
        }
      ],
      "name": "increaseAllowance",
      "outputs": [
        {
          "internalType": "bool",
          "name": "",
          "type": "bool"
        }
      ],
      "stateMutability": "nonpayable",
      "type": "function"
    },
    {
      "inputs": [
        {
          "internalType": "address",
          "name": "_settings",
          "type": "address"
        },
        {
          "internalType": "address",
          "name": "_curator",
          "type": "address"
        },
        {
          "internalType": "address",
          "name": "_token",
          "type": "address"
        },
        {
          "internalType": "uint256",
          "name": "_id",
          "type": "uint256"
        },
        {
          "internalType": "uint256",
          "name": "_supply",
          "type": "uint256"
        },
        {
          "internalType": "uint256",
          "name": "_listPrice",
          "type": "uint256"
        },
        {
          "internalType": "uint256",
          "name": "_fee",
          "type": "uint256"
        },
        {
          "internalType": "string",
          "name": "_name",
          "type": "string"
        },
        {
          "internalType": "string",
          "name": "_symbol",
          "type": "string"
        }
      ],
      "name": "initialize",
      "outputs": [],
      "stateMutability": "nonpayable",
      "type": "function"
    },
    {
      "inputs": [
        {
          "internalType": "address",
          "name": "_curator",
          "type": "address"
        }
      ],
      "name": "kickCurator",
      "outputs": [],
      "stateMutability": "nonpayable",
      "type": "function"
    },
    {
      "inputs": [],
      "name": "lastClaimed",
      "outputs": [
        {
          "internalType": "uint256",
          "name": "",
          "type": "uint256"
        }
      ],
      "stateMutability": "view",
      "type": "function"
    },
    {
      "inputs": [],
      "name": "livePrice",
      "outputs": [
        {
          "internalType": "uint256",
          "name": "",
          "type": "uint256"
        }
      ],
      "stateMutability": "view",
      "type": "function"
    },
    {
      "inputs": [],
      "name": "name",
      "outputs": [
        {
          "internalType": "string",
          "name": "",
          "type": "string"
        }
      ],
      "stateMutability": "view",
      "type": "function"
    },
    {
      "inputs": [
        {
          "internalType": "address",
          "name": "",
          "type": "address"
        },
        {
          "internalType": "address",
          "name": "",
          "type": "address"
        },
        {
          "internalType": "uint256",
          "name": "",
          "type": "uint256"
        },
        {
          "internalType": "bytes",
          "name": "",
          "type": "bytes"
        }
      ],
      "name": "onERC721Received",
      "outputs": [
        {
          "internalType": "bytes4",
          "name": "",
          "type": "bytes4"
        }
      ],
      "stateMutability": "nonpayable",
      "type": "function"
    },
    {
      "inputs": [],
      "name": "redeem",
      "outputs": [],
      "stateMutability": "nonpayable",
      "type": "function"
    },
    {
      "inputs": [
        {
          "internalType": "address",
          "name": "_user",
          "type": "address"
        }
      ],
      "name": "removeReserve",
      "outputs": [],
      "stateMutability": "nonpayable",
      "type": "function"
    },
    {
      "inputs": [],
      "name": "reservePrice",
      "outputs": [
        {
          "internalType": "uint256",
          "name": "",
          "type": "uint256"
        }
      ],
      "stateMutability": "view",
      "type": "function"
    },
    {
      "inputs": [],
      "name": "reserveTotal",
      "outputs": [
        {
          "internalType": "uint256",
          "name": "",
          "type": "uint256"
        }
      ],
      "stateMutability": "view",
      "type": "function"
    },
    {
      "inputs": [],
      "name": "settings",
      "outputs": [
        {
          "internalType": "address",
          "name": "",
          "type": "address"
        }
      ],
      "stateMutability": "view",
      "type": "function"
    },
    {
      "inputs": [],
      "name": "start",
      "outputs": [],
      "stateMutability": "payable",
      "type": "function"
    },
    {
      "inputs": [],
      "name": "symbol",
      "outputs": [
        {
          "internalType": "string",
          "name": "",
          "type": "string"
        }
      ],
      "stateMutability": "view",
      "type": "function"
    },
    {
      "inputs": [],
      "name": "token",
      "outputs": [
        {
          "internalType": "address",
          "name": "",
          "type": "address"
        }
      ],
      "stateMutability": "view",
      "type": "function"
    },
    {
      "inputs": [],
      "name": "totalSupply",
      "outputs": [
        {
          "internalType": "uint256",
          "name": "",
          "type": "uint256"
        }
      ],
      "stateMutability": "view",
      "type": "function"
    },
    {
      "inputs": [
        {
          "internalType": "address",
          "name": "to",
          "type": "address"
        },
        {
          "internalType": "uint256",
          "name": "amount",
          "type": "uint256"
        }
      ],
      "name": "transfer",
      "outputs": [
        {
          "internalType": "bool",
          "name": "",
          "type": "bool"
        }
      ],
      "stateMutability": "nonpayable",
      "type": "function"
    },
    {
      "inputs": [
        {
          "internalType": "address",
          "name": "from",
          "type": "address"
        },
        {
          "internalType": "address",
          "name": "to",
          "type": "address"
        },
        {
          "internalType": "uint256",
          "name": "amount",
          "type": "uint256"
        }
      ],
      "name": "transferFrom",
      "outputs": [
        {
          "internalType": "bool",
          "name": "",
          "type": "bool"
        }
      ],
      "stateMutability": "nonpayable",
      "type": "function"
    },
    {
      "inputs": [
        {
          "internalType": "uint256",
          "name": "_length",
          "type": "uint256"
        }
      ],
      "name": "updateAuctionLength",
      "outputs": [],
      "stateMutability": "nonpayable",
      "type": "function"
    },
    {
      "inputs": [
        {
          "internalType": "address",
          "name": "_curator",
          "type": "address"
        }
      ],
      "name": "updateCurator",
      "outputs": [],
      "stateMutability": "nonpayable",
      "type": "function"
    },
    {
      "inputs": [
        {
          "internalType": "uint256",
          "name": "_fee",
          "type": "uint256"
        }
      ],
      "name": "updateFee",
      "outputs": [],
      "stateMutability": "nonpayable",
      "type": "function"
    },
    {
      "inputs": [
        {
          "internalType": "uint256",
          "name": "_new",
          "type": "uint256"
        }
      ],
      "name": "updateUserPrice",
      "outputs": [],
      "stateMutability": "nonpayable",
      "type": "function"
    },
    {
      "inputs": [
        {
          "internalType": "address",
          "name": "",
          "type": "address"
        }
      ],
      "name": "userPrices",
      "outputs": [
        {
          "internalType": "uint256",
          "name": "",
          "type": "uint256"
        }
      ],
      "stateMutability": "view",
      "type": "function"
    },
    {
      "inputs": [],
      "name": "vaultClosed",
      "outputs": [
        {
          "internalType": "bool",
          "name": "",
          "type": "bool"
        }
      ],
      "stateMutability": "view",
      "type": "function"
    },
    {
      "inputs": [],
      "name": "votingTokens",
      "outputs": [
        {
          "internalType": "uint256",
          "name": "",
          "type": "uint256"
        }
      ],
      "stateMutability": "view",
      "type": "function"
    },
    {
      "inputs": [],
      "name": "weth",
      "outputs": [
        {
          "internalType": "address",
          "name": "",
          "type": "address"
        }
      ],
      "stateMutability": "view",
      "type": "function"
    },
    {
      "inputs": [],
      "name": "winning",
      "outputs": [
        {
          "internalType": "address payable",
          "name": "",
          "type": "address"
        }
      ],
      "stateMutability": "view",
      "type": "function"
    }
  ],
  "bytecode": "0x608060405234801561001057600080fd5b50613180806100206000396000f3fe6080604052600436106102515760003560e01c8063853a1b9011610139578063be9a6555116100b6578063ddca3f431161007a578063ddca3f43146106d6578063e06174e4146106ec578063e52b064e1461070c578063e66f53b71461072c578063efbe1c1c1461074c578063fc0c546a1461076157600080fd5b8063be9a655514610631578063c91de64914610639578063d294f09314610666578063db2e1eed1461067b578063dd62ed3e1461069057600080fd5b8063a457c2d7116100fd578063a457c2d7146105b0578063a9059cbb146105d0578063adc1b956146105f0578063af640d0f14610606578063be040fb01461061c57600080fd5b8063853a1b90146105305780639012c4a81461055057806395d89b4114610570578063961be391146105855780639a4e6d341461059a57600080fd5b8063313ce567116101d25780636a775714116101965780636a775714146104605780636da84e6c1461048057806370a08231146104965780637b5581ed146104cc5780637fb45099146104e257806380436fe01461051057600080fd5b8063313ce567146103b4578063325c25a2146103d057806339509351146103e65780633fc8cef3146104065780635c9920fc1461044657600080fd5b80631998aeef116102195780631998aeef1461033657806323b872dd1461033e5780632a24f46c1461035e5780632a44f120146103745780632bf33bd91461039457600080fd5b806306fdde0314610256578063095ea7b3146102815780630c6a62dd146102b1578063150b7a02146102d357806318160ddd14610317575b600080fd5b34801561026257600080fd5b5061026b610781565b6040516102789190612f4c565b60405180910390f35b34801561028d57600080fd5b506102a161029c366004612ea9565b610813565b6040519015158152602001610278565b3480156102bd57600080fd5b506102d16102cc366004612cbe565b61082b565b005b3480156102df57600080fd5b506102fe6102ee366004612e2c565b630a85bd0160e11b949350505050565b6040516001600160e01b03199091168152602001610278565b34801561032357600080fd5b506035545b604051908152602001610278565b6102d1610880565b34801561034a57600080fd5b506102a1610359366004612dec565b610ac1565b34801561036a57600080fd5b5061032860995481565b34801561038057600080fd5b506102d161038f366004612cbe565b610ae5565b3480156103a057600080fd5b506102d16103af366004612ef4565b610bba565b3480156103c057600080fd5b5060405160128152602001610278565b3480156103dc57600080fd5b50610328609a5481565b3480156103f257600080fd5b506102a1610401366004612ea9565b610d53565b34801561041257600080fd5b5061042e73c778417e063141139fce010982780140aa0cd5ab81565b6040516001600160a01b039091168152602001610278565b34801561045257600080fd5b5060a2546102a19060ff1681565b34801561046c57600080fd5b506102d161047b366004612ef4565b610d92565b34801561048c57600080fd5b50610328609c5481565b3480156104a257600080fd5b506103286104b1366004612cbe565b6001600160a01b031660009081526033602052604090205490565b3480156104d857600080fd5b50610328609b5481565b3480156104ee57600080fd5b50609d5461050390600160a01b900460ff1681565b6040516102789190612f24565b34801561051c57600080fd5b506102d161052b366004612cbe565b6113a0565b34801561053c57600080fd5b50609d5461042e906001600160a01b031681565b34801561055c57600080fd5b506102d161056b366004612ef4565b6115bc565b34801561057c57600080fd5b5061026b6116d6565b34801561059157600080fd5b506102d16116e5565b3480156105a657600080fd5b5061032860a35481565b3480156105bc57600080fd5b506102a16105cb366004612ea9565b61182b565b3480156105dc57600080fd5b506102a16105eb366004612ea9565b6118bd565b3480156105fc57600080fd5b5061032860a15481565b34801561061257600080fd5b5061032860985481565b34801561062857600080fd5b506102d16118cb565b6102d16119fc565b34801561064557600080fd5b50610328610654366004612cbe565b60a46020526000908152604090205481565b34801561067257600080fd5b506102d1611c1d565b34801561068757600080fd5b50610328611c27565b34801561069c57600080fd5b506103286106ab366004612cf6565b6001600160a01b03918216600090815260346020908152604080832093909416825291909152205490565b3480156106e257600080fd5b5061032860a05481565b3480156106f857600080fd5b50609e5461042e906001600160a01b031681565b34801561071857600080fd5b506102d1610727366004612d2e565b611c4e565b34801561073857600080fd5b50609f5461042e906001600160a01b031681565b34801561075857600080fd5b506102d1611dd9565b34801561076d57600080fd5b5060975461042e906001600160a01b031681565b606060368054610790906130cb565b80601f01602080910402602001604051908101604052809291908181526020018280546107bc906130cb565b80156108095780601f106107de57610100808354040283529160200191610809565b820191906000526020600020905b8154815290600101906020018083116107ec57829003601f168201915b5050505050905090565b600033610821818585611f67565b5060019392505050565b609f546001600160a01b0316331461085e5760405162461bcd60e51b815260040161085590612f9f565b60405180910390fd5b609f80546001600160a01b0319166001600160a01b0392909216919091179055565b6001609d54600160a01b900460ff1660038111156108ae57634e487b7160e01b600052602160045260246000fd5b146108fb5760405162461bcd60e51b815260206004820152601760248201527f6269643a61756374696f6e206973206e6f74206c6976650000000000000000006044820152606401610855565b609e5460408051637c513c0f60e01b815290516000926001600160a01b031691637c513c0f91600480830192602092919082900301818787803b15801561094157600080fd5b505af1158015610955573d6000803e3d6000fd5b505050506040513d601f19601f820116820180604052508101906109799190612f0c565b610985906103e861305d565b905080609c546109959190613095565b6109a1346103e8613095565b10156109e15760405162461bcd60e51b815260206004820152600f60248201526e189a590e9d1bdbc81b1bddc8189a59608a1b6044820152606401610855565b6099544210610a265760405162461bcd60e51b8152602060048201526011602482015270189a590e985d58dd1a5bdb88195b991959607a1b6044820152606401610855565b61038442609954610a3791906130b4565b11610a565761038460996000828254610a50919061305d565b90915550505b609d54609c54610a6f916001600160a01b03169061208b565b34609c819055609d80546001600160a01b03191633908117909155604051918252907fe684a55f31b79eca403df938249029212a5925ec6be8012e099b45bc1019e5d29060200160405180910390a250565b600033610acf858285612202565b610ada858585612294565b506001949350505050565b609e60009054906101000a90046001600160a01b03166001600160a01b0316638da5cb5b6040518163ffffffff1660e01b815260040160206040518083038186803b158015610b3357600080fd5b505afa158015610b47573d6000803e3d6000fd5b505050506040513d601f19601f82011682018060405250810190610b6b9190612cda565b6001600160a01b0316336001600160a01b03161461085e5760405162461bcd60e51b815260206004820152600c60248201526b35b4b1b59d3737ba1033b7bb60a11b6044820152606401610855565b609f546001600160a01b03163314610be45760405162461bcd60e51b815260040161085590612f9f565b609e60009054906101000a90046001600160a01b03166001600160a01b031663a0b335e36040518163ffffffff1660e01b8152600401602060405180830381600087803b158015610c3457600080fd5b505af1158015610c48573d6000803e3d6000fd5b505050506040513d601f19601f82011682018060405250810190610c6c9190612f0c565b8110158015610d025750609e60009054906101000a90046001600160a01b03166001600160a01b0316630e519ef96040518163ffffffff1660e01b8152600401602060405180830381600087803b158015610cc657600080fd5b505af1158015610cda573d6000803e3d6000fd5b505050506040513d601f19601f82011682018060405250810190610cfe9190612f0c565b8111155b610d4e5760405162461bcd60e51b815260206004820152601d60248201527f7570646174653a696e76616c69642061756374696f6e206c656e6774680000006044820152606401610855565b609a55565b3360008181526034602090815260408083206001600160a01b03871684529091528120549091906108219082908690610d8d90879061305d565b611f67565b6000609d54600160a01b900460ff166003811115610dc057634e487b7160e01b600052602160045260246000fd5b14610ddd5760405162461bcd60e51b815260040161085590613016565b33600090815260a4602052604090205481811415610e345760405162461bcd60e51b81526020600482015260146024820152737570646174653a6e6f7420616e2075706461746560601b6044820152606401610855565b3360009081526033602052604090205460a354610e625760a3819055610e5a8382613095565b609b5561134f565b60a35481148015610e7257508115155b15610e8157610e5a8382613095565b816110c157600060a354609b54610e989190613075565b905060006103e8609e60009054906101000a90046001600160a01b03166001600160a01b03166309990a966040518163ffffffff1660e01b8152600401602060405180830381600087803b158015610eef57600080fd5b505af1158015610f03573d6000803e3d6000fd5b505050506040513d601f19601f82011682018060405250810190610f279190612f0c565b610f319084613095565b610f3b9190613075565b905080851015610f8d5760405162461bcd60e51b815260206004820152601c60248201527f7570646174653a7265736572766520707269636520746f6f206c6f77000000006044820152606401610855565b60006103e8609e60009054906101000a90046001600160a01b03166001600160a01b0316635410bfc96040518163ffffffff1660e01b8152600401602060405180830381600087803b158015610fe257600080fd5b505af1158015610ff6573d6000803e3d6000fd5b505050506040513d601f19601f8201168201806040525081019061101a9190612f0c565b6110249085613095565b61102e9190613075565b9050808611156110805760405162461bcd60e51b815260206004820152601d60248201527f7570646174653a7265736572766520707269636520746f6f20686967680000006044820152606401610855565b8360a36000828254611092919061305d565b909155506110a290508685613095565b609b60008282546110b3919061305d565b9091555061134f9350505050565b82611104578060a360008282546110d891906130b4565b909155506110e890508282613095565b609b60008282546110f991906130b4565b9091555061134f9050565b60008160a35461111491906130b4565b61111e8385613095565b609b5461112b91906130b4565b6111359190613075565b905060006103e8609e60009054906101000a90046001600160a01b03166001600160a01b03166309990a966040518163ffffffff1660e01b8152600401602060405180830381600087803b15801561118c57600080fd5b505af11580156111a0573d6000803e3d6000fd5b505050506040513d601f19601f820116820180604052508101906111c49190612f0c565b6111ce9084613095565b6111d89190613075565b90508085101561122a5760405162461bcd60e51b815260206004820152601c60248201527f7570646174653a7265736572766520707269636520746f6f206c6f77000000006044820152606401610855565b60006103e8609e60009054906101000a90046001600160a01b03166001600160a01b0316635410bfc96040518163ffffffff1660e01b8152600401602060405180830381600087803b15801561127f57600080fd5b505af1158015611293573d6000803e3d6000fd5b505050506040513d601f19601f820116820180604052508101906112b79190612f0c565b6112c19085613095565b6112cb9190613075565b90508086111561131d5760405162461bcd60e51b815260206004820152601d60248201527f7570646174653a7265736572766520707269636520746f6f20686967680000006044820152606401610855565b6113278585613095565b6113318786613095565b609b5461133e919061305d565b61134891906130b4565b609b555050505b33600081815260a4602052604090819020859055517f64e6e7bd72b853c4e62fd6ceaca05a104700c70a4cb567c75c7f2242ba7f037c906113939086815260200190565b60405180910390a2505050565b609e60009054906101000a90046001600160a01b03166001600160a01b0316638da5cb5b6040518163ffffffff1660e01b815260040160206040518083038186803b1580156113ee57600080fd5b505afa158015611402573d6000803e3d6000fd5b505050506040513d601f19601f820116820180604052508101906114269190612cda565b6001600160a01b0316336001600160a01b0316146114775760405162461bcd60e51b815260206004820152600e60248201526d3932b6b7bb329d3737ba1033b7bb60911b6044820152606401610855565b6000609d54600160a01b900460ff1660038111156114a557634e487b7160e01b600052602160045260246000fd5b146114c25760405162461bcd60e51b815260040161085590613016565b6001600160a01b038116600090815260a460205260409020548061151f5760405162461bcd60e51b81526020600482015260146024820152737570646174653a6e6f7420616e2075706461746560601b6044820152606401610855565b6001600160a01b03821660009081526033602052604081205490508060a3600082825461154c91906130b4565b9091555061155c90508282613095565b609b600082825461156d91906130b4565b90915550506001600160a01b038316600081815260a460209081526040808320839055519182527f64e6e7bd72b853c4e62fd6ceaca05a104700c70a4cb567c75c7f2242ba7f037c9101611393565b609f546001600160a01b031633146115e65760405162461bcd60e51b815260040161085590612f9f565b609e60009054906101000a90046001600160a01b03166001600160a01b0316638a364bc16040518163ffffffff1660e01b8152600401602060405180830381600087803b15801561163657600080fd5b505af115801561164a573d6000803e3d6000fd5b505050506040513d601f19601f8201168201806040525081019061166e9190612f0c565b8111156116c95760405162461bcd60e51b8152602060048201526024808201527f7570646174653a63616e6e6f7420696e637265617365206665652074686973206044820152630d0d2ced60e31b6064820152608401610855565b6116d161246d565b60a055565b606060378054610790906130cb565b6002609d54600160a01b900460ff16600381111561171357634e487b7160e01b600052602160045260246000fd5b146117605760405162461bcd60e51b815260206004820152601960248201527f636173683a7661756c74206e6f7420636c6f73656420796574000000000000006044820152606401610855565b33600090815260336020526040902054806117bd5760405162461bcd60e51b815260206004820152601a60248201527f636173683a6e6f20746f6b656e7320746f2063617368206f75740000000000006044820152606401610855565b60006117c860355490565b6117d24784613095565b6117dc9190613075565b90506117e833836126d6565b6117f23382612830565b60405181815233907f730831a1e4aa2d187ddd8e03d7beeac760a3927da5f112d645e0f8df7494b3679060200160405180910390a25050565b3360008181526034602090815260408083206001600160a01b0387168452909152812054909190838110156118b05760405162461bcd60e51b815260206004820152602560248201527f45524332303a2064656372656173656420616c6c6f77616e63652062656c6f77604482015264207a65726f60d81b6064820152608401610855565b610ada8286868403611f67565b600033610821818585612294565b6000609d54600160a01b900460ff1660038111156118f957634e487b7160e01b600052602160045260246000fd5b1461193c5760405162461bcd60e51b815260206004820152601360248201527272656465656d3a6e6f2072656465656d696e6760681b6044820152606401610855565b61194e3361194960355490565b6126d6565b6097546098546040516323b872dd60e01b815230600482015233602482015260448101919091526001600160a01b03909116906323b872dd90606401600060405180830381600087803b1580156119a457600080fd5b505af11580156119b8573d6000803e3d6000fd5b5050609d805460ff60a01b1916600360a01b179055505060405133907fd1b5ea7fe0f1c2fa09d49c2aa9b2200664ba57a734f1d95481d95b7f99af991c90600090a2565b6000609d54600160a01b900460ff166003811115611a2a57634e487b7160e01b600052602160045260246000fd5b14611a775760405162461bcd60e51b815260206004820152601760248201527f73746172743a6e6f2061756374696f6e207374617274730000000000000000006044820152606401610855565b611a7f611c27565b341015611ac25760405162461bcd60e51b81526020600482015260116024820152701cdd185c9d0e9d1bdbc81b1bddc8189a59607a1b6044820152606401610855565b603554609e60009054906101000a90046001600160a01b03166001600160a01b03166332977c736040518163ffffffff1660e01b8152600401602060405180830381600087803b158015611b1557600080fd5b505af1158015611b29573d6000803e3d6000fd5b505050506040513d601f19601f82011682018060405250810190611b4d9190612f0c565b611b579190613095565b60a354611b66906103e8613095565b1015611bb45760405162461bcd60e51b815260206004820152601760248201527f73746172743a6e6f7420656e6f75676820766f746572730000000000000000006044820152606401610855565b609a54611bc1904261305d565b609955609d805434609c8190556001600160a81b031990911633908117600160a01b179092556040519081527fcfb9c5312b25ec7b809d61e638df25f749eae5d5c25399e1c93d1d319bfd5821906020015b60405180910390a2565b611c2561246d565b565b600060a354600014611c485760a354609b54611c439190613075565b905090565b50600090565b600054610100900460ff16611c695760005460ff1615611c6d565b303b155b611cd05760405162461bcd60e51b815260206004820152602e60248201527f496e697469616c697a61626c653a20636f6e747261637420697320616c72656160448201526d191e481a5b9a5d1a585b1a5e995960921b6064820152608401610855565b600054610100900460ff16158015611cf2576000805461ffff19166101011790555b611cfc83836128c9565b611d046128fa565b609780546001600160a01b0319166001600160a01b038a161790556098879055611d2e8686613095565b609b5562093a80609a55609f80546001600160a01b0319166001600160a01b038b1617905560a08490554260a1558415611d685785611d6b565b60005b60a355609e80546001600160a01b0319166001600160a01b038c16179055609d805460ff60a01b19169055611da08987612921565b6001600160a01b038916600090815260a4602052604090208590558015611dcd576000805461ff00191690555b50505050505050505050565b6001609d54600160a01b900460ff166003811115611e0757634e487b7160e01b600052602160045260246000fd5b14611e545760405162461bcd60e51b815260206004820152601c60248201527f656e643a7661756c742068617320616c726561647920636c6f736564000000006044820152606401610855565b609954421015611e995760405162461bcd60e51b815260206004820152601060248201526f656e643a61756374696f6e206c69766560801b6044820152606401610855565b611ea161246d565b609754609d546098546040516323b872dd60e01b81523060048201526001600160a01b03928316602482015260448101919091529116906323b872dd90606401600060405180830381600087803b158015611efb57600080fd5b505af1158015611f0f573d6000803e3d6000fd5b5050609d8054600160a11b60ff60a01b19821617909155609c546040519081526001600160a01b0390911692507f8b01f9dd0400d6a1e84369a5fb8f6033934856ffa8ebadd707dca302ab5516959150602001611c13565b6001600160a01b038316611fc95760405162461bcd60e51b8152602060048201526024808201527f45524332303a20617070726f76652066726f6d20746865207a65726f206164646044820152637265737360e01b6064820152608401610855565b6001600160a01b03821661202a5760405162461bcd60e51b815260206004820152602260248201527f45524332303a20617070726f766520746f20746865207a65726f206164647265604482015261737360f01b6064820152608401610855565b6001600160a01b0383811660008181526034602090815260408083209487168084529482529182902085905590518481527f8c5be1e5ebec7d5bd14f71427d1e84f3dd0314c0f7b2291e5b200ac8c7c3b925910160405180910390a3505050565b73c778417e063141139fce010982780140aa0cd5ab6001600160a01b031663d0e30db0826040518263ffffffff1660e01b81526004016000604051808303818588803b1580156120da57600080fd5b505af11580156120ee573d6000803e3d6000fd5b50506040516370a0823160e01b815230600482015273c778417e063141139fce010982780140aa0cd5ab935063a9059cbb925085915083906370a082319060240160206040518083038186803b15801561214757600080fd5b505afa15801561215b573d6000803e3d6000fd5b505050506040513d601f19601f8201168201806040525081019061217f9190612f0c565b6040516001600160e01b031960e085901b1681526001600160a01b0390921660048301526024820152604401602060405180830381600087803b1580156121c557600080fd5b505af11580156121d9573d6000803e3d6000fd5b505050506040513d601f19601f820116820180604052508101906121fd9190612ed4565b505050565b6001600160a01b03838116600090815260346020908152604080832093861683529290522054600019811461228e57818110156122815760405162461bcd60e51b815260206004820152601d60248201527f45524332303a20696e73756666696369656e7420616c6c6f77616e63650000006044820152606401610855565b61228e8484848403611f67565b50505050565b6001600160a01b0383166122f85760405162461bcd60e51b815260206004820152602560248201527f45524332303a207472616e736665722066726f6d20746865207a65726f206164604482015264647265737360d81b6064820152608401610855565b6001600160a01b03821661235a5760405162461bcd60e51b815260206004820152602360248201527f45524332303a207472616e7366657220746f20746865207a65726f206164647260448201526265737360e81b6064820152608401610855565b612365838383612a0c565b6001600160a01b038316600090815260336020526040902054818110156123dd5760405162461bcd60e51b815260206004820152602660248201527f45524332303a207472616e7366657220616d6f756e7420657863656564732062604482015265616c616e636560d01b6064820152608401610855565b6001600160a01b0380851660009081526033602052604080822085850390559185168152908120805484929061241490849061305d565b92505081905550826001600160a01b0316846001600160a01b03167fddf252ad1be2c89b69c2b068fc378daa952ba7f163c4a11628f55a4df523b3ef8460405161246091815260200190565b60405180910390a361228e565b6002609d54600160a01b900460ff16600381111561249b57634e487b7160e01b600052602160045260246000fd5b14156124f75760405162461bcd60e51b815260206004820152602560248201527f636c61696d3a63616e6e6f7420636c61696d2061667465722061756374696f6e60448201526420656e647360d81b6064820152608401610855565b60006103e861250560355490565b60a0546125129190613095565b61251c9190613075565b9050600061252e6301e1338083613075565b9050600060a1544261254091906130b4565b9050600061254e8383613095565b90506000609e60009054906101000a90046001600160a01b03166001600160a01b031663b3f006746040518163ffffffff1660e01b8152600401602060405180830381600087803b1580156125a257600080fd5b505af11580156125b6573d6000803e3d6000fd5b505050506040513d601f19601f820116820180604052508101906125da9190612cda565b90506000609e60009054906101000a90046001600160a01b03166001600160a01b0316630ea90a126040518163ffffffff1660e01b8152600401602060405180830381600087803b15801561262e57600080fd5b505af1158015612642573d6000803e3d6000fd5b505050506040513d601f19601f820116820180604052508101906126669190612f0c565b90506103e861267460355490565b61267e9083613095565b6126889190613075565b95506126986301e1338087613075565b945060006126a68686613095565b4260a155609f549091506126c3906001600160a01b031685612921565b6126cd8382612921565b50505050505050565b6001600160a01b0382166127365760405162461bcd60e51b815260206004820152602160248201527f45524332303a206275726e2066726f6d20746865207a65726f206164647265736044820152607360f81b6064820152608401610855565b61274282600083612a0c565b6001600160a01b038216600090815260336020526040902054818110156127b65760405162461bcd60e51b815260206004820152602260248201527f45524332303a206275726e20616d6f756e7420657863656564732062616c616e604482015261636560f01b6064820152608401610855565b6001600160a01b03831660009081526033602052604081208383039055603580548492906127e59084906130b4565b90915550506040518281526000906001600160a01b038516907fddf252ad1be2c89b69c2b068fc378daa952ba7f163c4a11628f55a4df523b3ef9060200160405180910390a3505050565b6001600160a01b0382163b1561288f5773c778417e063141139fce010982780140aa0cd5ab6001600160a01b031663d0e30db0826040518263ffffffff1660e01b81526004016000604051808303818588803b1580156120da57600080fd5b6040516001600160a01b0383169082156108fc029083906000818181858888f193505050501580156121fd573d6000803e3d6000fd5b5050565b600054610100900460ff166128f05760405162461bcd60e51b815260040161085590612fcb565b6128c58282612b2f565b600054610100900460ff16611c255760405162461bcd60e51b815260040161085590612fcb565b6001600160a01b0382166129775760405162461bcd60e51b815260206004820152601f60248201527f45524332303a206d696e7420746f20746865207a65726f2061646472657373006044820152606401610855565b61298360008383612a0c565b8060356000828254612995919061305d565b90915550506001600160a01b038216600090815260336020526040812080548392906129c290849061305d565b90915550506040518181526001600160a01b038316906000907fddf252ad1be2c89b69c2b068fc378daa952ba7f163c4a11628f55a4df523b3ef9060200160405180910390a35050565b6001600160a01b03831615801590612a4f57506000609d54600160a01b900460ff166003811115612a4d57634e487b7160e01b600052602160045260246000fd5b145b156121fd576001600160a01b03808416600090815260a46020526040808220549285168252902054808214612b285780612ac1578260a36000828254612a9591906130b4565b90915550612aa590508284613095565b609b6000828254612ab691906130b4565b90915550612b289050565b81612af9578260a36000828254612ad8919061305d565b90915550612ae890508184613095565b609b6000828254612ab6919061305d565b612b038284613095565b612b0d8285613095565b609b54612b1a919061305d565b612b2491906130b4565b609b555b5050505050565b600054610100900460ff16612b565760405162461bcd60e51b815260040161085590612fcb565b8151612b69906036906020850190612b79565b5080516121fd9060379060208401905b828054612b85906130cb565b90600052602060002090601f016020900481019282612ba75760008555612bed565b82601f10612bc057805160ff1916838001178555612bed565b82800160010185558215612bed579182015b82811115612bed578251825591602001919060010190612bd2565b50612bf9929150612bfd565b5090565b5b80821115612bf95760008155600101612bfe565b600067ffffffffffffffff80841115612c2d57612c2d61311c565b604051601f8501601f19908116603f01168101908282118183101715612c5557612c5561311c565b81604052809350858152868686011115612c6e57600080fd5b858560208301376000602087830101525050509392505050565b8035612c9381613132565b919050565b600082601f830112612ca8578081fd5b612cb783833560208501612c12565b9392505050565b600060208284031215612ccf578081fd5b8135612cb781613132565b600060208284031215612ceb578081fd5b8151612cb781613132565b60008060408385031215612d08578081fd5b8235612d1381613132565b91506020830135612d2381613132565b809150509250929050565b60008060008060008060008060006101208a8c031215612d4c578485fd5b8935612d5781613132565b985060208a0135612d6781613132565b9750612d7560408b01612c88565b965060608a0135955060808a0135945060a08a0135935060c08a0135925060e08a013567ffffffffffffffff80821115612dad578384fd5b612db98d838e01612c98565b93506101008c0135915080821115612dcf578283fd5b50612ddc8c828d01612c98565b9150509295985092959850929598565b600080600060608486031215612e00578283fd5b8335612e0b81613132565b92506020840135612e1b81613132565b929592945050506040919091013590565b60008060008060808587031215612e41578384fd5b8435612e4c81613132565b93506020850135612e5c81613132565b925060408501359150606085013567ffffffffffffffff811115612e7e578182fd5b8501601f81018713612e8e578182fd5b612e9d87823560208401612c12565b91505092959194509250565b60008060408385031215612ebb578182fd5b8235612ec681613132565b946020939093013593505050565b600060208284031215612ee5578081fd5b81518015158114612cb7578182fd5b600060208284031215612f05578081fd5b5035919050565b600060208284031215612f1d578081fd5b5051919050565b6020810160048310612f4657634e487b7160e01b600052602160045260246000fd5b91905290565b6000602080835283518082850152825b81811015612f7857858101830151858201604001528201612f5c565b81811115612f895783604083870101525b50601f01601f1916929092016040019392505050565b6020808252601290820152713ab83230ba329d3737ba1031bab930ba37b960711b604082015260600190565b6020808252602b908201527f496e697469616c697a61626c653a20636f6e7472616374206973206e6f74206960408201526a6e697469616c697a696e6760a81b606082015260800190565b60208082526027908201527f7570646174653a61756374696f6e206c6976652063616e6e6f742075706461746040820152666520707269636560c81b606082015260800190565b6000821982111561307057613070613106565b500190565b60008261309057634e487b7160e01b81526012600452602481fd5b500490565b60008160001904831182151516156130af576130af613106565b500290565b6000828210156130c6576130c6613106565b500390565b600181811c908216806130df57607f821691505b6020821081141561310057634e487b7160e01b600052602260045260246000fd5b50919050565b634e487b7160e01b600052601160045260246000fd5b634e487b7160e01b600052604160045260246000fd5b6001600160a01b038116811461314757600080fd5b5056fea26469706673582212203c1198c15bc78abb5089b1f9c4a9fe6a1a3d9b493e2ae7ce66b46c5305e5718164736f6c63430008040033",
  "linkReferences": {},
  "deployedLinkReferences": {}
}