{
  "_format": "hh-sol-artifact-1",
  "contractName": "FishPoolTwo",
  "sourceName": "contracts/FishPoolTwo.sol",
  "abi": [
    {
      "inputs": [
        {
          "internalType": "contract IERC20",
          "name": "_rewardToken",
          "type": "address"
        },
        {
          "internalType": "contract IERC20",
          "name": "_stakedToken",
          "type": "address"
        }
      ],
      "stateMutability": "nonpayable",
      "type": "constructor"
    },
    {
      "anonymous": false,
      "inputs": [
        {
          "indexed": true,
          "internalType": "address",
          "name": "previousOwner",
          "type": "address"
        },
        {
          "indexed": true,
          "internalType": "address",
          "name": "newOwner",
          "type": "address"
        }
      ],
      "name": "OwnershipTransferred",
      "type": "event"
    },
    {
      "anonymous": false,
      "inputs": [
        {
          "indexed": false,
          "internalType": "uint256",
          "name": "reward",
          "type": "uint256"
        }
      ],
      "name": "RewardAdded",
      "type": "event"
    },
    {
      "anonymous": false,
      "inputs": [
        {
          "indexed": true,
          "internalType": "address",
          "name": "user",
          "type": "address"
        },
        {
          "indexed": false,
          "internalType": "uint256",
          "name": "reward",
          "type": "uint256"
        }
      ],
      "name": "RewardPaid",
      "type": "event"
    },
    {
      "anonymous": false,
      "inputs": [
        {
          "indexed": true,
          "internalType": "address",
          "name": "user",
          "type": "address"
        },
        {
          "indexed": false,
          "internalType": "uint256",
          "name": "amount",
          "type": "uint256"
        }
      ],
      "name": "Staked",
      "type": "event"
    },
    {
      "anonymous": false,
      "inputs": [
        {
          "indexed": true,
          "internalType": "address",
          "name": "user",
          "type": "address"
        },
        {
          "indexed": false,
          "internalType": "uint256",
          "name": "amount",
          "type": "uint256"
        }
      ],
      "name": "Withdrawn",
      "type": "event"
    },
    {
      "inputs": [
        {
          "internalType": "address",
          "name": "account",
          "type": "address"
        }
      ],
      "name": "balanceOf",
      "outputs": [
        {
          "internalType": "uint256",
          "name": "",
          "type": "uint256"
        }
      ],
      "stateMutability": "view",
      "type": "function"
    },
    {
      "inputs": [
        {
          "internalType": "address",
          "name": "account",
          "type": "address"
        }
      ],
      "name": "earned",
      "outputs": [
        {
          "internalType": "uint128",
          "name": "",
          "type": "uint128"
        }
      ],
      "stateMutability": "view",
      "type": "function"
    },
    {
      "inputs": [],
      "name": "exit",
      "outputs": [],
      "stateMutability": "nonpayable",
      "type": "function"
    },
    {
      "inputs": [],
      "name": "getReward",
      "outputs": [],
      "stateMutability": "nonpayable",
      "type": "function"
    },
    {
      "inputs": [],
      "name": "lastTimeRewardApplicable",
      "outputs": [
        {
          "internalType": "uint64",
          "name": "",
          "type": "uint64"
        }
      ],
      "stateMutability": "view",
      "type": "function"
    },
    {
      "inputs": [],
      "name": "lastUpdateTime",
      "outputs": [
        {
          "internalType": "uint64",
          "name": "",
          "type": "uint64"
        }
      ],
      "stateMutability": "view",
      "type": "function"
    },
    {
      "inputs": [],
      "name": "owner",
      "outputs": [
        {
          "internalType": "address",
          "name": "",
          "type": "address"
        }
      ],
      "stateMutability": "view",
      "type": "function"
    },
    {
      "inputs": [],
      "name": "periodFinish",
      "outputs": [
        {
          "internalType": "uint64",
          "name": "",
          "type": "uint64"
        }
      ],
      "stateMutability": "view",
      "type": "function"
    },
    {
      "inputs": [],
      "name": "renounceOwnership",
      "outputs": [],
      "stateMutability": "nonpayable",
      "type": "function"
    },
    {
      "inputs": [],
      "name": "rewardPerToken",
      "outputs": [
        {
          "internalType": "uint128",
          "name": "",
          "type": "uint128"
        }
      ],
      "stateMutability": "view",
      "type": "function"
    },
    {
      "inputs": [],
      "name": "rewardPerTokenStored",
      "outputs": [
        {
          "internalType": "uint128",
          "name": "",
          "type": "uint128"
        }
      ],
      "stateMutability": "view",
      "type": "function"
    },
    {
      "inputs": [],
      "name": "rewardRate",
      "outputs": [
        {
          "internalType": "uint256",
          "name": "",
          "type": "uint256"
        }
      ],
      "stateMutability": "view",
      "type": "function"
    },
    {
      "inputs": [],
      "name": "rewardToken",
      "outputs": [
        {
          "internalType": "contract IERC20",
          "name": "",
          "type": "address"
        }
      ],
      "stateMutability": "view",
      "type": "function"
    },
    {
      "inputs": [
        {
          "internalType": "uint128",
          "name": "reward",
          "type": "uint128"
        },
        {
          "internalType": "uint64",
          "name": "duration",
          "type": "uint64"
        }
      ],
      "name": "setRewardParams",
      "outputs": [],
      "stateMutability": "nonpayable",
      "type": "function"
    },
    {
      "inputs": [
        {
          "internalType": "uint128",
          "name": "amount",
          "type": "uint128"
        }
      ],
      "name": "stake",
      "outputs": [],
      "stateMutability": "payable",
      "type": "function"
    },
    {
      "inputs": [
        {
          "internalType": "address",
          "name": "forWhom",
          "type": "address"
        },
        {
          "internalType": "uint128",
          "name": "amount",
          "type": "uint128"
        }
      ],
      "name": "stakeFor",
      "outputs": [],
      "stateMutability": "payable",
      "type": "function"
    },
    {
      "inputs": [],
      "name": "stakedToken",
      "outputs": [
        {
          "internalType": "contract IERC20",
          "name": "",
          "type": "address"
        }
      ],
      "stateMutability": "view",
      "type": "function"
    },
    {
      "inputs": [],
      "name": "totalSupply",
      "outputs": [
        {
          "internalType": "uint256",
          "name": "",
          "type": "uint256"
        }
      ],
      "stateMutability": "view",
      "type": "function"
    },
    {
      "inputs": [
        {
          "internalType": "address",
          "name": "newOwner",
          "type": "address"
        }
      ],
      "name": "transferOwnership",
      "outputs": [],
      "stateMutability": "nonpayable",
      "type": "function"
    },
    {
      "inputs": [
        {
          "internalType": "address",
          "name": "",
          "type": "address"
        }
      ],
      "name": "userRewards",
      "outputs": [
        {
          "internalType": "uint128",
          "name": "userRewardPerTokenPaid",
          "type": "uint128"
        },
        {
          "internalType": "uint128",
          "name": "rewards",
          "type": "uint128"
        }
      ],
      "stateMutability": "view",
      "type": "function"
    },
    {
      "inputs": [
        {
          "internalType": "uint128",
          "name": "amount",
          "type": "uint128"
        }
      ],
      "name": "withdraw",
      "outputs": [],
      "stateMutability": "nonpayable",
      "type": "function"
    },
    {
      "inputs": [],
      "name": "withdrawReward",
      "outputs": [],
      "stateMutability": "nonpayable",
      "type": "function"
    }
  ],
  "bytecode": "0x60806040523480156200001157600080fd5b50604051620015aa380380620015aa8339810160408190526200003491620000e0565b6200003f3362000071565b600480546001600160a01b039384166001600160a01b0319918216179091556002805492909316911617905562000117565b600380546001600160a01b038381166001600160a01b0319831681179093556040519116919082907f8be0079c531659141344cd1fd0a4f28419497f9722a3daafe3b4186f6b6457e090600090a35050565b80516001600160a01b0381168114620000db57600080fd5b919050565b60008060408385031215620000f3578182fd5b620000fe83620000c3565b91506200010e60208401620000c3565b90509250929050565b61148380620001276000396000f3fe6080604052600436106101345760003560e01c806389ee4bde116100ab578063cd3daf9d1161006f578063cd3daf9d14610394578063df136d65146103a9578063e9fad8ee146103d0578063ebe2b12b146103e5578063f2fde38b14610405578063f7c618c11461042557600080fd5b806389ee4bde146102e65780638da5cb5b14610306578063c885bc5814610338578063c8f33c911461034d578063cc7a262e1461037457600080fd5b806370458d85116100fd57806370458d851461023257806370a0823114610245578063715018a61461027b5780637b0a47ee1461029057806380faa57d146102a657806388fe2be8146102d357600080fd5b80628cc2621461013957806302387a7b146101765780630660f1e81461019857806318160ddd146101f95780633d18b9121461021d575b600080fd5b34801561014557600080fd5b506101596101543660046112bc565b610445565b6040516001600160801b0390911681526020015b60405180910390f35b34801561018257600080fd5b5061019661019136600461132f565b6104d0565b005b3480156101a457600080fd5b506101d96101b33660046112bc565b6007602052600090815260409020546001600160801b0380821691600160801b90041682565b604080516001600160801b0393841681529290911660208301520161016d565b34801561020557600080fd5b5061020f60005481565b60405190815260200161016d565b34801561022957600080fd5b5061019661056f565b6101966102403660046112dd565b610741565b34801561025157600080fd5b5061020f6102603660046112bc565b6001600160a01b031660009081526001602052604090205490565b34801561028757600080fd5b506101966107e2565b34801561029c57600080fd5b5061020f60055481565b3480156102b257600080fd5b506102bb610818565b6040516001600160401b03909116815260200161016d565b6101966102e136600461132f565b61084c565b3480156102f257600080fd5b50610196610301366004611349565b610859565b34801561031257600080fd5b506003546001600160a01b03165b6040516001600160a01b03909116815260200161016d565b34801561034457600080fd5b50610196610ae2565b34801561035957600080fd5b506006546102bb90600160401b90046001600160401b031681565b34801561038057600080fd5b50600254610320906001600160a01b031681565b3480156103a057600080fd5b50610159610c6b565b3480156103b557600080fd5b5060065461015990600160801b90046001600160801b031681565b3480156103dc57600080fd5b50610196610d00565b3480156103f157600080fd5b506006546102bb906001600160401b031681565b34801561041157600080fd5b506101966104203660046112bc565b610d21565b34801561043157600080fd5b50600454610320906001600160a01b031681565b6001600160a01b0381166000908152600760205260408120546001600160801b03600160801b8204811691670de0b6b3a76400009116610483610c6b565b036001600160801b03166104ac856001600160a01b031660009081526001602052604090205490565b02816104c857634e487b7160e01b600052601260045260246000fd5b040192915050565b3360006104db610c6b565b90506104e5610818565b600680546001600160801b03808516600160801b026001600160401b03948516600160401b0291909116939091169290921791909117905561052682610445565b6001600160a01b03831660009081526007602052604090206001600160801b038381169216600160801b026001600160801b03191691909117905561056a83610db9565b505050565b33600061057a610c6b565b9050610584610818565b600680546001600160801b03808516600160801b026001600160401b03948516600160401b029190911693909116929092179190911790556105c582610445565b6001600160a01b03831660009081526007602052604081206001600160801b038481169316600160801b026001600160801b0319169290921790915561060a33610445565b6001600160801b03169050801561056a57336000818152600760205260409081902080546001600160801b0316905560048054915163a9059cbb60e01b815290810192909252602482018390526001600160a01b03169063a9059cbb90604401602060405180830381600087803b15801561068457600080fd5b505af1158015610698573d6000803e3d6000fd5b505050506040513d601f19601f820116820180604052508101906106bc919061130f565b6107065760405162461bcd60e51b81526020600482015260166024820152751c995dd85c99081d1c985b9cd9995c8819985a5b195960521b60448201526064015b60405180910390fd5b60405181815233907fe2403640ba68fed3a2f88b7557551d1993f84b99bb10ff833f0cf8db0c5e0486906020015b60405180910390a2505050565b81600061074c610c6b565b9050610756610818565b600680546001600160801b03808516600160801b026001600160401b03948516600160401b0291909116939091169290921791909117905561079782610445565b6001600160a01b03831660009081526007602052604090206001600160801b038381169216600160801b026001600160801b0319169190911790556107dc848461101b565b50505050565b6003546001600160a01b0316331461080c5760405162461bcd60e51b81526004016106fd906113f5565b6108166000611237565b565b60065460009042906001600160401b0390811690821610610844576006546001600160401b0316610846565b805b91505090565b6108563382610741565b50565b6003546001600160a01b031633146108835760405162461bcd60e51b81526004016106fd906113f5565b6000826001600160801b03161161089957600080fd5b6108a1610c6b565b600680546001600160801b03928316600160801b029216919091179055600480546040516370a0823160e01b815242926000926001600160a01b0316916370a08231916108ff913091016001600160a01b0391909116815260200190565b60206040518083038186803b15801561091757600080fd5b505afa15801561092b573d6000803e3d6000fd5b505050506040513d601f19601f8201168201806040525081019061094f919061138a565b6002546004549192506001600160a01b03918216911614156109715760005490035b6006546000906001600160401b03908116908416106109cb57836001600160401b0316856001600160801b0316816109b957634e487b7160e01b600052601260045260246000fd5b046001600160801b0316600555610a15565b506006546005546001600160401b0391821684900382169081029185166001600160801b038716830181610a0f57634e487b7160e01b600052601260045260246000fd5b04600555505b8181866001600160801b0316011115610a645760405162461bcd60e51b81526020600482015260116024820152706e6f7420656e6f75676820746f6b656e7360781b60448201526064016106fd565b600680546001600160801b031916600160401b6001600160401b038087169190910267ffffffffffffffff191691909117858701919091161790556040516001600160801b03861681527fde88a922e0d3b88b24e9623efeb464919c6bf9f66857a65e2bfcf2ce87a9433d9060200160405180910390a15050505050565b6003546001600160a01b03163314610b0c5760405162461bcd60e51b81526004016106fd906113f5565b600480546040516370a0823160e01b815230928101929092526000916001600160a01b03909116906370a082319060240160206040518083038186803b158015610b5557600080fd5b505afa158015610b69573d6000803e3d6000fd5b505050506040513d601f19601f82011682018060405250810190610b8d919061138a565b6002546004549192506001600160a01b0391821691161415610bb957600054610bb6908261142a565b90505b6004805460405163a9059cbb60e01b81523392810192909252602482018390526001600160a01b03169063a9059cbb90604401602060405180830381600087803b158015610c0657600080fd5b505af1158015610c1a573d6000803e3d6000fd5b505050506040513d601f19601f82011682018060405250810190610c3e919061130f565b610c4757600080fd5b5060006005556006805467ffffffffffffffff1916426001600160401b0316179055565b6000805480610c8c575050600654600160801b90046001600160801b031690565b600654600090600160401b90046001600160401b0316610caa610818565b036001600160401b03169050816005548202670de0b6b3a76400000281610ce157634e487b7160e01b600052601260045260246000fd5b6006546001600160801b03600160801b90910416919004019392505050565b610d0861056f565b33600090815260016020526040902054610816906104d0565b6003546001600160a01b03163314610d4b5760405162461bcd60e51b81526004016106fd906113f5565b6001600160a01b038116610db05760405162461bcd60e51b815260206004820152602660248201527f4f776e61626c653a206e6577206f776e657220697320746865207a65726f206160448201526564647265737360d01b60648201526084016106fd565b61085681611237565b336000908152600160205260409020546001600160801b0382161115610e215760405162461bcd60e51b815260206004820152601a60248201527f77697468647261773a2062616c616e6365206973206c6f77657200000000000060448201526064016106fd565b33600090815260016020526040812080546001600160801b0384169081900390915581540390556002546001600160a01b031680610ef75760405160009033906001600160801b038516908381818185875af1925050503d8060008114610ea4576040519150601f19603f3d011682016040523d82523d6000602084013e610ea9565b606091505b5050905080610ef15760405162461bcd60e51b8152602060048201526014602482015273657468207472616e73666572206661696c75726560601b60448201526064016106fd565b50610fd9565b60025460405163a9059cbb60e01b81523360048201526001600160801b03841660248201526001600160a01b039091169063a9059cbb90604401602060405180830381600087803b158015610f4b57600080fd5b505af1158015610f5f573d6000803e3d6000fd5b505050506040513d601f19601f82011682018060405250810190610f83919061130f565b6040518060400160405280601c81526020017f7374616b656420746f6b656e207472616e73666572206661696c65640000000081525090610fd75760405162461bcd60e51b81526004016106fd91906113a2565b505b6040516001600160801b038316815233907f7084f5476618d8e60b11ef0d7d3f06914655adb8793e28ff7f018d4c76d505d59060200160405180910390a25050565b6002546001600160a01b03168061105857600080543490810182556001600160a01b038516825260016020526040909120805490910190556111f3565b34156110955760405162461bcd60e51b815260206004820152600c60248201526b0dcdedc5af4cae4de40cae8d60a31b60448201526064016106fd565b6000826001600160801b0316116110df5760405162461bcd60e51b815260206004820152600e60248201526d043616e6e6f74207374616b6520360941b60448201526064016106fd565b6040516323b872dd60e01b81523360048201523060248201526001600160801b03831660448201526001600160a01b038216906323b872dd90606401602060405180830381600087803b15801561113557600080fd5b505af1158015611149573d6000803e3d6000fd5b505050506040513d601f19601f8201168201806040525081019061116d919061130f565b6040518060400160405280601c81526020017f7374616b656420746f6b656e207472616e73666572206661696c656400000000815250906111c15760405162461bcd60e51b81526004016106fd91906113a2565b50600080546001600160801b03841690810182556001600160a01b038516825260016020526040909120805490910190555b6040516001600160801b03831681526001600160a01b038416907f9e71bc8eea02a63969f509818f2dafb9254532904319f9dbda79b67bd34a5f3d90602001610734565b600380546001600160a01b038381166001600160a01b0319831681179093556040519116919082907f8be0079c531659141344cd1fd0a4f28419497f9722a3daafe3b4186f6b6457e090600090a35050565b80356001600160a01b03811681146112a057600080fd5b919050565b80356001600160801b03811681146112a057600080fd5b6000602082840312156112cd578081fd5b6112d682611289565b9392505050565b600080604083850312156112ef578081fd5b6112f883611289565b9150611306602084016112a5565b90509250929050565b600060208284031215611320578081fd5b815180151581146112d6578182fd5b600060208284031215611340578081fd5b6112d6826112a5565b6000806040838503121561135b578182fd5b611364836112a5565b915060208301356001600160401b038116811461137f578182fd5b809150509250929050565b60006020828403121561139b578081fd5b5051919050565b6000602080835283518082850152825b818110156113ce578581018301518582016040015282016113b2565b818111156113df5783604083870101525b50601f01601f1916929092016040019392505050565b6020808252818101527f4f776e61626c653a2063616c6c6572206973206e6f7420746865206f776e6572604082015260600190565b60008282101561144857634e487b7160e01b81526011600452602481fd5b50039056fea26469706673582212200fce75ce6610e7159032f991b6099af37373d0e4ace2ae22062adaba0a8d0bf064736f6c63430008040033",
  "linkReferences": {},
  "deployedLinkReferences": {}
}