{
  "_format": "hh-sol-artifact-1",
  "contractName": "MutantCats",
  "sourceName": "contracts/MutantCats.sol",
  "abi": [
    {
      "inputs": [
        {
          "internalType": "string",
          "name": "name_",
          "type": "string"
        },
        {
          "internalType": "string",
          "name": "symbol_",
          "type": "string"
        },
        {
          "internalType": "string",
          "name": "baseURI_",
          "type": "string"
        }
      ],
      "stateMutability": "nonpayable",
      "type": "constructor"
    },
    {
      "anonymous": false,
      "inputs": [
        {
          "indexed": true,
          "internalType": "address",
          "name": "owner",
          "type": "address"
        },
        {
          "indexed": true,
          "internalType": "address",
          "name": "approved",
          "type": "address"
        },
        {
          "indexed": true,
          "internalType": "uint256",
          "name": "tokenId",
          "type": "uint256"
        }
      ],
      "name": "Approval",
      "type": "event"
    },
    {
      "anonymous": false,
      "inputs": [
        {
          "indexed": true,
          "internalType": "address",
          "name": "owner",
          "type": "address"
        },
        {
          "indexed": true,
          "internalType": "address",
          "name": "operator",
          "type": "address"
        },
        {
          "indexed": false,
          "internalType": "bool",
          "name": "approved",
          "type": "bool"
        }
      ],
      "name": "ApprovalForAll",
      "type": "event"
    },
    {
      "anonymous": false,
      "inputs": [
        {
          "indexed": true,
          "internalType": "address",
          "name": "sender",
          "type": "address"
        },
        {
          "indexed": false,
          "internalType": "uint256",
          "name": "startWith",
          "type": "uint256"
        },
        {
          "indexed": false,
          "internalType": "uint256",
          "name": "times",
          "type": "uint256"
        }
      ],
      "name": "MintCat",
      "type": "event"
    },
    {
      "anonymous": false,
      "inputs": [
        {
          "indexed": true,
          "internalType": "address",
          "name": "previousOwner",
          "type": "address"
        },
        {
          "indexed": true,
          "internalType": "address",
          "name": "newOwner",
          "type": "address"
        }
      ],
      "name": "OwnershipTransferred",
      "type": "event"
    },
    {
      "anonymous": false,
      "inputs": [
        {
          "indexed": true,
          "internalType": "address",
          "name": "from",
          "type": "address"
        },
        {
          "indexed": true,
          "internalType": "address",
          "name": "to",
          "type": "address"
        },
        {
          "indexed": true,
          "internalType": "uint256",
          "name": "tokenId",
          "type": "uint256"
        }
      ],
      "name": "Transfer",
      "type": "event"
    },
    {
      "inputs": [
        {
          "internalType": "address",
          "name": "to",
          "type": "address"
        },
        {
          "internalType": "uint256",
          "name": "tokenId",
          "type": "uint256"
        }
      ],
      "name": "approve",
      "outputs": [],
      "stateMutability": "nonpayable",
      "type": "function"
    },
    {
      "inputs": [
        {
          "internalType": "address",
          "name": "owner",
          "type": "address"
        }
      ],
      "name": "balanceOf",
      "outputs": [
        {
          "internalType": "uint256",
          "name": "",
          "type": "uint256"
        }
      ],
      "stateMutability": "view",
      "type": "function"
    },
    {
      "inputs": [],
      "name": "baseURI",
      "outputs": [
        {
          "internalType": "string",
          "name": "",
          "type": "string"
        }
      ],
      "stateMutability": "view",
      "type": "function"
    },
    {
      "inputs": [
        {
          "internalType": "uint256",
          "name": "_tokenId",
          "type": "uint256"
        }
      ],
      "name": "burn",
      "outputs": [],
      "stateMutability": "nonpayable",
      "type": "function"
    },
    {
      "inputs": [
        {
          "internalType": "uint256",
          "name": "tokenId",
          "type": "uint256"
        }
      ],
      "name": "getApproved",
      "outputs": [
        {
          "internalType": "address",
          "name": "",
          "type": "address"
        }
      ],
      "stateMutability": "view",
      "type": "function"
    },
    {
      "inputs": [
        {
          "internalType": "address",
          "name": "owner",
          "type": "address"
        },
        {
          "internalType": "address",
          "name": "operator",
          "type": "address"
        }
      ],
      "name": "isApprovedForAll",
      "outputs": [
        {
          "internalType": "bool",
          "name": "",
          "type": "bool"
        }
      ],
      "stateMutability": "view",
      "type": "function"
    },
    {
      "inputs": [],
      "name": "maxBatch",
      "outputs": [
        {
          "internalType": "uint256",
          "name": "",
          "type": "uint256"
        }
      ],
      "stateMutability": "view",
      "type": "function"
    },
    {
      "inputs": [
        {
          "internalType": "uint256",
          "name": "_times",
          "type": "uint256"
        }
      ],
      "name": "mint",
      "outputs": [],
      "stateMutability": "payable",
      "type": "function"
    },
    {
      "inputs": [],
      "name": "name",
      "outputs": [
        {
          "internalType": "string",
          "name": "",
          "type": "string"
        }
      ],
      "stateMutability": "view",
      "type": "function"
    },
    {
      "inputs": [],
      "name": "owner",
      "outputs": [
        {
          "internalType": "address",
          "name": "",
          "type": "address"
        }
      ],
      "stateMutability": "view",
      "type": "function"
    },
    {
      "inputs": [
        {
          "internalType": "uint256",
          "name": "tokenId",
          "type": "uint256"
        }
      ],
      "name": "ownerOf",
      "outputs": [
        {
          "internalType": "address",
          "name": "",
          "type": "address"
        }
      ],
      "stateMutability": "view",
      "type": "function"
    },
    {
      "inputs": [],
      "name": "price",
      "outputs": [
        {
          "internalType": "uint256",
          "name": "",
          "type": "uint256"
        }
      ],
      "stateMutability": "view",
      "type": "function"
    },
    {
      "inputs": [],
      "name": "renounceOwnership",
      "outputs": [],
      "stateMutability": "nonpayable",
      "type": "function"
    },
    {
      "inputs": [
        {
          "internalType": "address",
          "name": "from",
          "type": "address"
        },
        {
          "internalType": "address",
          "name": "to",
          "type": "address"
        },
        {
          "internalType": "uint256",
          "name": "tokenId",
          "type": "uint256"
        }
      ],
      "name": "safeTransferFrom",
      "outputs": [],
      "stateMutability": "nonpayable",
      "type": "function"
    },
    {
      "inputs": [
        {
          "internalType": "address",
          "name": "from",
          "type": "address"
        },
        {
          "internalType": "address",
          "name": "to",
          "type": "address"
        },
        {
          "internalType": "uint256",
          "name": "tokenId",
          "type": "uint256"
        },
        {
          "internalType": "bytes",
          "name": "_data",
          "type": "bytes"
        }
      ],
      "name": "safeTransferFrom",
      "outputs": [],
      "stateMutability": "nonpayable",
      "type": "function"
    },
    {
      "inputs": [
        {
          "internalType": "address",
          "name": "operator",
          "type": "address"
        },
        {
          "internalType": "bool",
          "name": "approved",
          "type": "bool"
        }
      ],
      "name": "setApprovalForAll",
      "outputs": [],
      "stateMutability": "nonpayable",
      "type": "function"
    },
    {
      "inputs": [
        {
          "internalType": "string",
          "name": "_newURI",
          "type": "string"
        }
      ],
      "name": "setBaseURI",
      "outputs": [],
      "stateMutability": "nonpayable",
      "type": "function"
    },
    {
      "inputs": [
        {
          "internalType": "bool",
          "name": "_start",
          "type": "bool"
        }
      ],
      "name": "setStart",
      "outputs": [],
      "stateMutability": "nonpayable",
      "type": "function"
    },
    {
      "inputs": [
        {
          "internalType": "bytes4",
          "name": "interfaceId",
          "type": "bytes4"
        }
      ],
      "name": "supportsInterface",
      "outputs": [
        {
          "internalType": "bool",
          "name": "",
          "type": "bool"
        }
      ],
      "stateMutability": "view",
      "type": "function"
    },
    {
      "inputs": [],
      "name": "symbol",
      "outputs": [
        {
          "internalType": "string",
          "name": "",
          "type": "string"
        }
      ],
      "stateMutability": "view",
      "type": "function"
    },
    {
      "inputs": [
        {
          "internalType": "uint256",
          "name": "index",
          "type": "uint256"
        }
      ],
      "name": "tokenByIndex",
      "outputs": [
        {
          "internalType": "uint256",
          "name": "",
          "type": "uint256"
        }
      ],
      "stateMutability": "view",
      "type": "function"
    },
    {
      "inputs": [
        {
          "internalType": "address",
          "name": "owner",
          "type": "address"
        },
        {
          "internalType": "uint256",
          "name": "index",
          "type": "uint256"
        }
      ],
      "name": "tokenOfOwnerByIndex",
      "outputs": [
        {
          "internalType": "uint256",
          "name": "",
          "type": "uint256"
        }
      ],
      "stateMutability": "view",
      "type": "function"
    },
    {
      "inputs": [
        {
          "internalType": "uint256",
          "name": "tokenId",
          "type": "uint256"
        }
      ],
      "name": "tokenURI",
      "outputs": [
        {
          "internalType": "string",
          "name": "",
          "type": "string"
        }
      ],
      "stateMutability": "view",
      "type": "function"
    },
    {
      "inputs": [
        {
          "internalType": "address",
          "name": "owner",
          "type": "address"
        }
      ],
      "name": "tokensOfOwner",
      "outputs": [
        {
          "internalType": "uint256[]",
          "name": "",
          "type": "uint256[]"
        }
      ],
      "stateMutability": "view",
      "type": "function"
    },
    {
      "inputs": [],
      "name": "totalCats",
      "outputs": [
        {
          "internalType": "uint256",
          "name": "",
          "type": "uint256"
        }
      ],
      "stateMutability": "view",
      "type": "function"
    },
    {
      "inputs": [],
      "name": "totalCount",
      "outputs": [
        {
          "internalType": "uint256",
          "name": "",
          "type": "uint256"
        }
      ],
      "stateMutability": "view",
      "type": "function"
    },
    {
      "inputs": [],
      "name": "totalSupply",
      "outputs": [
        {
          "internalType": "uint256",
          "name": "",
          "type": "uint256"
        }
      ],
      "stateMutability": "view",
      "type": "function"
    },
    {
      "inputs": [
        {
          "internalType": "address",
          "name": "from",
          "type": "address"
        },
        {
          "internalType": "address",
          "name": "to",
          "type": "address"
        },
        {
          "internalType": "uint256",
          "name": "tokenId",
          "type": "uint256"
        }
      ],
      "name": "transferFrom",
      "outputs": [],
      "stateMutability": "nonpayable",
      "type": "function"
    },
    {
      "inputs": [
        {
          "internalType": "address",
          "name": "newOwner",
          "type": "address"
        }
      ],
      "name": "transferOwnership",
      "outputs": [],
      "stateMutability": "nonpayable",
      "type": "function"
    }
  ],
  "bytecode": "0x608060405261270f600c55600a600d5566b1a2bc2ec50000600e553480156200002757600080fd5b5060405162002587380380620025878339810160408190526200004a9162000264565b825183908390620000639060009060208501906200010b565b508051620000799060019060208401906200010b565b5050506200009662000090620000b560201b60201c565b620000b9565b8051620000ab90600f9060208401906200010b565b5050505062000344565b3390565b600a80546001600160a01b038381166001600160a01b0319831681179093556040519116919082907f8be0079c531659141344cd1fd0a4f28419497f9722a3daafe3b4186f6b6457e090600090a35050565b8280546200011990620002f1565b90600052602060002090601f0160209004810192826200013d576000855562000188565b82601f106200015857805160ff191683800117855562000188565b8280016001018555821562000188579182015b82811115620001885782518255916020019190600101906200016b565b50620001969291506200019a565b5090565b5b808211156200019657600081556001016200019b565b600082601f830112620001c2578081fd5b81516001600160401b0380821115620001df57620001df6200032e565b604051601f8301601f19908116603f011681019082821181831017156200020a576200020a6200032e565b8160405283815260209250868385880101111562000226578485fd5b8491505b838210156200024957858201830151818301840152908201906200022a565b838211156200025a57848385830101525b9695505050505050565b60008060006060848603121562000279578283fd5b83516001600160401b038082111562000290578485fd5b6200029e87838801620001b1565b94506020860151915080821115620002b4578384fd5b620002c287838801620001b1565b93506040860151915080821115620002d8578283fd5b50620002e786828701620001b1565b9150509250925092565b600181811c908216806200030657607f821691505b602082108114156200032857634e487b7160e01b600052602260045260246000fd5b50919050565b634e487b7160e01b600052604160045260246000fd5b61223380620003546000396000f3fe6080604052600436106101c25760003560e01c806367765b87116100f757806395d89b4111610095578063b88d4fde11610064578063b88d4fde146104d0578063c87b56dd146104f0578063e985e9c514610510578063f2fde38b1461055957600080fd5b806395d89b4114610472578063a035b1fe14610487578063a0712d681461049d578063a22cb465146104b057600080fd5b806370a08231116100d157806370a08231146103f2578063715018a6146104125780638462151c146104275780638da5cb5b1461045457600080fd5b806367765b87146103a757806368e24327146103bd5780636c0360eb146103dd57600080fd5b80632f745c591161016457806342966c681161013e57806342966c68146103275780634f6ccce71461034757806355f804b3146103675780636352211e1461038757600080fd5b80632f745c59146102d157806334eafb11146102f157806342842e0e1461030757600080fd5b8063081812fc116101a0578063081812fc14610242578063095ea7b31461027a57806318160ddd1461029c57806323b872dd146102b157600080fd5b806301ffc9a7146101c757806306fdde03146101fc5780630783b3381461021e575b600080fd5b3480156101d357600080fd5b506101e76101e2366004611e40565b610579565b60405190151581526020015b60405180910390f35b34801561020857600080fd5b506102116105a4565b6040516101f39190611fc2565b34801561022a57600080fd5b50610234600b5481565b6040519081526020016101f3565b34801561024e57600080fd5b5061026261025d366004611ebe565b610636565b6040516001600160a01b0390911681526020016101f3565b34801561028657600080fd5b5061029a610295366004611dfd565b6106d0565b005b3480156102a857600080fd5b50600854610234565b3480156102bd57600080fd5b5061029a6102cc366004611d20565b6107e6565b3480156102dd57600080fd5b506102346102ec366004611dfd565b610817565b3480156102fd57600080fd5b50610234600c5481565b34801561031357600080fd5b5061029a610322366004611d20565b6108ad565b34801561033357600080fd5b5061029a610342366004611ebe565b6108c8565b34801561035357600080fd5b50610234610362366004611ebe565b6108d4565b34801561037357600080fd5b5061029a610382366004611e78565b610975565b34801561039357600080fd5b506102626103a2366004611ebe565b6109b6565b3480156103b357600080fd5b50610234600d5481565b3480156103c957600080fd5b5061029a6103d8366004611e26565b610a2d565b3480156103e957600080fd5b50610211610a6a565b3480156103fe57600080fd5b5061023461040d366004611cd4565b610af8565b34801561041e57600080fd5b5061029a610b7f565b34801561043357600080fd5b50610447610442366004611cd4565b610bb5565b6040516101f39190611f7e565b34801561046057600080fd5b50600a546001600160a01b0316610262565b34801561047e57600080fd5b50610211610c73565b34801561049357600080fd5b50610234600e5481565b61029a6104ab366004611ebe565b610c82565b3480156104bc57600080fd5b5061029a6104cb366004611dd4565b610e98565b3480156104dc57600080fd5b5061029a6104eb366004611d5b565b610f5d565b3480156104fc57600080fd5b5061021161050b366004611ebe565b610f95565b34801561051c57600080fd5b506101e761052b366004611cee565b6001600160a01b03918216600090815260056020908152604080832093909416825291909152205460ff1690565b34801561056557600080fd5b5061029a610574366004611cd4565b61107f565b60006001600160e01b0319821663780e9d6360e01b148061059e575061059e82611117565b92915050565b6060600080546105b39061213b565b80601f01602080910402602001604051908101604052809291908181526020018280546105df9061213b565b801561062c5780601f106106015761010080835404028352916020019161062c565b820191906000526020600020905b81548152906001019060200180831161060f57829003601f168201915b5050505050905090565b6000818152600260205260408120546001600160a01b03166106b45760405162461bcd60e51b815260206004820152602c60248201527f4552433732313a20617070726f76656420717565727920666f72206e6f6e657860448201526b34b9ba32b73a103a37b5b2b760a11b60648201526084015b60405180910390fd5b506000908152600460205260409020546001600160a01b031690565b60006106db826109b6565b9050806001600160a01b0316836001600160a01b031614156107495760405162461bcd60e51b815260206004820152602160248201527f4552433732313a20617070726f76616c20746f2063757272656e74206f776e656044820152603960f91b60648201526084016106ab565b336001600160a01b03821614806107655750610765813361052b565b6107d75760405162461bcd60e51b815260206004820152603860248201527f4552433732313a20617070726f76652063616c6c6572206973206e6f74206f7760448201527f6e6572206e6f7220617070726f76656420666f7220616c6c000000000000000060648201526084016106ab565b6107e18383611167565b505050565b6107f033826111d5565b61080c5760405162461bcd60e51b81526004016106ab9061205c565b6107e18383836112cc565b600061082283610af8565b82106108845760405162461bcd60e51b815260206004820152602b60248201527f455243373231456e756d657261626c653a206f776e657220696e646578206f7560448201526a74206f6620626f756e647360a81b60648201526084016106ab565b506001600160a01b03919091166000908152600660209081526040808320938352929052205490565b6107e183838360405180602001604052806000815250610f5d565b6108d181611477565b50565b60006108df60085490565b82106109425760405162461bcd60e51b815260206004820152602c60248201527f455243373231456e756d657261626c653a20676c6f62616c20696e646578206f60448201526b7574206f6620626f756e647360a01b60648201526084016106ab565b6008828154811061096357634e487b7160e01b600052603260045260246000fd5b90600052602060002001549050919050565b600a546001600160a01b0316331461099f5760405162461bcd60e51b81526004016106ab90612027565b80516109b290600f906020840190611b99565b5050565b6000818152600260205260408120546001600160a01b03168061059e5760405162461bcd60e51b815260206004820152602960248201527f4552433732313a206f776e657220717565727920666f72206e6f6e657869737460448201526832b73a103a37b5b2b760b91b60648201526084016106ab565b600a546001600160a01b03163314610a575760405162461bcd60e51b81526004016106ab90612027565b6010805460ff1916911515919091179055565b600f8054610a779061213b565b80601f0160208091040260200160405190810160405280929190818152602001828054610aa39061213b565b8015610af05780601f10610ac557610100808354040283529160200191610af0565b820191906000526020600020905b815481529060010190602001808311610ad357829003601f168201915b505050505081565b60006001600160a01b038216610b635760405162461bcd60e51b815260206004820152602a60248201527f4552433732313a2062616c616e636520717565727920666f7220746865207a65604482015269726f206164647265737360b01b60648201526084016106ab565b506001600160a01b031660009081526003602052604090205490565b600a546001600160a01b03163314610ba95760405162461bcd60e51b81526004016106ab90612027565b610bb3600061151e565b565b60606000610bc283610af8565b905060008167ffffffffffffffff811115610bed57634e487b7160e01b600052604160045260246000fd5b604051908082528060200260200182016040528015610c16578160200160208202803683370190505b50905060005b82811015610c6b57610c2e8582610817565b828281518110610c4e57634e487b7160e01b600052603260045260246000fd5b602090810291909101015280610c6381612176565b915050610c1c565b509392505050565b6060600180546105b39061213b565b60105460ff16610cc25760405162461bcd60e51b815260206004820152600b60248201526a1b9bdd081cdd185c9d195960aa1b60448201526064016106ab565b600081118015610cd45750600d548111155b610d205760405162461bcd60e51b815260206004820152601d60248201527f6d757374206d696e7420666577657220696e206561636820626174636800000060448201526064016106ab565b600c5481600b54610d3191906120ad565b1115610d755760405162461bcd60e51b81526020600482015260136024820152726d617820737570706c7920726561636865642160681b60448201526064016106ab565b600e54610d8290826120d9565b3414610dd05760405162461bcd60e51b815260206004820181905260248201527f76616c7565206572726f722c20706c6561736520636865636b2070726963652e60448201526064016106ab565b600a546040516001600160a01b03909116903480156108fc02916000818181858888f19350505050158015610e09573d6000803e3d6000fd5b50600b5433907f29721fbd2a142fde89ceaaf37f6926b58f4b25c6f3c6626a9a6b12591735f8ff90610e3c9060016120ad565b60408051918252602082018590520160405180910390a260005b818110156109b257610e8633600b8054906000610e7283612176565b90915550610e819060016120ad565b611570565b80610e9081612176565b915050610e56565b6001600160a01b038216331415610ef15760405162461bcd60e51b815260206004820152601960248201527f4552433732313a20617070726f766520746f2063616c6c65720000000000000060448201526064016106ab565b3360008181526005602090815260408083206001600160a01b03871680855290835292819020805460ff191686151590811790915590519081529192917f17307eab39ab6107e8899845ad3d59bd9653f200f220920489ca2b5937696c31910160405180910390a35050565b610f6733836111d5565b610f835760405162461bcd60e51b81526004016106ab9061205c565b610f8f848484846116be565b50505050565b6000818152600260205260409020546060906001600160a01b03166110155760405162461bcd60e51b815260206004820152603060248201527f4552433732314d657461646174613a2055524920717565727920666f72206e6f60448201526f3732bc34b9ba32b73a103a37b5b2b71760811b60648201526084016106ab565b600061101f6116f1565b9050600081511161104d5760405180604001604052806005815260200164173539b7b760d91b815250611078565b8061105784611700565b604051602001611068929190611f02565b6040516020818303038152906040525b9392505050565b600a546001600160a01b031633146110a95760405162461bcd60e51b81526004016106ab90612027565b6001600160a01b03811661110e5760405162461bcd60e51b815260206004820152602660248201527f4f776e61626c653a206e6577206f776e657220697320746865207a65726f206160448201526564647265737360d01b60648201526084016106ab565b6108d18161151e565b60006001600160e01b031982166380ac58cd60e01b148061114857506001600160e01b03198216635b5e139f60e01b145b8061059e57506301ffc9a760e01b6001600160e01b031983161461059e565b600081815260046020526040902080546001600160a01b0319166001600160a01b038416908117909155819061119c826109b6565b6001600160a01b03167f8c5be1e5ebec7d5bd14f71427d1e84f3dd0314c0f7b2291e5b200ac8c7c3b92560405160405180910390a45050565b6000818152600260205260408120546001600160a01b031661124e5760405162461bcd60e51b815260206004820152602c60248201527f4552433732313a206f70657261746f7220717565727920666f72206e6f6e657860448201526b34b9ba32b73a103a37b5b2b760a11b60648201526084016106ab565b6000611259836109b6565b9050806001600160a01b0316846001600160a01b031614806112945750836001600160a01b031661128984610636565b6001600160a01b0316145b806112c457506001600160a01b0380821660009081526005602090815260408083209388168352929052205460ff165b949350505050565b826001600160a01b03166112df826109b6565b6001600160a01b0316146113475760405162461bcd60e51b815260206004820152602960248201527f4552433732313a207472616e73666572206f6620746f6b656e2074686174206960448201526839903737ba1037bbb760b91b60648201526084016106ab565b6001600160a01b0382166113a95760405162461bcd60e51b8152602060048201526024808201527f4552433732313a207472616e7366657220746f20746865207a65726f206164646044820152637265737360e01b60648201526084016106ab565b6113b483838361181a565b6113bf600082611167565b6001600160a01b03831660009081526003602052604081208054600192906113e89084906120f8565b90915550506001600160a01b03821660009081526003602052604081208054600192906114169084906120ad565b909155505060008181526002602052604080822080546001600160a01b0319166001600160a01b0386811691821790925591518493918716917fddf252ad1be2c89b69c2b068fc378daa952ba7f163c4a11628f55a4df523b3ef91a4505050565b6000611482826109b6565b90506114908160008461181a565b61149b600083611167565b6001600160a01b03811660009081526003602052604081208054600192906114c49084906120f8565b909155505060008281526002602052604080822080546001600160a01b0319169055518391906001600160a01b038416907fddf252ad1be2c89b69c2b068fc378daa952ba7f163c4a11628f55a4df523b3ef908390a45050565b600a80546001600160a01b038381166001600160a01b0319831681179093556040519116919082907f8be0079c531659141344cd1fd0a4f28419497f9722a3daafe3b4186f6b6457e090600090a35050565b6001600160a01b0382166115c65760405162461bcd60e51b815260206004820181905260248201527f4552433732313a206d696e7420746f20746865207a65726f206164647265737360448201526064016106ab565b6000818152600260205260409020546001600160a01b03161561162b5760405162461bcd60e51b815260206004820152601c60248201527f4552433732313a20746f6b656e20616c7265616479206d696e7465640000000060448201526064016106ab565b6116376000838361181a565b6001600160a01b03821660009081526003602052604081208054600192906116609084906120ad565b909155505060008181526002602052604080822080546001600160a01b0319166001600160a01b03861690811790915590518392907fddf252ad1be2c89b69c2b068fc378daa952ba7f163c4a11628f55a4df523b3ef908290a45050565b6116c98484846112cc565b6116d5848484846118d2565b610f8f5760405162461bcd60e51b81526004016106ab90611fd5565b6060600f80546105b39061213b565b6060816117245750506040805180820190915260018152600360fc1b602082015290565b8160005b811561174e578061173881612176565b91506117479050600a836120c5565b9150611728565b60008167ffffffffffffffff81111561177757634e487b7160e01b600052604160045260246000fd5b6040519080825280601f01601f1916602001820160405280156117a1576020820181803683370190505b5090505b84156112c4576117b66001836120f8565b91506117c3600a86612191565b6117ce9060306120ad565b60f81b8183815181106117f157634e487b7160e01b600052603260045260246000fd5b60200101906001600160f81b031916908160001a905350611813600a866120c5565b94506117a5565b6001600160a01b0383166118755761187081600880546000838152600960205260408120829055600182018355919091527ff3f7a9fe364faab93b216da50a3214154f22a0a2b415b23a84c8169e8b636ee30155565b611898565b816001600160a01b0316836001600160a01b0316146118985761189883826119df565b6001600160a01b0382166118af576107e181611a7c565b826001600160a01b0316826001600160a01b0316146107e1576107e18282611b55565b60006001600160a01b0384163b156119d457604051630a85bd0160e11b81526001600160a01b0385169063150b7a0290611916903390899088908890600401611f41565b602060405180830381600087803b15801561193057600080fd5b505af1925050508015611960575060408051601f3d908101601f1916820190925261195d91810190611e5c565b60015b6119ba573d80801561198e576040519150601f19603f3d011682016040523d82523d6000602084013e611993565b606091505b5080516119b25760405162461bcd60e51b81526004016106ab90611fd5565b805181602001fd5b6001600160e01b031916630a85bd0160e11b1490506112c4565b506001949350505050565b600060016119ec84610af8565b6119f691906120f8565b600083815260076020526040902054909150808214611a49576001600160a01b03841660009081526006602090815260408083208584528252808320548484528184208190558352600790915290208190555b5060009182526007602090815260408084208490556001600160a01b039094168352600681528383209183525290812055565b600854600090611a8e906001906120f8565b60008381526009602052604081205460088054939450909284908110611ac457634e487b7160e01b600052603260045260246000fd5b906000526020600020015490508060088381548110611af357634e487b7160e01b600052603260045260246000fd5b6000918252602080832090910192909255828152600990915260408082208490558582528120556008805480611b3957634e487b7160e01b600052603160045260246000fd5b6001900381819060005260206000200160009055905550505050565b6000611b6083610af8565b6001600160a01b039093166000908152600660209081526040808320868452825280832085905593825260079052919091209190915550565b828054611ba59061213b565b90600052602060002090601f016020900481019282611bc75760008555611c0d565b82601f10611be057805160ff1916838001178555611c0d565b82800160010185558215611c0d579182015b82811115611c0d578251825591602001919060010190611bf2565b50611c19929150611c1d565b5090565b5b80821115611c195760008155600101611c1e565b600067ffffffffffffffff80841115611c4d57611c4d6121d1565b604051601f8501601f19908116603f01168101908282118183101715611c7557611c756121d1565b81604052809350858152868686011115611c8e57600080fd5b858560208301376000602087830101525050509392505050565b80356001600160a01b0381168114611cbf57600080fd5b919050565b80358015158114611cbf57600080fd5b600060208284031215611ce5578081fd5b61107882611ca8565b60008060408385031215611d00578081fd5b611d0983611ca8565b9150611d1760208401611ca8565b90509250929050565b600080600060608486031215611d34578081fd5b611d3d84611ca8565b9250611d4b60208501611ca8565b9150604084013590509250925092565b60008060008060808587031215611d70578081fd5b611d7985611ca8565b9350611d8760208601611ca8565b925060408501359150606085013567ffffffffffffffff811115611da9578182fd5b8501601f81018713611db9578182fd5b611dc887823560208401611c32565b91505092959194509250565b60008060408385031215611de6578182fd5b611def83611ca8565b9150611d1760208401611cc4565b60008060408385031215611e0f578182fd5b611e1883611ca8565b946020939093013593505050565b600060208284031215611e37578081fd5b61107882611cc4565b600060208284031215611e51578081fd5b8135611078816121e7565b600060208284031215611e6d578081fd5b8151611078816121e7565b600060208284031215611e89578081fd5b813567ffffffffffffffff811115611e9f578182fd5b8201601f81018413611eaf578182fd5b6112c484823560208401611c32565b600060208284031215611ecf578081fd5b5035919050565b60008151808452611eee81602086016020860161210f565b601f01601f19169290920160200192915050565b60008351611f1481846020880161210f565b835190830190611f2881836020880161210f565b64173539b7b760d91b9101908152600501949350505050565b6001600160a01b0385811682528416602082015260408101839052608060608201819052600090611f7490830184611ed6565b9695505050505050565b6020808252825182820181905260009190848201906040850190845b81811015611fb657835183529284019291840191600101611f9a565b50909695505050505050565b6020815260006110786020830184611ed6565b60208082526032908201527f4552433732313a207472616e7366657220746f206e6f6e20455243373231526560408201527131b2b4bb32b91034b6b83632b6b2b73a32b960711b606082015260800190565b6020808252818101527f4f776e61626c653a2063616c6c6572206973206e6f7420746865206f776e6572604082015260600190565b60208082526031908201527f4552433732313a207472616e736665722063616c6c6572206973206e6f74206f6040820152701ddb995c881b9bdc88185c1c1c9bdd9959607a1b606082015260800190565b600082198211156120c0576120c06121a5565b500190565b6000826120d4576120d46121bb565b500490565b60008160001904831182151516156120f3576120f36121a5565b500290565b60008282101561210a5761210a6121a5565b500390565b60005b8381101561212a578181015183820152602001612112565b83811115610f8f5750506000910152565b600181811c9082168061214f57607f821691505b6020821081141561217057634e487b7160e01b600052602260045260246000fd5b50919050565b600060001982141561218a5761218a6121a5565b5060010190565b6000826121a0576121a06121bb565b500690565b634e487b7160e01b600052601160045260246000fd5b634e487b7160e01b600052601260045260246000fd5b634e487b7160e01b600052604160045260246000fd5b6001600160e01b0319811681146108d157600080fdfea264697066735822122098dacb6fbf57d1c88814e38a054dae8a427e1b7deb92b72477779d999aede17c64736f6c63430008040033",
  "linkReferences": {},
  "deployedLinkReferences": {}
}