{
  "_format": "hh-sol-artifact-1",
  "contractName": "SerumStaking",
  "sourceName": "contracts/SerumStaking.sol",
  "abi": [
    {
      "inputs": [
        {
          "internalType": "string",
          "name": "_baseURI",
          "type": "string"
        }
      ],
      "stateMutability": "nonpayable",
      "type": "constructor"
    },
    {
      "anonymous": false,
      "inputs": [
        {
          "indexed": true,
          "internalType": "address",
          "name": "account",
          "type": "address"
        },
        {
          "indexed": true,
          "internalType": "address",
          "name": "operator",
          "type": "address"
        },
        {
          "indexed": false,
          "internalType": "bool",
          "name": "approved",
          "type": "bool"
        }
      ],
      "name": "ApprovalForAll",
      "type": "event"
    },
    {
      "anonymous": false,
      "inputs": [
        {
          "indexed": true,
          "internalType": "address",
          "name": "previousOwner",
          "type": "address"
        },
        {
          "indexed": true,
          "internalType": "address",
          "name": "newOwner",
          "type": "address"
        }
      ],
      "name": "OwnershipTransferred",
      "type": "event"
    },
    {
      "anonymous": false,
      "inputs": [
        {
          "indexed": false,
          "internalType": "address",
          "name": "account",
          "type": "address"
        }
      ],
      "name": "Paused",
      "type": "event"
    },
    {
      "anonymous": false,
      "inputs": [
        {
          "indexed": true,
          "internalType": "address",
          "name": "operator",
          "type": "address"
        },
        {
          "indexed": true,
          "internalType": "address",
          "name": "from",
          "type": "address"
        },
        {
          "indexed": true,
          "internalType": "address",
          "name": "to",
          "type": "address"
        },
        {
          "indexed": false,
          "internalType": "uint256[]",
          "name": "ids",
          "type": "uint256[]"
        },
        {
          "indexed": false,
          "internalType": "uint256[]",
          "name": "values",
          "type": "uint256[]"
        }
      ],
      "name": "TransferBatch",
      "type": "event"
    },
    {
      "anonymous": false,
      "inputs": [
        {
          "indexed": true,
          "internalType": "address",
          "name": "operator",
          "type": "address"
        },
        {
          "indexed": true,
          "internalType": "address",
          "name": "from",
          "type": "address"
        },
        {
          "indexed": true,
          "internalType": "address",
          "name": "to",
          "type": "address"
        },
        {
          "indexed": false,
          "internalType": "uint256",
          "name": "id",
          "type": "uint256"
        },
        {
          "indexed": false,
          "internalType": "uint256",
          "name": "value",
          "type": "uint256"
        }
      ],
      "name": "TransferSingle",
      "type": "event"
    },
    {
      "anonymous": false,
      "inputs": [
        {
          "indexed": false,
          "internalType": "string",
          "name": "value",
          "type": "string"
        },
        {
          "indexed": true,
          "internalType": "uint256",
          "name": "id",
          "type": "uint256"
        }
      ],
      "name": "URI",
      "type": "event"
    },
    {
      "anonymous": false,
      "inputs": [
        {
          "indexed": false,
          "internalType": "address",
          "name": "account",
          "type": "address"
        }
      ],
      "name": "Unpaused",
      "type": "event"
    },
    {
      "inputs": [],
      "name": "SERUM",
      "outputs": [
        {
          "internalType": "uint256",
          "name": "",
          "type": "uint256"
        }
      ],
      "stateMutability": "view",
      "type": "function"
    },
    {
      "inputs": [
        {
          "internalType": "uint256",
          "name": "",
          "type": "uint256"
        }
      ],
      "name": "_tokenRewards",
      "outputs": [
        {
          "internalType": "uint256",
          "name": "startTime",
          "type": "uint256"
        },
        {
          "internalType": "uint256",
          "name": "fishDeposited",
          "type": "uint256"
        }
      ],
      "stateMutability": "view",
      "type": "function"
    },
    {
      "inputs": [
        {
          "internalType": "address",
          "name": "account",
          "type": "address"
        },
        {
          "internalType": "uint256",
          "name": "id",
          "type": "uint256"
        }
      ],
      "name": "balanceOf",
      "outputs": [
        {
          "internalType": "uint256",
          "name": "",
          "type": "uint256"
        }
      ],
      "stateMutability": "view",
      "type": "function"
    },
    {
      "inputs": [
        {
          "internalType": "address[]",
          "name": "accounts",
          "type": "address[]"
        },
        {
          "internalType": "uint256[]",
          "name": "ids",
          "type": "uint256[]"
        }
      ],
      "name": "balanceOfBatch",
      "outputs": [
        {
          "internalType": "uint256[]",
          "name": "",
          "type": "uint256[]"
        }
      ],
      "stateMutability": "view",
      "type": "function"
    },
    {
      "inputs": [
        {
          "internalType": "address",
          "name": "from",
          "type": "address"
        },
        {
          "internalType": "uint256",
          "name": "id",
          "type": "uint256"
        },
        {
          "internalType": "uint256",
          "name": "amount",
          "type": "uint256"
        }
      ],
      "name": "burn",
      "outputs": [],
      "stateMutability": "nonpayable",
      "type": "function"
    },
    {
      "inputs": [],
      "name": "claimSerum",
      "outputs": [],
      "stateMutability": "nonpayable",
      "type": "function"
    },
    {
      "inputs": [
        {
          "internalType": "uint256[]",
          "name": "tokenIds",
          "type": "uint256[]"
        }
      ],
      "name": "deposit",
      "outputs": [],
      "stateMutability": "nonpayable",
      "type": "function"
    },
    {
      "inputs": [
        {
          "internalType": "address",
          "name": "account",
          "type": "address"
        }
      ],
      "name": "depositsOf",
      "outputs": [
        {
          "internalType": "uint256[]",
          "name": "",
          "type": "uint256[]"
        }
      ],
      "stateMutability": "view",
      "type": "function"
    },
    {
      "inputs": [],
      "name": "erc20Token",
      "outputs": [
        {
          "internalType": "contract IERC20",
          "name": "",
          "type": "address"
        }
      ],
      "stateMutability": "view",
      "type": "function"
    },
    {
      "inputs": [],
      "name": "erc721Token",
      "outputs": [
        {
          "internalType": "contract IERC721Enumerable",
          "name": "",
          "type": "address"
        }
      ],
      "stateMutability": "view",
      "type": "function"
    },
    {
      "inputs": [],
      "name": "expiration",
      "outputs": [
        {
          "internalType": "uint256",
          "name": "",
          "type": "uint256"
        }
      ],
      "stateMutability": "view",
      "type": "function"
    },
    {
      "inputs": [
        {
          "internalType": "uint256",
          "name": "tokenId",
          "type": "uint256"
        },
        {
          "internalType": "uint256",
          "name": "fishAmt",
          "type": "uint256"
        }
      ],
      "name": "feedGorilla",
      "outputs": [],
      "stateMutability": "nonpayable",
      "type": "function"
    },
    {
      "inputs": [],
      "name": "fishFor100Boost",
      "outputs": [
        {
          "internalType": "uint256",
          "name": "",
          "type": "uint256"
        }
      ],
      "stateMutability": "view",
      "type": "function"
    },
    {
      "inputs": [],
      "name": "fishFor25Boost",
      "outputs": [
        {
          "internalType": "uint256",
          "name": "",
          "type": "uint256"
        }
      ],
      "stateMutability": "view",
      "type": "function"
    },
    {
      "inputs": [],
      "name": "fishFor50Boost",
      "outputs": [
        {
          "internalType": "uint256",
          "name": "",
          "type": "uint256"
        }
      ],
      "stateMutability": "view",
      "type": "function"
    },
    {
      "inputs": [
        {
          "internalType": "address",
          "name": "addr",
          "type": "address"
        }
      ],
      "name": "getClaimableSerumAmt",
      "outputs": [
        {
          "internalType": "uint256",
          "name": "numRewards",
          "type": "uint256"
        }
      ],
      "stateMutability": "view",
      "type": "function"
    },
    {
      "inputs": [
        {
          "internalType": "address",
          "name": "account",
          "type": "address"
        },
        {
          "internalType": "address",
          "name": "operator",
          "type": "address"
        }
      ],
      "name": "isApprovedForAll",
      "outputs": [
        {
          "internalType": "bool",
          "name": "",
          "type": "bool"
        }
      ],
      "stateMutability": "view",
      "type": "function"
    },
    {
      "inputs": [
        {
          "internalType": "address",
          "name": "",
          "type": "address"
        },
        {
          "internalType": "address",
          "name": "",
          "type": "address"
        },
        {
          "internalType": "uint256",
          "name": "",
          "type": "uint256"
        },
        {
          "internalType": "bytes",
          "name": "",
          "type": "bytes"
        }
      ],
      "name": "onERC721Received",
      "outputs": [
        {
          "internalType": "bytes4",
          "name": "",
          "type": "bytes4"
        }
      ],
      "stateMutability": "pure",
      "type": "function"
    },
    {
      "inputs": [],
      "name": "owner",
      "outputs": [
        {
          "internalType": "address",
          "name": "",
          "type": "address"
        }
      ],
      "stateMutability": "view",
      "type": "function"
    },
    {
      "inputs": [],
      "name": "pause",
      "outputs": [],
      "stateMutability": "nonpayable",
      "type": "function"
    },
    {
      "inputs": [],
      "name": "pauseRewards",
      "outputs": [
        {
          "internalType": "bool",
          "name": "",
          "type": "bool"
        }
      ],
      "stateMutability": "view",
      "type": "function"
    },
    {
      "inputs": [],
      "name": "paused",
      "outputs": [
        {
          "internalType": "bool",
          "name": "",
          "type": "bool"
        }
      ],
      "stateMutability": "view",
      "type": "function"
    },
    {
      "inputs": [],
      "name": "rate",
      "outputs": [
        {
          "internalType": "uint256",
          "name": "",
          "type": "uint256"
        }
      ],
      "stateMutability": "view",
      "type": "function"
    },
    {
      "inputs": [],
      "name": "renounceOwnership",
      "outputs": [],
      "stateMutability": "nonpayable",
      "type": "function"
    },
    {
      "inputs": [
        {
          "internalType": "address",
          "name": "from",
          "type": "address"
        },
        {
          "internalType": "address",
          "name": "to",
          "type": "address"
        },
        {
          "internalType": "uint256[]",
          "name": "ids",
          "type": "uint256[]"
        },
        {
          "internalType": "uint256[]",
          "name": "amounts",
          "type": "uint256[]"
        },
        {
          "internalType": "bytes",
          "name": "data",
          "type": "bytes"
        }
      ],
      "name": "safeBatchTransferFrom",
      "outputs": [],
      "stateMutability": "nonpayable",
      "type": "function"
    },
    {
      "inputs": [
        {
          "internalType": "address",
          "name": "from",
          "type": "address"
        },
        {
          "internalType": "address",
          "name": "to",
          "type": "address"
        },
        {
          "internalType": "uint256",
          "name": "id",
          "type": "uint256"
        },
        {
          "internalType": "uint256",
          "name": "amount",
          "type": "uint256"
        },
        {
          "internalType": "bytes",
          "name": "data",
          "type": "bytes"
        }
      ],
      "name": "safeTransferFrom",
      "outputs": [],
      "stateMutability": "nonpayable",
      "type": "function"
    },
    {
      "inputs": [
        {
          "internalType": "address",
          "name": "operator",
          "type": "address"
        },
        {
          "internalType": "bool",
          "name": "approved",
          "type": "bool"
        }
      ],
      "name": "setApprovalForAll",
      "outputs": [],
      "stateMutability": "nonpayable",
      "type": "function"
    },
    {
      "inputs": [
        {
          "internalType": "address",
          "name": "erc721Address",
          "type": "address"
        },
        {
          "internalType": "address",
          "name": "erc20Address",
          "type": "address"
        }
      ],
      "name": "setContracts",
      "outputs": [],
      "stateMutability": "nonpayable",
      "type": "function"
    },
    {
      "inputs": [
        {
          "internalType": "uint256",
          "name": "boost25",
          "type": "uint256"
        },
        {
          "internalType": "uint256",
          "name": "boost50",
          "type": "uint256"
        },
        {
          "internalType": "uint256",
          "name": "boost100",
          "type": "uint256"
        }
      ],
      "name": "setFishBoostAmts",
      "outputs": [],
      "stateMutability": "nonpayable",
      "type": "function"
    },
    {
      "inputs": [
        {
          "internalType": "string",
          "name": "newuri",
          "type": "string"
        }
      ],
      "name": "setURI",
      "outputs": [],
      "stateMutability": "nonpayable",
      "type": "function"
    },
    {
      "inputs": [
        {
          "internalType": "bytes4",
          "name": "interfaceId",
          "type": "bytes4"
        }
      ],
      "name": "supportsInterface",
      "outputs": [
        {
          "internalType": "bool",
          "name": "",
          "type": "bool"
        }
      ],
      "stateMutability": "view",
      "type": "function"
    },
    {
      "inputs": [],
      "name": "timeToStakeForReward",
      "outputs": [
        {
          "internalType": "uint256",
          "name": "",
          "type": "uint256"
        }
      ],
      "stateMutability": "view",
      "type": "function"
    },
    {
      "inputs": [],
      "name": "togglePauseRewards",
      "outputs": [],
      "stateMutability": "nonpayable",
      "type": "function"
    },
    {
      "inputs": [
        {
          "internalType": "address",
          "name": "newOwner",
          "type": "address"
        }
      ],
      "name": "transferOwnership",
      "outputs": [],
      "stateMutability": "nonpayable",
      "type": "function"
    },
    {
      "inputs": [],
      "name": "unpause",
      "outputs": [],
      "stateMutability": "nonpayable",
      "type": "function"
    },
    {
      "inputs": [
        {
          "internalType": "uint256",
          "name": "typeId",
          "type": "uint256"
        }
      ],
      "name": "uri",
      "outputs": [
        {
          "internalType": "string",
          "name": "",
          "type": "string"
        }
      ],
      "stateMutability": "view",
      "type": "function"
    },
    {
      "inputs": [
        {
          "internalType": "uint256[]",
          "name": "tokenIds",
          "type": "uint256[]"
        }
      ],
      "name": "withdraw",
      "outputs": [],
      "stateMutability": "nonpayable",
      "type": "function"
    },
    {
      "inputs": [],
      "name": "withdrawSerum",
      "outputs": [],
      "stateMutability": "nonpayable",
      "type": "function"
    },
    {
      "inputs": [],
      "name": "withdrawTokens",
      "outputs": [],
      "stateMutability": "nonpayable",
      "type": "function"
    }
  ],
  "bytecode": "0x6080604052678ac7230489e8000060085568015af1d78b58c400006009556802b5e3af16b1880000600a5560a9600b553480156200003c57600080fd5b5060405162003469380380620034698339810160408190526200005f916200025c565b806200006b81620000ad565b506200007733620000c6565b60016004556005805460ff1916905580516200009b906007906020840190620001b6565b50620000a662000118565b5062000385565b8051620000c2906007906020840190620001b6565b5050565b600380546001600160a01b038381166001600160a01b0319831681179093556040519116919082907f8be0079c531659141344cd1fd0a4f28419497f9722a3daafe3b4186f6b6457e090600090a35050565b60055460ff1615620001635760405162461bcd60e51b815260206004820152601060248201526f14185d5cd8589b194e881c185d5cd95960821b604482015260640160405180910390fd5b6005805460ff191660011790557f62e78cea01bee320cd4e420270b5ea74000d11b0c9f74754ebdbfc544b05a258620001993390565b6040516001600160a01b03909116815260200160405180910390a1565b828054620001c49062000332565b90600052602060002090601f016020900481019282620001e8576000855562000233565b82601f106200020357805160ff191683800117855562000233565b8280016001018555821562000233579182015b828111156200023357825182559160200191906001019062000216565b506200024192915062000245565b5090565b5b8082111562000241576000815560010162000246565b600060208083850312156200026f578182fd5b82516001600160401b038082111562000286578384fd5b818501915085601f8301126200029a578384fd5b815181811115620002af57620002af6200036f565b604051601f8201601f19908116603f01168101908382118183101715620002da57620002da6200036f565b816040528281528886848701011115620002f2578687fd5b8693505b82841015620003155784840186015181850187015292850192620002f6565b828411156200032657868684830101525b98975050505050505050565b600181811c908216806200034757607f821691505b602082108114156200036957634e487b7160e01b600052602260045260246000fd5b50919050565b634e487b7160e01b600052604160045260246000fd5b6130d480620003956000396000f3fe608060405234801561001057600080fd5b506004361061023c5760003560e01c8063715018a61161013b578063c8741ab5116100b8578063f242432a1161007c578063f242432a1461050b578063f2fde38b1461051e578063f3873c5614610531578063f5298aca14610539578063f63ca8481461054c57600080fd5b8063c8741ab51461048d578063d8952a4914610496578063e3a9db1a146104a9578063e3c4dd6b146104bc578063e985e9c5146104cf57600080fd5b80638ff903b1116100ff5780638ff903b114610443578063983d95ce14610456578063a22cb46514610469578063a58407a21461047c578063a9ab4a3c1461048557600080fd5b8063715018a6146104075780638456cb591461040f5780638a13eea7146104175780638d8f2adb1461042a5780638da5cb5b1461043257600080fd5b80632eb2c2d6116101c95780634e1273f41161018d5780634e1273f4146103905780634e2e0f26146103b0578063598b8e71146103b95780635c975abb146103cc5780635f2d6bcd146103d757600080fd5b80632eb2c2d61461031d578063395855e3146103305780633f36afc61461036c5780633f4ba83a1461037f5780634665096d1461038757600080fd5b80630e89341c116102105780630e89341c146102ac578063150b7a02146102cc578063219ca16014610304578063268269951461030c5780632c4e722e1461031457600080fd5b8062fdd58e1461024157806301ffc9a71461026757806302fe53051461028a57806304a96d171461029f575b600080fd5b61025461024f366004612851565b610555565b6040519081526020015b60405180910390f35b61027a610275366004612a01565b6105ef565b604051901515815260200161025e565b61029d610298366004612a39565b61063f565b005b600e5461027a9060ff1681565b6102bf6102ba366004612a7e565b610675565b60405161025e9190612cfd565b6102eb6102da366004612724565b630a85bd0160e11b95945050505050565b6040516001600160e01b0319909116815260200161025e565b61029d61078e565b610254600181565b610254600d5481565b61029d61032b36600461267f565b6107cc565b61035761033e366004612a7e565b6010602052600090815260409020805460019091015482565b6040805192835260208301919091520161025e565b61029d61037a366004612acf565b610863565b61029d61089b565b610254600c5481565b6103a361039e3660046128ac565b6108cf565b60405161025e9190612cc5565b610254600a5481565b61029d6103c7366004612976565b610a30565b60055460ff1661027a565b6005546103ef9061010090046001600160a01b031681565b6040516001600160a01b03909116815260200161025e565b61029d610c12565b61029d610c46565b6006546103ef906001600160a01b031681565b61029d610c78565b6003546001600160a01b03166103ef565b61029d610451366004612aae565b610dec565b61029d610464366004612976565b610eaa565b61029d61047736600461281b565b6110fa565b610254600b5481565b61029d6111d1565b61025460085481565b61029d6104a436600461264d565b6113fe565b6103a36104b7366004612633565b611460565b6102546104ca366004612633565b61152f565b61027a6104dd36600461264d565b6001600160a01b03918216600090815260016020908152604080832093909416825291909152205460ff1690565b61029d6105193660046127b9565b61163f565b61029d61052c366004612633565b6116c6565b61029d61175e565b61029d61054736600461287a565b6117f9565b61025460095481565b60006001600160a01b0383166105c65760405162461bcd60e51b815260206004820152602b60248201527f455243313135353a2062616c616e636520717565727920666f7220746865207a60448201526a65726f206164647265737360a81b60648201526084015b60405180910390fd5b506000818152602081815260408083206001600160a01b03861684529091529020545b92915050565b60006001600160e01b03198216636cdb3d1360e11b148061062057506001600160e01b031982166303a24d0760e21b145b806105e957506301ffc9a760e01b6001600160e01b03198316146105e9565b6003546001600160a01b031633146106695760405162461bcd60e51b81526004016105bd90612e3c565b61067281611804565b50565b6060600182146106b65760405162461bcd60e51b815260206004820152600c60248201526b696e76616c6964207479706560a01b60448201526064016105bd565b6000600780546106c590612f07565b90501161075c57600780546106d990612f07565b80601f016020809104026020016040519081016040528092919081815260200182805461070590612f07565b80156107525780601f1061072757610100808354040283529160200191610752565b820191906000526020600020905b81548152906001019060200180831161073557829003601f168201915b50505050506105e9565b60076107686001611817565b604051602001610779929190612b7c565b60405160208183030381529060405292915050565b6003546001600160a01b031633146107b85760405162461bcd60e51b81526004016105bd90612e3c565b600e805460ff19811660ff90911615179055565b6001600160a01b0385163314806107e857506107e885336104dd565b61084f5760405162461bcd60e51b815260206004820152603260248201527f455243313135353a207472616e736665722063616c6c6572206973206e6f74206044820152711bdddb995c881b9bdc88185c1c1c9bdd995960721b60648201526084016105bd565b61085c8585858585611938565b5050505050565b6003546001600160a01b0316331461088d5760405162461bcd60e51b81526004016105bd90612e3c565b600892909255600955600a55565b6003546001600160a01b031633146108c55760405162461bcd60e51b81526004016105bd90612e3c565b6108cd611b31565b565b606081518351146109345760405162461bcd60e51b815260206004820152602960248201527f455243313135353a206163636f756e747320616e6420696473206c656e677468604482015268040dad2e6dac2e8c6d60bb1b60648201526084016105bd565b600083516001600160401b0381111561095d57634e487b7160e01b600052604160045260246000fd5b604051908082528060200260200182016040528015610986578160200160208202803683370190505b50905060005b8451811015610a28576109ed8582815181106109b857634e487b7160e01b600052603260045260246000fd5b60200260200101518583815181106109e057634e487b7160e01b600052603260045260246000fd5b6020026020010151610555565b828281518110610a0d57634e487b7160e01b600052603260045260246000fd5b6020908102919091010152610a2181612f68565b905061098c565b509392505050565b6006546001600160a01b031615801590610a59575060055461010090046001600160a01b031615155b610a755760405162461bcd60e51b81526004016105bd90612d58565b60055460ff1615610a985760405162461bcd60e51b81526004016105bd90612d83565b60005b81811015610c0d5760055461010090046001600160a01b031663b88d4fde3330868686818110610adb57634e487b7160e01b600052603260045260246000fd5b6040516001600160e01b031960e088901b1681526001600160a01b03958616600482015294909316602485015250602090910201356044820152608060648201526000608482015260a401600060405180830381600087803b158015610b4057600080fd5b505af1158015610b54573d6000803e3d6000fd5b50505050610b99838383818110610b7b57634e487b7160e01b600052603260045260246000fd5b336000908152600f6020908152604090912093910201359050611bc4565b506040518060400160405280428152602001600081525060106000858585818110610bd457634e487b7160e01b600052603260045260246000fd5b60209081029290920135835250818101929092526040016000208251815591015160019091015580610c0581612f68565b915050610a9b565b505050565b6003546001600160a01b03163314610c3c5760405162461bcd60e51b81526004016105bd90612e3c565b6108cd6000611bd7565b6003546001600160a01b03163314610c705760405162461bcd60e51b81526004016105bd90612e3c565b6108cd611c29565b6006546001600160a01b031615801590610ca1575060055461010090046001600160a01b031615155b610cbd5760405162461bcd60e51b81526004016105bd90612d58565b6003546001600160a01b03163314610ce75760405162461bcd60e51b81526004016105bd90612e3c565b6006546040516370a0823160e01b81523060048201526000916001600160a01b0316906370a082319060240160206040518083038186803b158015610d2b57600080fd5b505afa158015610d3f573d6000803e3d6000fd5b505050506040513d601f19601f82011682018060405250810190610d639190612a96565b60065460405163a9059cbb60e01b8152336004820152602481018390529192506001600160a01b03169063a9059cbb90604401602060405180830381600087803b158015610db057600080fd5b505af1158015610dc4573d6000803e3d6000fd5b505050506040513d601f19601f82011682018060405250810190610de891906129e5565b5050565b60008281526010602052604081206001018054839290610e0d908490612e94565b90915550506006546001600160a01b03166323b872dd336040516001600160e01b031960e084901b1681526001600160a01b03909116600482015230602482015260448101849052606401602060405180830381600087803b158015610e7257600080fd5b505af1158015610e86573d6000803e3d6000fd5b505050506040513d601f19601f82011682018060405250810190610c0d91906129e5565b6006546001600160a01b031615801590610ed3575060055461010090046001600160a01b031615155b610eef5760405162461bcd60e51b81526004016105bd90612d58565b60055460ff1615610f125760405162461bcd60e51b81526004016105bd90612d83565b60005b81811015610c0d57610f5e838383818110610f4057634e487b7160e01b600052603260045260246000fd5b336000908152600f6020908152604090912093910201359050611c81565b610faa5760405162461bcd60e51b815260206004820152601c60248201527f5374616b696e673a20746f6b656e206e6f74206465706f73697465640000000060448201526064016105bd565b610feb838383818110610fcd57634e487b7160e01b600052603260045260246000fd5b336000908152600f6020908152604090912093910201359050611c99565b506010600084848481811061101057634e487b7160e01b600052603260045260246000fd5b6020908102929092013583525081019190915260400160009081208181556001015560055461010090046001600160a01b031663b88d4fde303386868681811061106a57634e487b7160e01b600052603260045260246000fd5b6040516001600160e01b031960e088901b1681526001600160a01b03958616600482015294909316602485015250602090910201356044820152608060648201526000608482015260a401600060405180830381600087803b1580156110cf57600080fd5b505af11580156110e3573d6000803e3d6000fd5b5050505080806110f290612f68565b915050610f15565b336001600160a01b03831614156111655760405162461bcd60e51b815260206004820152602960248201527f455243313135353a2073657474696e6720617070726f76616c20737461747573604482015268103337b91039b2b63360b91b60648201526084016105bd565b3360008181526001602090815260408083206001600160a01b03871680855290835292819020805460ff191686151590811790915590519081529192917f17307eab39ab6107e8899845ad3d59bd9653f200f220920489ca2b5937696c31910160405180910390a35050565b60055460ff16156111f45760405162461bcd60e51b81526004016105bd90612d83565b600e5460ff16156112475760405162461bcd60e51b815260206004820152601960248201527f52657761726420636c61696d696e67206973207061757365640000000000000060448201526064016105bd565b6000805b336000908152600f6020526040902061126390611ca5565b81101561139d57600061129482600f83335b6001600160a01b03168152602081019190915260400160002090611caf565b6000818152601060205260408120600b54815493945090926112b69190612e94565b9050600a548260010154106112e5576002600b546112d49190612eac565b6112de9082612ec0565b905061132a565b600954826001015410611301576004600b546112d49190612eac565b60085482600101541061132a576008600b5461131d9190612eac565b6113279082612ec0565b90505b81541580159061133a5750804210155b156113875761134a600186612e94565b818355600a546001840154919650101561137f57600a548260010160008282546113749190612ec0565b909155506113879050565b600060018301555b505050808061139590612f68565b91505061124b565b50600081116113e25760405162461bcd60e51b81526020600482015260116024820152704e6f20736572756d20746f20636c61696d60781b60448201526064016105bd565b6106723360018360405180602001604052806000815250611cbb565b6003546001600160a01b031633146114285760405162461bcd60e51b81526004016105bd90612e3c565b60058054610100600160a81b0319166101006001600160a01b0394851602179055600680546001600160a01b03191691909216179055565b6001600160a01b0381166000908152600f6020526040812060609161148482611ca5565b6001600160401b038111156114a957634e487b7160e01b600052604160045260246000fd5b6040519080825280602002602001820160405280156114d2578160200160208202803683370190505b50905060005b6114e183611ca5565b811015610a28576114f28382611caf565b82828151811061151257634e487b7160e01b600052603260045260246000fd5b60209081029190910101528061152781612f68565b9150506114d8565b6000805b6001600160a01b0383166000908152600f6020526040902061155490611ca5565b81101561163957600061156a82600f8333611275565b6000818152601060205260408120600b548154939450909261158c9190612e94565b9050600a548260010154106115bb576002600b546115aa9190612eac565b6115b49082612ec0565b9050611600565b6009548260010154106115d7576004600b546115aa9190612eac565b600854826001015410611600576008600b546115f39190612eac565b6115fd9082612ec0565b90505b8154158015906116105750804210155b1561162357611620600186612e94565b94505b505050808061163190612f68565b915050611533565b50919050565b6001600160a01b03851633148061165b575061165b85336104dd565b6116b95760405162461bcd60e51b815260206004820152602960248201527f455243313135353a2063616c6c6572206973206e6f74206f776e6572206e6f7260448201526808185c1c1c9bdd995960ba1b60648201526084016105bd565b61085c8585858585611dc5565b6003546001600160a01b031633146116f05760405162461bcd60e51b81526004016105bd90612e3c565b6001600160a01b0381166117555760405162461bcd60e51b815260206004820152602660248201527f4f776e61626c653a206e6577206f776e657220697320746865207a65726f206160448201526564647265737360d01b60648201526084016105bd565b61067281611bd7565b6006546001600160a01b031615801590611787575060055461010090046001600160a01b031615155b6117a35760405162461bcd60e51b81526004016105bd90612d58565b6003546001600160a01b031633146117cd5760405162461bcd60e51b81526004016105bd90612e3c565b60006117da306001610555565b905061067230336001846040518060200160405280600081525061163f565b610c0d838383611ee2565b8051610de890600790602084019061248e565b60608161183b5750506040805180820190915260018152600360fc1b602082015290565b8160005b8115611865578061184f81612f68565b915061185e9050600a83612eac565b915061183f565b6000816001600160401b0381111561188d57634e487b7160e01b600052604160045260246000fd5b6040519080825280601f01601f1916602001820160405280156118b7576020820181803683370190505b5090505b8415611930576118cc600183612ec0565b91506118d9600a86612f83565b6118e4906030612e94565b60f81b81838151811061190757634e487b7160e01b600052603260045260246000fd5b60200101906001600160f81b031916908160001a905350611929600a86612eac565b94506118bb565b949350505050565b815183511461199a5760405162461bcd60e51b815260206004820152602860248201527f455243313135353a2069647320616e6420616d6f756e7473206c656e677468206044820152670dad2e6dac2e8c6d60c31b60648201526084016105bd565b6001600160a01b0384166119c05760405162461bcd60e51b81526004016105bd90612dad565b3360005b8451811015611ac35760008582815181106119ef57634e487b7160e01b600052603260045260246000fd5b602002602001015190506000858381518110611a1b57634e487b7160e01b600052603260045260246000fd5b602090810291909101810151600084815280835260408082206001600160a01b038e168352909352919091205490915081811015611a6b5760405162461bcd60e51b81526004016105bd90612df2565b6000838152602081815260408083206001600160a01b038e8116855292528083208585039055908b16825281208054849290611aa8908490612e94565b9250508190555050505080611abc90612f68565b90506119c4565b50846001600160a01b0316866001600160a01b0316826001600160a01b03167f4a39dc06d4c0dbc64b70af90fd698a233a518aa5d07e595d983b8c0526c8f7fb8787604051611b13929190612cd8565b60405180910390a4611b2981878787878761205c565b505050505050565b60055460ff16611b7a5760405162461bcd60e51b815260206004820152601460248201527314185d5cd8589b194e881b9bdd081c185d5cd95960621b60448201526064016105bd565b6005805460ff191690557f5db9ee0a495bf2e6ff9c91a7834c1ba4fdd244a5e8aa4e537bd38aeae4b073aa335b6040516001600160a01b03909116815260200160405180910390a1565b6000611bd083836121c7565b9392505050565b600380546001600160a01b038381166001600160a01b0319831681179093556040519116919082907f8be0079c531659141344cd1fd0a4f28419497f9722a3daafe3b4186f6b6457e090600090a35050565b60055460ff1615611c4c5760405162461bcd60e51b81526004016105bd90612d83565b6005805460ff191660011790557f62e78cea01bee320cd4e420270b5ea74000d11b0c9f74754ebdbfc544b05a258611ba73390565b60008181526001830160205260408120541515611bd0565b6000611bd08383612216565b60006105e9825490565b6000611bd08383612333565b6001600160a01b038416611d1b5760405162461bcd60e51b815260206004820152602160248201527f455243313135353a206d696e7420746f20746865207a65726f206164647265736044820152607360f81b60648201526084016105bd565b33611d3581600087611d2c8861236b565b61085c8861236b565b6000848152602081815260408083206001600160a01b038916845290915281208054859290611d65908490612e94565b909155505060408051858152602081018590526001600160a01b0380881692600092918516917fc3d58168c5ae7397731d063d5bbf3d657854427343f4c083240f7aacaa2d0f62910160405180910390a461085c816000878787876123c4565b6001600160a01b038416611deb5760405162461bcd60e51b81526004016105bd90612dad565b33611dfb818787611d2c8861236b565b6000848152602081815260408083206001600160a01b038a16845290915290205483811015611e3c5760405162461bcd60e51b81526004016105bd90612df2565b6000858152602081815260408083206001600160a01b038b8116855292528083208785039055908816825281208054869290611e79908490612e94565b909155505060408051868152602081018690526001600160a01b03808916928a821692918616917fc3d58168c5ae7397731d063d5bbf3d657854427343f4c083240f7aacaa2d0f62910160405180910390a4611ed98288888888886123c4565b50505050505050565b6001600160a01b038316611f445760405162461bcd60e51b815260206004820152602360248201527f455243313135353a206275726e2066726f6d20746865207a65726f206164647260448201526265737360e81b60648201526084016105bd565b33611f7481856000611f558761236b565b611f5e8761236b565b5050604080516020810190915260009052505050565b6000838152602081815260408083206001600160a01b038816845290915290205482811015611ff15760405162461bcd60e51b8152602060048201526024808201527f455243313135353a206275726e20616d6f756e7420657863656564732062616c604482015263616e636560e01b60648201526084016105bd565b6000848152602081815260408083206001600160a01b03898116808652918452828520888703905582518981529384018890529092908616917fc3d58168c5ae7397731d063d5bbf3d657854427343f4c083240f7aacaa2d0f62910160405180910390a45050505050565b6001600160a01b0384163b15611b295760405163bc197c8160e01b81526001600160a01b0385169063bc197c81906120a09089908990889088908890600401612c22565b602060405180830381600087803b1580156120ba57600080fd5b505af19250505080156120ea575060408051601f3d908101601f191682019092526120e791810190612a1d565b60015b612197576120f6612fd9565b806308c379a01415612130575061210b612ff1565b806121165750612132565b8060405162461bcd60e51b81526004016105bd9190612cfd565b505b60405162461bcd60e51b815260206004820152603460248201527f455243313135353a207472616e7366657220746f206e6f6e20455243313135356044820152732932b1b2b4bb32b91034b6b83632b6b2b73a32b960611b60648201526084016105bd565b6001600160e01b0319811663bc197c8160e01b14611ed95760405162461bcd60e51b81526004016105bd90612d10565b600081815260018301602052604081205461220e575081546001818101845560008481526020808220909301849055845484825282860190935260409020919091556105e9565b5060006105e9565b6000818152600183016020526040812054801561232957600061223a600183612ec0565b855490915060009061224e90600190612ec0565b90508181146122cf57600086600001828154811061227c57634e487b7160e01b600052603260045260246000fd5b90600052602060002001549050808760000184815481106122ad57634e487b7160e01b600052603260045260246000fd5b6000918252602080832090910192909255918252600188019052604090208390555b85548690806122ee57634e487b7160e01b600052603160045260246000fd5b6001900381819060005260206000200160009055905585600101600086815260200190815260200160002060009055600193505050506105e9565b60009150506105e9565b600082600001828154811061235857634e487b7160e01b600052603260045260246000fd5b9060005260206000200154905092915050565b604080516001808252818301909252606091600091906020808301908036833701905050905082816000815181106123b357634e487b7160e01b600052603260045260246000fd5b602090810291909101015292915050565b6001600160a01b0384163b15611b295760405163f23a6e6160e01b81526001600160a01b0385169063f23a6e61906124089089908990889088908890600401612c80565b602060405180830381600087803b15801561242257600080fd5b505af1925050508015612452575060408051601f3d908101601f1916820190925261244f91810190612a1d565b60015b61245e576120f6612fd9565b6001600160e01b0319811663f23a6e6160e01b14611ed95760405162461bcd60e51b81526004016105bd90612d10565b82805461249a90612f07565b90600052602060002090601f0160209004810192826124bc5760008555612502565b82601f106124d557805160ff1916838001178555612502565b82800160010185558215612502579182015b828111156125025782518255916020019190600101906124e7565b5061250e929150612512565b5090565b5b8082111561250e5760008155600101612513565b60006001600160401b0383111561254057612540612fc3565b604051612557601f8501601f191660200182612f3c565b80915083815284848401111561256c57600080fd5b83836020830137600060208583010152509392505050565b80356001600160a01b038116811461259b57600080fd5b919050565b600082601f8301126125b0578081fd5b813560206125bd82612e71565b6040516125ca8282612f3c565b8381528281019150858301600585901b870184018810156125e9578586fd5b855b85811015612607578135845292840192908401906001016125eb565b5090979650505050505050565b600082601f830112612624578081fd5b611bd083833560208501612527565b600060208284031215612644578081fd5b611bd082612584565b6000806040838503121561265f578081fd5b61266883612584565b915061267660208401612584565b90509250929050565b600080600080600060a08688031215612696578081fd5b61269f86612584565b94506126ad60208701612584565b935060408601356001600160401b03808211156126c8578283fd5b6126d489838a016125a0565b945060608801359150808211156126e9578283fd5b6126f589838a016125a0565b9350608088013591508082111561270a578283fd5b5061271788828901612614565b9150509295509295909350565b60008060008060006080868803121561273b578081fd5b61274486612584565b945061275260208701612584565b93506040860135925060608601356001600160401b0380821115612774578283fd5b818801915088601f830112612787578283fd5b813581811115612795578384fd5b8960208285010111156127a6578384fd5b9699959850939650602001949392505050565b600080600080600060a086880312156127d0578081fd5b6127d986612584565b94506127e760208701612584565b9350604086013592506060860135915060808601356001600160401b0381111561280f578182fd5b61271788828901612614565b6000806040838503121561282d578182fd5b61283683612584565b915060208301356128468161307a565b809150509250929050565b60008060408385031215612863578182fd5b61286c83612584565b946020939093013593505050565b60008060006060848603121561288e578081fd5b61289784612584565b95602085013595506040909401359392505050565b600080604083850312156128be578182fd5b82356001600160401b03808211156128d4578384fd5b818501915085601f8301126128e7578384fd5b813560206128f482612e71565b6040516129018282612f3c565b8381528281019150858301600585901b870184018b1015612920578889fd5b8896505b848710156129495761293581612584565b835260019690960195918301918301612924565b509650508601359250508082111561295f578283fd5b5061296c858286016125a0565b9150509250929050565b60008060208385031215612988578182fd5b82356001600160401b038082111561299e578384fd5b818501915085601f8301126129b1578384fd5b8135818111156129bf578485fd5b8660208260051b85010111156129d3578485fd5b60209290920196919550909350505050565b6000602082840312156129f6578081fd5b8151611bd08161307a565b600060208284031215612a12578081fd5b8135611bd081613088565b600060208284031215612a2e578081fd5b8151611bd081613088565b600060208284031215612a4a578081fd5b81356001600160401b03811115612a5f578182fd5b8201601f81018413612a6f578182fd5b61193084823560208401612527565b600060208284031215612a8f578081fd5b5035919050565b600060208284031215612aa7578081fd5b5051919050565b60008060408385031215612ac0578182fd5b50508035926020909101359150565b600080600060608486031215612ae3578081fd5b505081359360208301359350604090920135919050565b6000815180845260208085019450808401835b83811015612b2957815187529582019590820190600101612b0d565b509495945050505050565b60008151808452612b4c816020860160208601612ed7565b601f01601f19169290920160200192915050565b60008151612b72818560208601612ed7565b9290920192915050565b600080845482600182811c915080831680612b9857607f831692505b6020808410821415612bb857634e487b7160e01b87526022600452602487fd5b818015612bcc5760018114612bdd57612c09565b60ff19861689528489019650612c09565b60008b815260209020885b86811015612c015781548b820152908501908301612be8565b505084890196505b505050505050612c198185612b60565b95945050505050565b6001600160a01b0386811682528516602082015260a060408201819052600090612c4e90830186612afa565b8281036060840152612c608186612afa565b90508281036080840152612c748185612b34565b98975050505050505050565b6001600160a01b03868116825285166020820152604081018490526060810183905260a060808201819052600090612cba90830184612b34565b979650505050505050565b602081526000611bd06020830184612afa565b604081526000612ceb6040830185612afa565b8281036020840152612c198185612afa565b602081526000611bd06020830184612b34565b60208082526028908201527f455243313135353a204552433131353552656365697665722072656a656374656040820152676420746f6b656e7360c01b606082015260800190565b60208082526011908201527010dbdb9d1c9858dd1cc81b9bdd081cd95d607a1b604082015260600190565b60208082526010908201526f14185d5cd8589b194e881c185d5cd95960821b604082015260600190565b60208082526025908201527f455243313135353a207472616e7366657220746f20746865207a65726f206164604082015264647265737360d81b606082015260800190565b6020808252602a908201527f455243313135353a20696e73756666696369656e742062616c616e636520666f60408201526939103a3930b739b332b960b11b606082015260800190565b6020808252818101527f4f776e61626c653a2063616c6c6572206973206e6f7420746865206f776e6572604082015260600190565b60006001600160401b03821115612e8a57612e8a612fc3565b5060051b60200190565b60008219821115612ea757612ea7612f97565b500190565b600082612ebb57612ebb612fad565b500490565b600082821015612ed257612ed2612f97565b500390565b60005b83811015612ef2578181015183820152602001612eda565b83811115612f01576000848401525b50505050565b600181811c90821680612f1b57607f821691505b6020821081141561163957634e487b7160e01b600052602260045260246000fd5b601f8201601f191681016001600160401b0381118282101715612f6157612f61612fc3565b6040525050565b6000600019821415612f7c57612f7c612f97565b5060010190565b600082612f9257612f92612fad565b500690565b634e487b7160e01b600052601160045260246000fd5b634e487b7160e01b600052601260045260246000fd5b634e487b7160e01b600052604160045260246000fd5b600060033d1115612fee57600481823e5160e01c5b90565b600060443d1015612fff5790565b6040516003193d81016004833e81513d6001600160401b03816024840111818411171561302e57505050505090565b82850191508151818111156130465750505050505090565b843d87010160208285010111156130605750505050505090565b61306f60208286010187612f3c565b509095945050505050565b801515811461067257600080fd5b6001600160e01b03198116811461067257600080fdfea26469706673582212205f81e4b4d295b89e59106d44fb8ba02ff0f0d8b95e3ba2b267cb26cbeb86a96f64736f6c63430008040033",
  "linkReferences": {},
  "deployedLinkReferences": {}
}