{
  "_format": "hh-sol-artifact-1",
  "contractName": "FishFarm",
  "sourceName": "contracts/FishFarm.sol",
  "abi": [
    {
      "inputs": [
        {
          "internalType": "address",
          "name": "fish",
          "type": "address"
        },
        {
          "internalType": "address",
          "name": "erc721",
          "type": "address"
        },
        {
          "internalType": "uint256",
          "name": "rate",
          "type": "uint256"
        },
        {
          "internalType": "uint256",
          "name": "expiration",
          "type": "uint256"
        }
      ],
      "stateMutability": "nonpayable",
      "type": "constructor"
    },
    {
      "anonymous": false,
      "inputs": [
        {
          "indexed": true,
          "internalType": "address",
          "name": "previousOwner",
          "type": "address"
        },
        {
          "indexed": true,
          "internalType": "address",
          "name": "newOwner",
          "type": "address"
        }
      ],
      "name": "OwnershipTransferred",
      "type": "event"
    },
    {
      "inputs": [],
      "name": "EXPIRATION",
      "outputs": [
        {
          "internalType": "uint256",
          "name": "",
          "type": "uint256"
        }
      ],
      "stateMutability": "view",
      "type": "function"
    },
    {
      "inputs": [],
      "name": "FISH",
      "outputs": [
        {
          "internalType": "address",
          "name": "",
          "type": "address"
        }
      ],
      "stateMutability": "view",
      "type": "function"
    },
    {
      "inputs": [
        {
          "internalType": "address",
          "name": "account",
          "type": "address"
        },
        {
          "internalType": "uint256[]",
          "name": "tokenIds",
          "type": "uint256[]"
        }
      ],
      "name": "calculateRewards",
      "outputs": [
        {
          "internalType": "uint256[]",
          "name": "rewards",
          "type": "uint256[]"
        }
      ],
      "stateMutability": "view",
      "type": "function"
    },
    {
      "inputs": [
        {
          "internalType": "uint256[]",
          "name": "tokenIds",
          "type": "uint256[]"
        }
      ],
      "name": "claimRewards",
      "outputs": [],
      "stateMutability": "nonpayable",
      "type": "function"
    },
    {
      "inputs": [
        {
          "internalType": "uint256[]",
          "name": "tokenIds",
          "type": "uint256[]"
        }
      ],
      "name": "deposit",
      "outputs": [],
      "stateMutability": "nonpayable",
      "type": "function"
    },
    {
      "inputs": [
        {
          "internalType": "address",
          "name": "",
          "type": "address"
        },
        {
          "internalType": "uint256",
          "name": "",
          "type": "uint256"
        }
      ],
      "name": "depositBlocks",
      "outputs": [
        {
          "internalType": "uint256",
          "name": "",
          "type": "uint256"
        }
      ],
      "stateMutability": "view",
      "type": "function"
    },
    {
      "inputs": [
        {
          "internalType": "address",
          "name": "account",
          "type": "address"
        }
      ],
      "name": "depositsOf",
      "outputs": [
        {
          "internalType": "uint256[]",
          "name": "",
          "type": "uint256[]"
        }
      ],
      "stateMutability": "view",
      "type": "function"
    },
    {
      "inputs": [
        {
          "internalType": "address",
          "name": "",
          "type": "address"
        },
        {
          "internalType": "address",
          "name": "",
          "type": "address"
        },
        {
          "internalType": "uint256",
          "name": "",
          "type": "uint256"
        },
        {
          "internalType": "bytes",
          "name": "",
          "type": "bytes"
        }
      ],
      "name": "onERC721Received",
      "outputs": [
        {
          "internalType": "bytes4",
          "name": "",
          "type": "bytes4"
        }
      ],
      "stateMutability": "pure",
      "type": "function"
    },
    {
      "inputs": [],
      "name": "owner",
      "outputs": [
        {
          "internalType": "address",
          "name": "",
          "type": "address"
        }
      ],
      "stateMutability": "view",
      "type": "function"
    },
    {
      "inputs": [],
      "name": "renounceOwnership",
      "outputs": [],
      "stateMutability": "nonpayable",
      "type": "function"
    },
    {
      "inputs": [
        {
          "internalType": "uint256",
          "name": "_expiration",
          "type": "uint256"
        }
      ],
      "name": "setExpiration",
      "outputs": [],
      "stateMutability": "nonpayable",
      "type": "function"
    },
    {
      "inputs": [
        {
          "internalType": "uint256",
          "name": "_rate",
          "type": "uint256"
        }
      ],
      "name": "setRate",
      "outputs": [],
      "stateMutability": "nonpayable",
      "type": "function"
    },
    {
      "inputs": [
        {
          "internalType": "address",
          "name": "newOwner",
          "type": "address"
        }
      ],
      "name": "transferOwnership",
      "outputs": [],
      "stateMutability": "nonpayable",
      "type": "function"
    },
    {
      "inputs": [
        {
          "internalType": "uint256[]",
          "name": "tokenIds",
          "type": "uint256[]"
        }
      ],
      "name": "withdraw",
      "outputs": [],
      "stateMutability": "nonpayable",
      "type": "function"
    }
  ],
  "bytecode": "0x60a06040523480156200001157600080fd5b50604051620012e1380380620012e18339810160408190526200003491620000f8565b6200003f336200008b565b600180546001600160a01b0319166001600160a01b038616179055606083901b6001600160601b03191660805260038290556200007d81436200013f565b600255506200016492505050565b600080546001600160a01b038381166001600160a01b0319831681178455604051919092169283917f8be0079c531659141344cd1fd0a4f28419497f9722a3daafe3b4186f6b6457e09190a35050565b80516001600160a01b0381168114620000f357600080fd5b919050565b600080600080608085870312156200010e578384fd5b6200011985620000db565b93506200012960208601620000db565b6040860151606090960151949790965092505050565b600082198211156200015f57634e487b7160e01b81526011600452602481fd5b500190565b60805160601c6111576200018a60003960008181610441015261083d01526111576000f3fe608060405234801561001057600080fd5b50600436106100ea5760003560e01c8063715018a61161008c578063bb4b573411610066578063bb4b573414610217578063e3a9db1a14610220578063f2fde38b14610233578063ffcff32c1461024657600080fd5b8063715018a6146101d75780638da5cb5b146101df578063983d95ce1461020457600080fd5b806334fcf437116100c857806334fcf43714610189578063515a20ba1461019e578063598b8e71146101b15780635eac6239146101c457600080fd5b8063068c526f146100ef57806306dfe2d114610118578063150b7a0214610151575b600080fd5b6101026100fd366004610daf565b610259565b60405161010f9190610f44565b60405180910390f35b610143610126366004610e6c565b600560209081526000928352604080842090915290825290205481565b60405190815260200161010f565b61017061015f366004610d19565b630a85bd0160e11b95945050505050565b6040516001600160e01b0319909116815260200161010f565b61019c610197366004610f2c565b6103c3565b005b61019c6101ac366004610f2c565b6103fb565b61019c6101bf366004610e95565b61042a565b61019c6101d2366004610e95565b610566565b61019c610721565b6000546001600160a01b03165b6040516001600160a01b03909116815260200161010f565b61019c610212366004610e95565b610757565b61014360025481565b61010261022e366004610cff565b61091c565b61019c610241366004610cff565b6109f4565b6001546101ec906001600160a01b031681565b6060815167ffffffffffffffff81111561028357634e487b7160e01b600052604160045260246000fd5b6040519080825280602002602001820160405280156102ac578160200160208202803683370190505b50905060005b82518110156103bc5760008382815181106102dd57634e487b7160e01b600052603260045260246000fd5b6020026020010151905060056000866001600160a01b03166001600160a01b0316815260200190815260200160002060008281526020019081526020016000205461032a43600254610a8f565b6103349190610ff4565b6001600160a01b03861660009081526004602052604090206103569083610aa9565b610361576000610364565b60015b60ff166003546103749190610fd5565b61037e9190610fd5565b83838151811061039e57634e487b7160e01b600052603260045260246000fd5b602090810291909101015250806103b481611038565b9150506102b2565b5092915050565b6000546001600160a01b031633146103f65760405162461bcd60e51b81526004016103ed90610f88565b60405180910390fd5b600355565b6000546001600160a01b031633146104255760405162461bcd60e51b81526004016103ed90610f88565b600255565b6104348282610566565b60005b81811015610561577f00000000000000000000000000000000000000000000000000000000000000006001600160a01b031663b88d4fde333086868681811061049057634e487b7160e01b600052603260045260246000fd5b6040516001600160e01b031960e088901b1681526001600160a01b03958616600482015294909316602485015250602090910201356044820152608060648201526000608482015260a401600060405180830381600087803b1580156104f557600080fd5b505af1158015610509573d6000803e3d6000fd5b5050505061054e83838381811061053057634e487b7160e01b600052603260045260246000fd5b33600090815260046020908152604090912093910201359050610ac1565b508061055981611038565b915050610437565b505050565b60008061057543600254610a8f565b905060006105b63386868080602002602001604051908101604052809392919081815260200183836020028082843760009201919091525061025992505050565b905060005b84811015610657578181815181106105e357634e487b7160e01b600052603260045260246000fd5b6020026020010151846105f69190610fbd565b33600090815260056020526040812091955084919088888581811061062b57634e487b7160e01b600052603260045260246000fd5b90506020020135815260200190815260200160002081905550808061064f90611038565b9150506105bb565b50821561071a5760015460405163a9059cbb60e01b8152336004820152602481018590526001600160a01b039091169063a9059cbb90604401602060405180830381600087803b1580156106aa57600080fd5b505af19250505080156106da575060408051601f3d908101601f191682019092526106d791810190610f05565b60015b610718576106e661107f565b806308c379a0141561070c57506106fb611097565b80610706575061070e565b5061071a565b505b3d6000803e3d6000fd5b505b5050505050565b6000546001600160a01b0316331461074b5760405162461bcd60e51b81526004016103ed90610f88565b6107556000610acd565b565b6107618282610566565b60005b81811015610561576107ad83838381811061078f57634e487b7160e01b600052603260045260246000fd5b33600090815260046020908152604090912093910201359050610aa9565b6107f95760405162461bcd60e51b815260206004820152601f60248201527f4552433732314661726d3a20746f6b656e206e6f74206465706f73697465640060448201526064016103ed565b61083a83838381811061081c57634e487b7160e01b600052603260045260246000fd5b33600090815260046020908152604090912093910201359050610b1d565b507f00000000000000000000000000000000000000000000000000000000000000006001600160a01b031663b88d4fde303386868681811061088c57634e487b7160e01b600052603260045260246000fd5b6040516001600160e01b031960e088901b1681526001600160a01b03958616600482015294909316602485015250602090910201356044820152608060648201526000608482015260a401600060405180830381600087803b1580156108f157600080fd5b505af1158015610905573d6000803e3d6000fd5b50505050808061091490611038565b915050610764565b6001600160a01b038116600090815260046020526040812060609161094082610b29565b67ffffffffffffffff81111561096657634e487b7160e01b600052604160045260246000fd5b60405190808252806020026020018201604052801561098f578160200160208202803683370190505b50905060005b61099e83610b29565b8110156109ec576109af8382610b33565b8282815181106109cf57634e487b7160e01b600052603260045260246000fd5b6020908102919091010152806109e481611038565b915050610995565b509392505050565b6000546001600160a01b03163314610a1e5760405162461bcd60e51b81526004016103ed90610f88565b6001600160a01b038116610a835760405162461bcd60e51b815260206004820152602660248201527f4f776e61626c653a206e6577206f776e657220697320746865207a65726f206160448201526564647265737360d01b60648201526084016103ed565b610a8c81610acd565b50565b6000818310610a9e5781610aa0565b825b90505b92915050565b60008181526001830160205260408120541515610aa0565b6000610aa08383610b3f565b600080546001600160a01b038381166001600160a01b0319831681178455604051919092169283917f8be0079c531659141344cd1fd0a4f28419497f9722a3daafe3b4186f6b6457e09190a35050565b6000610aa08383610b8e565b6000610aa3825490565b6000610aa08383610cab565b6000818152600183016020526040812054610b8657508154600181810184556000848152602080822090930184905584548482528286019093526040902091909155610aa3565b506000610aa3565b60008181526001830160205260408120548015610ca1576000610bb2600183610ff4565b8554909150600090610bc690600190610ff4565b9050818114610c47576000866000018281548110610bf457634e487b7160e01b600052603260045260246000fd5b9060005260206000200154905080876000018481548110610c2557634e487b7160e01b600052603260045260246000fd5b6000918252602080832090910192909255918252600188019052604090208390555b8554869080610c6657634e487b7160e01b600052603160045260246000fd5b600190038181906000526020600020016000905590558560010160008681526020019081526020016000206000905560019350505050610aa3565b6000915050610aa3565b6000826000018281548110610cd057634e487b7160e01b600052603260045260246000fd5b9060005260206000200154905092915050565b80356001600160a01b0381168114610cfa57600080fd5b919050565b600060208284031215610d10578081fd5b610aa082610ce3565b600080600080600060808688031215610d30578081fd5b610d3986610ce3565b9450610d4760208701610ce3565b935060408601359250606086013567ffffffffffffffff80821115610d6a578283fd5b818801915088601f830112610d7d578283fd5b813581811115610d8b578384fd5b896020828501011115610d9c578384fd5b9699959850939650602001949392505050565b60008060408385031215610dc1578182fd5b610dca83610ce3565b915060208084013567ffffffffffffffff80821115610de7578384fd5b818601915086601f830112610dfa578384fd5b813581811115610e0c57610e0c611069565b8060051b9150604051610e218584018261100b565b81815284810184860184860187018b1015610e3a578788fd5b8795505b83861015610e5c578035825260019590950194908601908601610e3e565b5096999098509650505050505050565b60008060408385031215610e7e578182fd5b610e8783610ce3565b946020939093013593505050565b60008060208385031215610ea7578182fd5b823567ffffffffffffffff80821115610ebe578384fd5b818501915085601f830112610ed1578384fd5b813581811115610edf578485fd5b8660208260051b8501011115610ef3578485fd5b60209290920196919550909350505050565b600060208284031215610f16578081fd5b81518015158114610f25578182fd5b9392505050565b600060208284031215610f3d578081fd5b5035919050565b6020808252825182820181905260009190848201906040850190845b81811015610f7c57835183529284019291840191600101610f60565b50909695505050505050565b6020808252818101527f4f776e61626c653a2063616c6c6572206973206e6f7420746865206f776e6572604082015260600190565b60008219821115610fd057610fd0611053565b500190565b6000816000190483118215151615610fef57610fef611053565b500290565b60008282101561100657611006611053565b500390565b601f8201601f1916810167ffffffffffffffff8111828210171561103157611031611069565b6040525050565b600060001982141561104c5761104c611053565b5060010190565b634e487b7160e01b600052601160045260246000fd5b634e487b7160e01b600052604160045260246000fd5b600060033d111561109457600481823e5160e01c5b90565b600060443d10156110a55790565b6040516003193d81016004833e81513d67ffffffffffffffff81602484011181841117156110d557505050505090565b82850191508151818111156110ed5750505050505090565b843d87010160208285010111156111075750505050505090565b6111166020828601018761100b565b50909594505050505056fea2646970667358221220d01b6efd86e19e63c9a4a4b62625f52a0a7edb1e880b1a3f8284bd67831dbd3564736f6c63430008040033",
  "linkReferences": {},
  "deployedLinkReferences": {}
}