{
  "_format": "hh-sol-artifact-1",
  "contractName": "FishStaking",
  "sourceName": "contracts/FishStaking.sol",
  "abi": [
    {
      "inputs": [
        {
          "internalType": "address",
          "name": "_stakingDestinationAddress",
          "type": "address"
        },
        {
          "internalType": "uint256",
          "name": "_rate",
          "type": "uint256"
        },
        {
          "internalType": "uint256",
          "name": "_expiration",
          "type": "uint256"
        },
        {
          "internalType": "address",
          "name": "_erc20Address",
          "type": "address"
        }
      ],
      "stateMutability": "nonpayable",
      "type": "constructor"
    },
    {
      "anonymous": false,
      "inputs": [
        {
          "indexed": true,
          "internalType": "address",
          "name": "previousOwner",
          "type": "address"
        },
        {
          "indexed": true,
          "internalType": "address",
          "name": "newOwner",
          "type": "address"
        }
      ],
      "name": "OwnershipTransferred",
      "type": "event"
    },
    {
      "anonymous": false,
      "inputs": [
        {
          "indexed": false,
          "internalType": "address",
          "name": "account",
          "type": "address"
        }
      ],
      "name": "Paused",
      "type": "event"
    },
    {
      "anonymous": false,
      "inputs": [
        {
          "indexed": false,
          "internalType": "address",
          "name": "account",
          "type": "address"
        }
      ],
      "name": "Unpaused",
      "type": "event"
    },
    {
      "inputs": [
        {
          "internalType": "address",
          "name": "",
          "type": "address"
        },
        {
          "internalType": "uint256",
          "name": "",
          "type": "uint256"
        }
      ],
      "name": "_depositBlocks",
      "outputs": [
        {
          "internalType": "uint256",
          "name": "",
          "type": "uint256"
        }
      ],
      "stateMutability": "view",
      "type": "function"
    },
    {
      "inputs": [
        {
          "internalType": "address",
          "name": "account",
          "type": "address"
        },
        {
          "internalType": "uint256",
          "name": "tokenId",
          "type": "uint256"
        }
      ],
      "name": "calculateReward",
      "outputs": [
        {
          "internalType": "uint256",
          "name": "",
          "type": "uint256"
        }
      ],
      "stateMutability": "view",
      "type": "function"
    },
    {
      "inputs": [
        {
          "internalType": "address",
          "name": "account",
          "type": "address"
        },
        {
          "internalType": "uint256[]",
          "name": "tokenIds",
          "type": "uint256[]"
        }
      ],
      "name": "calculateRewards",
      "outputs": [
        {
          "internalType": "uint256[]",
          "name": "rewards",
          "type": "uint256[]"
        }
      ],
      "stateMutability": "view",
      "type": "function"
    },
    {
      "inputs": [
        {
          "internalType": "uint256[]",
          "name": "tokenIds",
          "type": "uint256[]"
        }
      ],
      "name": "claimRewards",
      "outputs": [],
      "stateMutability": "nonpayable",
      "type": "function"
    },
    {
      "inputs": [
        {
          "internalType": "uint256[]",
          "name": "tokenIds",
          "type": "uint256[]"
        }
      ],
      "name": "deposit",
      "outputs": [],
      "stateMutability": "nonpayable",
      "type": "function"
    },
    {
      "inputs": [
        {
          "internalType": "address",
          "name": "account",
          "type": "address"
        }
      ],
      "name": "depositsOf",
      "outputs": [
        {
          "internalType": "uint256[]",
          "name": "",
          "type": "uint256[]"
        }
      ],
      "stateMutability": "view",
      "type": "function"
    },
    {
      "inputs": [],
      "name": "erc20Address",
      "outputs": [
        {
          "internalType": "address",
          "name": "",
          "type": "address"
        }
      ],
      "stateMutability": "view",
      "type": "function"
    },
    {
      "inputs": [],
      "name": "expiration",
      "outputs": [
        {
          "internalType": "uint256",
          "name": "",
          "type": "uint256"
        }
      ],
      "stateMutability": "view",
      "type": "function"
    },
    {
      "inputs": [
        {
          "internalType": "address",
          "name": "",
          "type": "address"
        },
        {
          "internalType": "address",
          "name": "",
          "type": "address"
        },
        {
          "internalType": "uint256",
          "name": "",
          "type": "uint256"
        },
        {
          "internalType": "bytes",
          "name": "",
          "type": "bytes"
        }
      ],
      "name": "onERC721Received",
      "outputs": [
        {
          "internalType": "bytes4",
          "name": "",
          "type": "bytes4"
        }
      ],
      "stateMutability": "pure",
      "type": "function"
    },
    {
      "inputs": [],
      "name": "owner",
      "outputs": [
        {
          "internalType": "address",
          "name": "",
          "type": "address"
        }
      ],
      "stateMutability": "view",
      "type": "function"
    },
    {
      "inputs": [],
      "name": "pause",
      "outputs": [],
      "stateMutability": "nonpayable",
      "type": "function"
    },
    {
      "inputs": [],
      "name": "paused",
      "outputs": [
        {
          "internalType": "bool",
          "name": "",
          "type": "bool"
        }
      ],
      "stateMutability": "view",
      "type": "function"
    },
    {
      "inputs": [],
      "name": "rate",
      "outputs": [
        {
          "internalType": "uint256",
          "name": "",
          "type": "uint256"
        }
      ],
      "stateMutability": "view",
      "type": "function"
    },
    {
      "inputs": [],
      "name": "renounceOwnership",
      "outputs": [],
      "stateMutability": "nonpayable",
      "type": "function"
    },
    {
      "inputs": [
        {
          "internalType": "uint256",
          "name": "_expiration",
          "type": "uint256"
        }
      ],
      "name": "setExpiration",
      "outputs": [],
      "stateMutability": "nonpayable",
      "type": "function"
    },
    {
      "inputs": [
        {
          "internalType": "uint256",
          "name": "_rate",
          "type": "uint256"
        }
      ],
      "name": "setRate",
      "outputs": [],
      "stateMutability": "nonpayable",
      "type": "function"
    },
    {
      "inputs": [],
      "name": "stakingDestinationAddress",
      "outputs": [
        {
          "internalType": "address",
          "name": "",
          "type": "address"
        }
      ],
      "stateMutability": "view",
      "type": "function"
    },
    {
      "inputs": [
        {
          "internalType": "address",
          "name": "newOwner",
          "type": "address"
        }
      ],
      "name": "transferOwnership",
      "outputs": [],
      "stateMutability": "nonpayable",
      "type": "function"
    },
    {
      "inputs": [],
      "name": "unpause",
      "outputs": [],
      "stateMutability": "nonpayable",
      "type": "function"
    },
    {
      "inputs": [
        {
          "internalType": "uint256[]",
          "name": "tokenIds",
          "type": "uint256[]"
        }
      ],
      "name": "withdraw",
      "outputs": [],
      "stateMutability": "nonpayable",
      "type": "function"
    },
    {
      "inputs": [],
      "name": "withdrawTokens",
      "outputs": [],
      "stateMutability": "nonpayable",
      "type": "function"
    }
  ],
  "bytecode": "0x608060405260028054610100600160a81b03191690553480156200002257600080fd5b50604051620017bd380380620017bd8339810160408190526200004591620001c7565b6200005033620000bc565b600180556002805460ff19169055600380546001600160a01b0319166001600160a01b03861617905560068390556200008a824362000211565b600555600480546001600160a01b0319166001600160a01b038316179055620000b26200010c565b5050505062000236565b600080546001600160a01b038381166001600160a01b0319831681178455604051919092169283917f8be0079c531659141344cd1fd0a4f28419497f9722a3daafe3b4186f6b6457e09190a35050565b60025460ff1615620001575760405162461bcd60e51b815260206004820152601060248201526f14185d5cd8589b194e881c185d5cd95960821b604482015260640160405180910390fd5b6002805460ff191660011790557f62e78cea01bee320cd4e420270b5ea74000d11b0c9f74754ebdbfc544b05a2586200018d3390565b6040516001600160a01b03909116815260200160405180910390a1565b80516001600160a01b0381168114620001c257600080fd5b919050565b60008060008060808587031215620001dd578384fd5b620001e885620001aa565b935060208501519250604085015191506200020660608601620001aa565b905092959194509250565b600082198211156200023157634e487b7160e01b81526011600452602481fd5b500190565b61157780620002466000396000f3fe608060405234801561001057600080fd5b50600436106101375760003560e01c8063598b8e71116100b85780638d8f2adb1161007c5780638d8f2adb146102865780638da5cb5b1461028e578063983d95ce1461029f578063b343ae14146102b2578063e3a9db1a146102dd578063f2fde38b146102f057600080fd5b8063598b8e711461023a5780635c975abb1461024d5780635eac623914610263578063715018a6146102765780638456cb591461027e57600080fd5b80632c4e722e116100ff5780632c4e722e146101f857806334fcf437146102015780633f4ba83a146102165780634665096d1461021e578063515a20ba1461022757600080fd5b80630222a2c41461013c578063068c526f1461016c578063150b7a021461018c5780631852e8d9146101c4578063276184ae146101e5575b600080fd5b60035461014f906001600160a01b031681565b6040516001600160a01b0390911681526020015b60405180910390f35b61017f61017a36600461124d565b610303565b6040516101639190611409565b6101ab61019a3660046111b7565b630a85bd0160e11b95945050505050565b6040516001600160e01b03199091168152602001610163565b6101d76101d2366004611320565b61046e565b604051908152602001610163565b60045461014f906001600160a01b031681565b6101d760065481565b61021461020f3660046113d9565b610570565b005b61021461059f565b6101d760055481565b6102146102353660046113d9565b6105d3565b610214610248366004611349565b61060d565b60025460ff166040519015158152602001610163565b610214610271366004611349565b61079b565b610214610909565b61021461093d565b61021461096f565b6000546001600160a01b031661014f565b6102146102ad366004611349565b610aa8565b6101d76102c0366004611320565b600860209081526000928352604080842090915290825290205481565b61017f6102eb36600461119d565b610cd3565b6102146102fe36600461119d565b610dab565b6060815167ffffffffffffffff81111561032d57634e487b7160e01b600052604160045260246000fd5b604051908082528060200260200182016040528015610356578160200160208202803683370190505b50905060005b825181101561046657600083828151811061038757634e487b7160e01b600052603260045260246000fd5b6020026020010151905060086000866001600160a01b03166001600160a01b031681526020019081526020016000206000828152602001908152602001600020546103d443600554610e46565b6103de91906114e3565b6001600160a01b03861660009081526007602052604090206104009083610e5c565b61040b57600061040e565b60015b60ff1660065461041e91906114c4565b61042891906114c4565b83838151811061044857634e487b7160e01b600052603260045260246000fd5b6020908102919091010152508061045e816114fa565b91505061035c565b505b92915050565b6001600160a01b03821660009081526008602090815260408083208484529091528120546005546104a0904390610e46565b116104e35760405162461bcd60e51b815260206004820152600e60248201526d496e76616c696420626c6f636b7360901b60448201526064015b60405180910390fd5b6001600160a01b0383166000908152600860209081526040808320858452909152902054600554610515904390610e46565b61051f91906114e3565b6001600160a01b03841660009081526007602052604090206105419084610e5c565b61054c57600061054f565b60015b60ff1660065461055f91906114c4565b61056991906114c4565b9392505050565b6000546001600160a01b0316331461059a5760405162461bcd60e51b81526004016104da90611477565b600655565b6000546001600160a01b031633146105c95760405162461bcd60e51b81526004016104da90611477565b6105d1610e74565b565b6000546001600160a01b031633146105fd5760405162461bcd60e51b81526004016104da90611477565b61060781436114ac565b60055550565b60025460ff16156106305760405162461bcd60e51b81526004016104da9061144d565b6003546001600160a01b031633141561067d5760405162461bcd60e51b815260206004820152600f60248201526e496e76616c6964206164647265737360881b60448201526064016104da565b610687828261079b565b60005b81811015610796576003546001600160a01b031663b88d4fde33308686868181106106c557634e487b7160e01b600052603260045260246000fd5b6040516001600160e01b031960e088901b1681526001600160a01b03958616600482015294909316602485015250602090910201356044820152608060648201526000608482015260a401600060405180830381600087803b15801561072a57600080fd5b505af115801561073e573d6000803e3d6000fd5b5050505061078383838381811061076557634e487b7160e01b600052603260045260246000fd5b33600090815260076020908152604090912093910201359050610f07565b508061078e816114fa565b91505061068a565b505050565b60025460ff16156107be5760405162461bcd60e51b81526004016104da9061144d565b6000806107cd43600554610e46565b905060005b838110156108755761080a338686848181106107fe57634e487b7160e01b600052603260045260246000fd5b9050602002013561046e565b61081490846114ac565b33600090815260086020526040812091945083919087878581811061084957634e487b7160e01b600052603260045260246000fd5b90506020020135815260200190815260200160002081905550808061086d906114fa565b9150506107d2565b508115610903576004805460405163a9059cbb60e01b81523392810192909252602482018490526001600160a01b03169063a9059cbb90604401602060405180830381600087803b1580156108c957600080fd5b505af11580156108dd573d6000803e3d6000fd5b505050506040513d601f19601f8201168201806040525081019061090191906113b9565b505b50505050565b6000546001600160a01b031633146109335760405162461bcd60e51b81526004016104da90611477565b6105d16000610f13565b6000546001600160a01b031633146109675760405162461bcd60e51b81526004016104da90611477565b6105d1610f63565b6000546001600160a01b031633146109995760405162461bcd60e51b81526004016104da90611477565b600480546040516370a0823160e01b815230928101929092526000916001600160a01b03909116906370a082319060240160206040518083038186803b1580156109e257600080fd5b505afa1580156109f6573d6000803e3d6000fd5b505050506040513d601f19601f82011682018060405250810190610a1a91906113f1565b6004805460405163a9059cbb60e01b81523392810192909252602482018390529192506001600160a01b039091169063a9059cbb90604401602060405180830381600087803b158015610a6c57600080fd5b505af1158015610a80573d6000803e3d6000fd5b505050506040513d601f19601f82011682018060405250810190610aa491906113b9565b5050565b60025460ff1615610acb5760405162461bcd60e51b81526004016104da9061144d565b60026001541415610b1e5760405162461bcd60e51b815260206004820152601f60248201527f5265656e7472616e637947756172643a207265656e7472616e742063616c6c0060448201526064016104da565b6002600155610b2d828261079b565b60005b81811015610cca57610b79838383818110610b5b57634e487b7160e01b600052603260045260246000fd5b33600090815260076020908152604090912093910201359050610e5c565b610bc55760405162461bcd60e51b815260206004820152601c60248201527f5374616b696e673a20746f6b656e206e6f74206465706f73697465640000000060448201526064016104da565b610c06838383818110610be857634e487b7160e01b600052603260045260246000fd5b33600090815260076020908152604090912093910201359050610fbb565b506003546001600160a01b031663b88d4fde3033868686818110610c3a57634e487b7160e01b600052603260045260246000fd5b6040516001600160e01b031960e088901b1681526001600160a01b03958616600482015294909316602485015250602090910201356044820152608060648201526000608482015260a401600060405180830381600087803b158015610c9f57600080fd5b505af1158015610cb3573d6000803e3d6000fd5b505050508080610cc2906114fa565b915050610b30565b50506001805550565b6001600160a01b0381166000908152600760205260408120606091610cf782610fc7565b67ffffffffffffffff811115610d1d57634e487b7160e01b600052604160045260246000fd5b604051908082528060200260200182016040528015610d46578160200160208202803683370190505b50905060005b610d5583610fc7565b811015610da357610d668382610fd1565b828281518110610d8657634e487b7160e01b600052603260045260246000fd5b602090810291909101015280610d9b816114fa565b915050610d4c565b509392505050565b6000546001600160a01b03163314610dd55760405162461bcd60e51b81526004016104da90611477565b6001600160a01b038116610e3a5760405162461bcd60e51b815260206004820152602660248201527f4f776e61626c653a206e6577206f776e657220697320746865207a65726f206160448201526564647265737360d01b60648201526084016104da565b610e4381610f13565b50565b6000818310610e555781610569565b5090919050565b60008181526001830160205260408120541515610569565b60025460ff16610ebd5760405162461bcd60e51b815260206004820152601460248201527314185d5cd8589b194e881b9bdd081c185d5cd95960621b60448201526064016104da565b6002805460ff191690557f5db9ee0a495bf2e6ff9c91a7834c1ba4fdd244a5e8aa4e537bd38aeae4b073aa335b6040516001600160a01b03909116815260200160405180910390a1565b60006105698383610fdd565b600080546001600160a01b038381166001600160a01b0319831681178455604051919092169283917f8be0079c531659141344cd1fd0a4f28419497f9722a3daafe3b4186f6b6457e09190a35050565b60025460ff1615610f865760405162461bcd60e51b81526004016104da9061144d565b6002805460ff191660011790557f62e78cea01bee320cd4e420270b5ea74000d11b0c9f74754ebdbfc544b05a258610eea3390565b6000610569838361102c565b6000610468825490565b60006105698383611149565b600081815260018301602052604081205461102457508154600181810184556000848152602080822090930184905584548482528286019093526040902091909155610468565b506000610468565b6000818152600183016020526040812054801561113f5760006110506001836114e3565b8554909150600090611064906001906114e3565b90508181146110e557600086600001828154811061109257634e487b7160e01b600052603260045260246000fd5b90600052602060002001549050808760000184815481106110c357634e487b7160e01b600052603260045260246000fd5b6000918252602080832090910192909255918252600188019052604090208390555b855486908061110457634e487b7160e01b600052603160045260246000fd5b600190038181906000526020600020016000905590558560010160008681526020019081526020016000206000905560019350505050610468565b6000915050610468565b600082600001828154811061116e57634e487b7160e01b600052603260045260246000fd5b9060005260206000200154905092915050565b80356001600160a01b038116811461119857600080fd5b919050565b6000602082840312156111ae578081fd5b61056982611181565b6000806000806000608086880312156111ce578081fd5b6111d786611181565b94506111e560208701611181565b935060408601359250606086013567ffffffffffffffff80821115611208578283fd5b818801915088601f83011261121b578283fd5b813581811115611229578384fd5b89602082850101111561123a578384fd5b9699959850939650602001949392505050565b6000806040838503121561125f578182fd5b61126883611181565b915060208084013567ffffffffffffffff80821115611285578384fd5b818601915086601f830112611298578384fd5b8135818111156112aa576112aa61152b565b8060051b604051601f19603f830116810181811085821117156112cf576112cf61152b565b604052828152858101935084860182860187018b10156112ed578788fd5b8795505b8386101561130f5780358552600195909501949386019386016112f1565b508096505050505050509250929050565b60008060408385031215611332578182fd5b61133b83611181565b946020939093013593505050565b6000806020838503121561135b578182fd5b823567ffffffffffffffff80821115611372578384fd5b818501915085601f830112611385578384fd5b813581811115611393578485fd5b8660208260051b85010111156113a7578485fd5b60209290920196919550909350505050565b6000602082840312156113ca578081fd5b81518015158114610569578182fd5b6000602082840312156113ea578081fd5b5035919050565b600060208284031215611402578081fd5b5051919050565b6020808252825182820181905260009190848201906040850190845b8181101561144157835183529284019291840191600101611425565b50909695505050505050565b60208082526010908201526f14185d5cd8589b194e881c185d5cd95960821b604082015260600190565b6020808252818101527f4f776e61626c653a2063616c6c6572206973206e6f7420746865206f776e6572604082015260600190565b600082198211156114bf576114bf611515565b500190565b60008160001904831182151516156114de576114de611515565b500290565b6000828210156114f5576114f5611515565b500390565b600060001982141561150e5761150e611515565b5060010190565b634e487b7160e01b600052601160045260246000fd5b634e487b7160e01b600052604160045260246000fdfea2646970667358221220632cb80e9eab622bbb1b9a6c855ccc8aff496173e8cad610e343bae67539903564736f6c63430008040033",
  "linkReferences": {},
  "deployedLinkReferences": {}
}